:020000040000FA
:10000000D0080020F9100000E5290000E5100000EC
:10001000E5100000E5100000E51000000000000001
:100020000000000000000000000000004D11000072
:10003000E510000000000000E5100000E5100000E1
:1000400000000000000000000000000000000000B0
:1000500000000000000000000000000000000000A0
:100060000000000000000000000000000000000090
:100070000000000000000000000000000000000080
:100080000000000000000000000000000000000070
:100090000000000000000000000000000000000060
:1000A0000000000000000000000000000000000050
:1000B0000000000000000000000000000000000040
:1000C0000000000000000000000000000000000030
:1000D0000000000000000000000000000000000020
:1000E0000000000000000000000000000000000010
:1000F0000000000000000000000000000000000000
:1001000000000000000000000000000000000000EF
:1001100000000000000000000000000000000000DF
:1001200000000000000000000000000000000000CF
:1001300000000000000000000000000000000000BF
:1001400000000000000000000000000000000000AF
:10015000000000000000000000000000000000009F
:10016000000000000000000000000000000000008F
:10017000000000000000000000000000000000007F
:10018000000000000000000000000000000000006F
:10019000000000000000000000000000000000005F
:1001A000000000000000000000000000000000004F
:1001B000000000000000000000000000000000003F
:1001C000000000000000000000000000000000002F
:1001D000000000000000000000000000000000001F
:1001E000000000000000000000000000000000000F
:1001F00000000000000000000000000000000000FF
:10020000DEE61E284CBBCE8F023400003C0000000E
:10021000A42E00000100000000000000000000000B
:10022000FFFF02910000000000000000000000003D
:1002300000000000000000000000000030B44FF09B
:10024000000310F8014B11F8015B013A84EA050440
:1002500043EA0403F5D1A3F101034FEAD37030BCA4
:10026000704700BF4FF0000310F8012B013943EA3B
:100270000203F9D1A3F101034FEAD370704700BF25
:1002800030B411F8014B12F8015B6C4000F8014BDF
:10029000013BF6D130BC7047044A0123C2F8403517
:1002A0004FF080420020C2F87835704700E00140EE
:1002B0004FF4A0431B6B984216D21423434345F2DC
:1002C0003402D1580A4A0B4B42EA00628A4243EA9E
:1002D000006309D08B4209D0002383F31188BFF358
:1002E0006F8F0423184602DF0020704701207047FB
:1002F0000000FA50FFFFFA504FF08053D3F830213E
:10030000082A06D1D3F83431052B02D8024AD05C32
:1003100070470020704700BFB12C0000074B01223E
:10032000C3F80425D3F80024D207FBD50160BFF33E
:100330005F8F0022C3F80425704700BF00E0014032
:10034000124B70B553F82050013053F82060AE4284
:1003500000D870BD6C68B4B1237FDB0711D463692A
:1003600053B12046984738B10028B8BF4042E368EF
:10037000FF28A8BFFF201870E268537843F00103FC
:1003800053700835E3E72B689847FAE7FC2A00002A
:10039000134B9A6A12F0007F9A6A14BF1E201D2028
:1003A00012F0807F9A6A18BF1F2012F4002F9A6AF9
:1003B00018BF212012F4802F9A6A18BF222012F44D
:1003C000003F9A6A18BF232012F4803F9A6A6FEAAE
:1003D00002426FEA12429A6218BF2420704700BF9F
:1003E00000ED00E010B5184B0246986A9C6A10F4C4
:1003F000805F14BF1720162014F4006F9C6A18BF8A
:100400001820A40508D5986A000404D51AB19A6A80
:1004100022F400429A6219200B4B9A6A12F4806F00
:100420009A6A18BF1A20D2050CD49B6A13F4005F95
:1004300018BF1C20044A936A43F47F43936200234D
:100440000B7010BD1B20F5E700ED00E010B51C4B54
:100450000246986A9C6A10F0100F14BF11201020F9
:1004600014F0080F9C6A18BF1220A40709D5586B16
:10047000986A000604D51AB19A6A22F080029A623C
:1004800013200F4B9A6A12F0010F9A6A18BF1420BA
:1004900012F0200F9A6A18BF1520D40658BF9B6A25
:1004A000074B9A6A920642BF5A6A22F400525A6275
:1004B0009A6A42F0FF029A6200230B7010BD00BFDF
:1004C00000ED00E0F0B5264C264F2268002607EB31
:1004D00002151301D5F80858EDB28DBB06B12260A4
:1004E0004FF080521569B0FBF5F405FB140484BB92
:1004F0001569B1FBF5F405FB141454BB146952697A
:100500006243914225D803F1804202F5F032022481
:10051000C2F80008C2F80418C2F80848D2F8004827
:10052000A042134618D1D2F80428914214D1D3F82E
:100530000838DBB2022B0CBF00206FF00D0007E083
:100540000132072A4FF00106C1D922606FF01B006B
:10055000F0BD6FF01500FBE76FF00D00F8E700BF8E
:100560006000002000E001401FB5084A044607CAA9
:1005700001AB83E807000C221946204602F044FA3A
:1005800000280CBF2046002004B010BDC82A00007F
:1005900070B5064E0546002456F8040B2844FFF7B4
:1005A000E3FF10B90134072CF6D170BD1C2B0000FD
:1005B0002DE9F0431F4C204F54F8048C85B00026E1
:1005C00001ADB04503D8002005B0BDE8F08397E841
:1005D0000700636AD3F8009085E807000C222946DB
:1005E000484602F011FA98B9B9F1000F10D0636AC9
:1005F00021691B681A6991420AD19A69A1699142DD
:1006000006D8E169914203D962695B699A4309D0CE
:10061000236A5BB1002383F31188BFF36F8F042338
:10062000184602DFE36801361C44CAE7626A1360B9
:10063000F8E700BF3C020000D42A000070B5094D65
:100640002B784BB9084C0126C4F8006500F072FF06
:1006500020B92E70C4F80005002070BD6FF00D00A9
:10066000FBE700BFCC00002000A002502DE9F04FB6
:100670008DB004460591002800F0E1818669D0F82C
:100680000C900769FFF770FF00284BD0A3699E42CA
:1006900048D13046FFF77CFF844243D1226AAA4BFF
:1006A0009A4240F0CC810DF120080021404602F032
:1006B0005EF928B9BDF820206369B3EB520F36D339
:1006C0002569B5F5F82F32D8E3689D422FD314EB96
:1006D00009092CD2F3192AD2A64228D89C4226D244
:1006E00009F1FF394E4522D84B4520D9E26996429F
:1006F0001DD893421BD95268964218D8934216D9F6
:100700003544924F05F1050997E8070088E807008E
:100710000C224146284602F077F900B97DB901352F
:100720004D45F1D1226A884B9A4240F08881884930
:1007300004F120000DB0BDE8F04FFFF7EFBDEA680F
:10074000A3699A42EED123690393FFF777FF00284C
:10075000E8D1FFF773FF0028E4D14FF4A0473B6BCB
:10076000102BDFD8824645F2480B4FF6FF793B6BE2
:100770009A4510D300274FF4A0494FF0140B45F2CF
:10078000340AD9F830309F42CCD23846FFF790FD7A
:10079000A0B90137F5E75046FFF78AFD48B1ABF144
:1007A0001001084602F0B4F84845BBD00231594563
:1007B000F7D10AF1010A0BF1140BD8E7D9F8303060
:1007C0009F42AFD20BFB07FC0CF1040C0022CDF8CA
:1007D000088002EB0C0300215AF803300493C2F1A5
:1007E0001003032B94BF002301239B0004984FEABE
:1007F000C10E20FA0EFE029800F801E00131994284
:10080000F4DB01461A4419440F2A0291E1D9039BF3
:10081000009305F17002334608A905F1300002F09B
:10082000D0F8B8B905460CE02846FFF741FD38B1CD
:10083000142045F23403464900FB0530FFF76EFDF6
:100840000135AF42F0D1002108A802F090F828B19C
:10085000002306E065307FF465AF9AE7BDF82030ED
:100860005B0865699D4233D902F05AF880B30230C3
:1008700002F04EF8013880B24FF6FD73984227D847
:1008800007A90DF11A0002F072F808BB314B059A66
:1008900003EA450382F001021343BDF81A209BB21C
:1008A0009A4215D2079898B100F0030230326A4498
:1008B000DB439BB24FF0FF31089102F8103CC3F3C9
:1008C000072302F80F3C089920F00300FFF726FDEC
:1008D0004FF480514FF4A040FFF7F4FD002840F0A2
:1008E000AE80636B04F13C05984229D1DFF8689033
:1008F000DFF854A00027A36B9F4249D2DFF85C8049
:10090000002658F8040BFFF743FE50B1036A534525
:1009100007D1844205D000F13C03406B00228242A3
:100920001ED101364E45ECD300236A6A13601BB911
:100930002B6A002B40F08380EB6801371D44DAE717
:10094000EA6801301544CFE7FFFF0291E02A00007A
:100950000000FFFFFEFF010001000000B82C0000B6
:10096000D5F810C019698C450ED19969D5F818C011
:100970008C4509D8D5F81CC08C4505D96969D3F8D0
:1009800014C031EA0C01D0D0D96801320B44C6E75B
:100990004FF080424FF0FF33C2F80833BFF36F8F40
:1009A00072B6284AC2F88030C2F88430C2F8883063
:1009B000C2F88C30C2F89030C2F89430C2F8983047
:1009C000C2F89C30C2F88031C2F88431C2F8883154
:1009D000C2F88C31C2F89031C2F89431C2F8983123
:1009E000C2F89C314FF0E02300221A61D3F8042DA5
:1009F00042F00072C3F8042DD3F8242D22F4E02233
:100A000003F550635A62EFF31482920707D5EFF3B0
:100A1000148222F0020282F31488BFF36F8FBFF3B7
:100A20004F8FBFF36F8FA2699A60A3691A6882F330
:100A30000888002282F309885E68304600470DB0BE
:100A4000BDE8F08F00E100E070B50320FFF778FC0F
:100A50000420FFF775FC4FF4A0410020FFF732FDA2
:100A60000646A8B9886ACD6AFFF792FD0446284673
:100A7000FFF78EFD054618B1626943699A420DD3AE
:100A800000212046FFF7F2FD01212846FFF7EEFD89
:100A9000054A137B23F00103137370BD0121FFF797
:100AA000E5FD31462046F1E7640000209A422DE939
:100AB000F84F93461D4628BF9B461A4BDDF828A0E9
:100AC0001446012280468946C3F8002527460026A1
:100AD000A64206D30020134B0022C3F80025BDE830
:100AE000F88F09EB0601BAF1000F06D00BF10300F5
:100AF0008008002398420ED151465A46404600F0E5
:100B000091FC0028E7D1A7EB0B07BD42AB462E4472
:100B100028BFBB46DCE751F823204AF823200133E5
:100B2000E8E700BF00A002502DE9F043A1B002AFFA
:100B30008046381D99460C46164600F059FC274B56
:100B400098421DD0F0B9B4F1005F29D2B9F1000F7D
:100B50001CD06D46ADF5007D02AB009332464FF4DC
:100B600000732146381DFFF7A1FFAD461C4B98428C
:100B7000044605D00A3398422CD00C3B984211D140
:100B80006FF015007C37BD46BDE8F083154B009330
:100B90004FF4004332462146381DFFF787FFE5E753
:100BA0000090F5E70028EDD10F4D0123C5F8003581
:100BB0004146381D00F08EFCA0F57003A3F50073CC
:100BC000052BC5F80045DDD8252222FA03F3DB0703
:100BD000D6D4D7E76FF08500D4E700BF0002F0005D
:100BE0000202F000D010002000A002502DE9F043D6
:100BF000BDB005469DF814718946164601469846D3
:100C000040223B4613A8FFF78FFF044638B9102255
:100C100013A94846FFF712FB28B96FF06404204679
:100C20003DB0BDE8F083449A3B46414603A8FFF738
:100C30007BFF04460028F2D13B46202203A90BA8E3
:100C4000FFF772FF04460028E9D1134F0123C7F8CC
:100C500000352023009332460BAB294613A801F040
:100C6000F7FEA0F57003A3F67603C7F800450E2B38
:100C70000CD8DFE803F0080B0B0B0B0B0B0B0B0B6B
:100C800008080B080D006FF01504C8E70446C6E716
:100C90006FF06504C3E700BF00A0025008B5034829
:100CA00001F0B0FCBDE8084001F062BC142B00006C
:100CB00070B5454B5B688AB00646C3F30803002550
:100CC00085F31188BFF36F8F02F07F40B0F17F4F43
:100CD00011D102F00C0008280DD010074CBF0E46B1
:100CE00001250022033B8DF80720032B05D8DFE800
:100CF00003F01D5B5F582E46F3E700249DF8073094
:100D0000002B5ED12022314602A801F08DFE099B06
:100D1000002D51D0C3F3080222B96FEA53236FEAC2
:100D20004323099302A9204601F0DBFD264BDA6A32
:100D30009107E2D4DA6A002ADFDBDA6A5200DCD5F6
:100D40005A69B16942F480725A61BFF34F8FBFF3A1
:100D50006F8F5A6931F8021C22F480725A61BFF316
:100D60004F8FBFF36F8F4DF60272914209D09A6A8E
:100D7000D2B242B10DF107010120FFF767FB044633
:100D8000BCE73468BAE79A6A12F47F4F05D00DF1D8
:100D900007010120FFF726FBF1E79B6AB3F5803FCF
:100DA000ABD3FFF7F5FAEAE70DF107010020E4E71E
:100DB0000DF107010020EDE723F4FF7323F0010399
:100DC000AFE70AB070BD00BF00ED00E072B60023CF
:100DD00083F31388144B4FF0FF32C3F88020C3F81D
:100DE0008420C3F88820C3F88C20C3F89020C3F86F
:100DF0009420C3F89820C3F89C20C3F88021C3F83E
:100E00008421C3F88821C3F88C21C3F89021C3F84A
:100E10009421C3F89821C3F89C2162B6BFF34F8F89
:100E2000BFF36F8F704700BF00E100E03D4A08B597
:100E30003D4B22F07F029A60BFF34F8FBFF36F8F5D
:100E4000D3F8882022F47002C3F88820D3F88820D1
:100E500042F4A002C3F888204FF04042C3F8342285
:100E6000BFF34F8FBFF36F8F0024E1EE104A2F487E
:100E70002F4A2146121A01F0E2FD2E482E4A2F4930
:100E8000121A01F0D1FD2E482E4A2F49121A01F0F4
:100E9000CBFD2E482146202243180131302983F80A
:100EA0000023F9D10020FFF74BFA294B83F3088880
:100EB0001D4B5A6942F400725A610024E02283F803
:100EC0002220DC771C765C769C7683F820405A6A78
:100ED00042F4E0225A6283F823405A6942F0100239
:100EE0005A615A6922F008025A6110221A614FF0C1
:100EF000FF329A620120DA62FFF722FA0220FFF73E
:100F00001FFAE1EE104A134B134D83F309880020BA
:100F100012498847204621462246A8471048804764
:100F2000FEE700BF0000000000ED00E060000020D0
:100F3000D00000200000002060000020402E0000B3
:100F40000000002000000020402E000000E100E032
:100F5000D0100020D0080020490A0000E929000034
:100F6000F729000008B54FF08053D3F83021082A44
:100F70004ED14FF080420021C2F80C11C2F810117E
:100F8000C2F8381502F54042D3F80414C2F820150F
:100F9000D3F80814C2F82415D3F80C14C2F8281595
:100FA000D3F81014C2F82C15D3F81414C2F8301565
:100FB000D3F81814C2F83415D3F81C14C2F840152D
:100FC000D3F82014C2F84415D3F82414C2F84815F5
:100FD000D3F82814C2F84C15D3F82C14C2F85015C5
:100FE000D3F83014C2F85415D3F83414C2F860158D
:100FF000D3F83814C2F86415D3F83C14C2F8681555
:10100000D3F84014C2F86C15D3F84434C2F87035E4
:10101000FFF772F918B12B4B2B4AC3F88C26FFF758
:101020006BF918B1294BFB22C3F81825FFF764F9B7
:1010300070B14FF080414FF08053D1F8E42ED3F8D7
:10104000583222F00F0203F00F031343C1F8E43EBD
:10105000FFF752F920B11E4B4FF40072C3F840263F
:101060004FF08053D3F83031082B09D14FF0804333
:10107000D3F80024D20744BF6FF00102C3F8002464
:10108000144AD2F8883043F47003C2F88830BFF3B2
:101090004F8FBFF36F8F4FF08053D3F83021082A62
:1010A0000ED1D3F83431052B02D80B4AD35C3BB1B7
:1010B0004FF01023D3F808224FF08043C3F858258F
:1010C00008BD00BF005000404881030000F0004010
:1010D0000090024000ED00E0AB2C000030BFFFF7B5
:1010E000FDBF00BFEFF30880EFF3098101B5724641
:1010F000FFF7DEFD01BD00BF002080F31488BFF3C1
:101100006F8F0F4880F30888FFF72CFF00200D49F0
:101110000860BFF34F8FFFF759FE202080F311883E
:1011200009484FF40061401880F30988EFF31480F8
:101130000221084380F31488BFF36F8FFFF776FE18
:10114000D008002094ED00E0D00800201EF0040F2D
:101150000CBFEFF30880EFF30980816911F8021CDE
:101160000229FFD001B5724601F037FC01BD00BF76
:1011700030B10268034B04489A4208BF0020704710
:1011800002487047DD55AABB8208F0007108F000E4
:1011900038B50D460446B0B1A0220021043001F05C
:1011A00070FC95B10822294604F1640001F06FFC3F
:1011B000082205F1200104F1840001F068FC044BD1
:1011C0002360002038BD0348FCE70348FAE700BF6E
:1011D000DD55AABB7108F0008308F0002DE9F74344
:1011E00005460E4699461146FFF7C2FF0446002801
:1011F00040F08480002E00F08580002900F084807B
:10120000B9F1200F40F0828005F14404082205F175
:101210000408204601F03BFC05F124070822314672
:10122000404601F034FC06F120010822384601F066
:101230002EFC02A94FF4807041F8049D01F01BFCC4
:10124000002865D1334A4FF4807313600121936005
:101250000823314A00F02EFB0121084605232F4ABE
:1012600000F028FB0823424601211C2000F022FB4D
:1012700008233A460121032000F01CFB22460823E4
:101280000121022000F016FB0823254A01211A2023
:1012900000F010FB0523234A01211B2000F00AFB6C
:1012A0000823214A0121142000F004FB08231F4ACF
:1012B0000121152000F0FEFA082305F16402012146
:1012C000162000F0F7FA082305F184020121172007
:1012D00000F0F0FA0823164A01210B2000F0EAFA88
:1012E00000F044FB0446019800F0D2FA114B002CA8
:1012F00018BF1C46A421284601F0C5FB204603B0B8
:10130000BDE8F0830C4CF9E70C4CF7E70C4CF5E723
:10131000084CEFE790B00250782B0000F02B000053
:10132000382B0000DC2B00009C2B0000BC2B0000A5
:10133000582B00008408F0007608F0008008F000C8
:101340008108F0000C4BC2691A60826943F8042CD2
:10135000426943F8082C026943F80C2CC26843F830
:10136000102C826843F8142C426843F8182C026849
:1013700043F81C2C704700BF5CB602500C4B1B6836
:10138000C3610C4B1B6883610B4B1B6843610B4BA8
:101390001B6803610A4B1B68C3600A4B1B688360B0
:1013A000094B1B684360094B1B680360704700BF13
:1013B0005CB6025058B6025054B6025050B60250B5
:1013C0004CB6025048B6025044B6025040B60250E5
:1013D00030B10268034B04489A4208BF00207047AE
:1013E00002487047DD55AABB0202F0000002F0007F
:1013F00038B5044668B1051D7021284601F043FB4D
:1014000028462022044901F03AFB044B23600020C7
:1014100038BD0348FCE700BF042C0000DD55AABB23
:101420000002F0002DE9F043284B04460E46154615
:101430000FCB85B06F4687E80F002DB94FF000093C
:10144000484605B0BDE8F0832046FFF7C1FF81465E
:101450000028F5D1231D0193636AA3BB236F8BB1D1
:10146000C3F14008A84528BFA84604F13000314622
:101470001844424601F003FB236F4344464423676C
:10148000A5EB0805226F402A06D104F13001384649
:1014900000F0AEFB0023236705F03F0835F03F0561
:1014A00005D031462A46384600F0A2FB2E44B8F15A
:1014B000000FC3D04246314604F1300001F0DFFA9C
:1014C000C4F87080BCE7DFF80890B9E7EC2A0000A8
:1014D0000C02F0002DE9FF41144B04460E460FCBE1
:1014E0006F4687E80F002046FFF772FF8046B0B9CD
:1014F000CEB1636A251D01953BB901236362226F5A
:1015000004F13001384600F073FB2B46043E2434CE
:1015100053F8042B12BAA34246F8042FF8D14046E0
:1015200004B0BDE8F081DFF80880F8E7EC2A00009D
:101530000502F000084B1B681B0EF02B08D1074B6F
:101540001A68074B9A4205D1064B00201860704775
:10155000052070470620704728B9025024BA02506F
:101560000000E0200CBA0250002230B549001346BA
:10157000023840F6FC7502F1A05404F52C44A40096
:10158000904202F10102CABF236025605B181E2A47
:10159000F1D1044A13600B445360034B034A1A60B1
:1015A00030BD00BF78B0025084B0025020F80F0068
:1015B00030B51E4B85B01A46196800910099CC07CA
:1015C000FAD500F1A05000F52C40800001681368A6
:1015D0000193019BD807FAD5154B164C1868164D88
:1015E0001F30202390FBF3F00138002810DA00238D
:1015F0000130400153B1A0F120014FF000421342ED
:1016000004D1013888424FEA5202F8D105B030BD0A
:1016100013680393039BDB07FAD5431823602B68F9
:101620000293029B002BE3D10138DEE7B4B00250F5
:10163000ACB00250E4B00250DCB00250F0B51D680E
:1016400085B001F01F040DB91F2C25D1154D2E4674
:101650002F680197019FFF07FAD500F1A05000F510
:101660002C408000006835680395039DED07FAD58E
:101670000D4D00EB611028600C48006802901F2C93
:1016800018BFC94302980FBF106001F01F0100FA94
:1016900001F111600021196010684300C00F136050
:1016A00005B0F0BDB4B00250E4B00250DCB002505E
:1016B0000C4B18603F3020F03F00890140305860EB
:1016C0009960D9601961596199611C3306481960A4
:1016D00082B002680192019AD207FAD5196002B06D
:1016E000704700BF90B00250B4B0025038B5A0F1BE
:1016F0002003B3F5426F05462CD88F2826D800F179
:10170000470300F16604DB064FEA541400D00134AD
:1017100064013F34A409013411B1A1421AD30C462B
:10172000E3004FF48050B0FBF3F0202828BF2020C6
:1017300002B11060084B01221A602146FFF714FF26
:1017400028462146FFF7B4FF002038BD00F11F04F2
:101750006409DDE70148F8E71CB802502221F000D7
:10176000F0B5454B89B01D461C680194019CE40707
:10177000FAD5424BDFF80CE1DFF80CC113449B00B3
:1017800000241A680B181E2B88BFC0F11E011F32DF
:101790000B1852095343B3F5806F82BF4FF4806139
:1017A000B1FBF2F1091A00F1A05000F52C402746D8
:1017B000A14233DC2B680493049BDB07FAD5304B42
:1017C0001B68296805910599CF07FAD52D4C2E493C
:1017D000236000231E46934203F1010040D120F014
:1017E00001022948194600268A423CD829680691F8
:1017F0000699CE07FAD52549096828680790079801
:10180000C007FAD52160204800210C468B422DD11B
:101810001D4900209A422CD809B0F0BD2B680293D4
:10182000029BDB07FAD503199B001B682E68039601
:10183000039EF607FAD5CEF800300023934203F159
:10184000010306D1164623F00103B34204D8013444
:10185000AEE7CCF80070F1E7CCF800700136F4E7A1
:101860000E600346B7E706600131BDE70460013151
:10187000CCE708600133CDE7B4B0025024AC0014CB
:101880007CB00250D4B00250D8B0025078B00250B0
:1018900008B540B1202801464FF0070228BF20219B
:1018A0000020FFF75DFF024B00221A6008BD00BF59
:1018B0001CB80250F0B5294D85B02C462E68009614
:1018C000009EF607FAD500F1A05000F52C408000EC
:1018D0000568206801900198C707FAD52048214F74
:1018E000056002EB8306B24229D15A1C1D4E22F03C
:1018F000010200279A4227D823680293029BDE0741
:10190000FAD5194B0B449B001B681F335B099A42A5
:1019100013D2216803910399C907FAD51544002110
:101920009B1A104A056008468B4210D85A1C0D4974
:1019300022F0010200209A420CD805B0F0BD52F806
:1019400004CBC7F800C0CEE737600133D2E71060A0
:101950000131E9E708600133EDE700BFB4B00250A0
:10196000D4B00250D8B0025024AC00142DE9F0419C
:10197000814B1D6898682033A0B01E461A680192FA
:10198000019AD707FAD57D4B7D4A1A6032680292D8
:10199000029AD407FAD57B4A1A607B4A144611682A
:1019A00003910399C907FAD5784A1168C1F3402118
:1019B00037680497049FFF07FAD5754F1F602768A3
:1019C0000597059FFF07FAD51768002900F0CF801B
:1019D000B90540F1CC80316806910699CF07FAD558
:1019E0006C491960216807910799C907FAD51168F0
:1019F000C1F3402137680897089FFF07FAD5664F63
:101A00001F6027680997099FFF07FAD51268002908
:101A100000F0AF80910540F1AC8032680A920A9ADA
:101A2000D207FAD5564A1A6032680B920B9AD7073A
:101A3000FAD55A4A1A6031680C910C99CC07FAD53C
:101A40005749196031680D910D99C907FAD5554963
:101A5000196031680E910E99CF07FAD55249196075
:101A600031680F910F99CC07FAD550491960504B46
:101A70001E46196810911099C907FAD53F4C4D4B75
:101A8000236033681193119BDB07FAD54A4B23601F
:101A900033681293129BDF07FAD5484B23603A4B09
:101AA0009846196813911399C907FAD5324F3860CF
:101AB00033681493149BDB07FAD5226033681593BF
:101AC000159BD807FAD53E4B236033681693169BB7
:101AD000D907FAD53B4B236033681793179BDA0776
:101AE000FAD5394B236033681893189BDB07FAD576
:101AF000364B236033681993199BD807FAD5344BBA
:101B0000236033681A931A9BD907FAD5314B2360A7
:101B100033681B931B9BDA07FAD52F4B236000F029
:101B20001DFC08BBD8F800301C931C9BDB07F9D5C3
:101B30003D6033681D931D9BD907FAD5274B236061
:101B400033681E931E9BDA07FAD5254B2360D8F81D
:101B500000301F931F9BDB07F9D50C4B1B6813F458
:101B6000805F204B08BF184620B0BDE8F0811E48BA
:101B7000FAE71E48F8E700BF90B0025080B002506C
:101B800000100251C01F7229B4B0025088B0025038
:101B9000C0CF0129C01F0E29C03F002940010249C2
:101BA000003184A800001649400108A1804408883B
:101BB000B0B00250C044708880077A41C0077E41AF
:101BC00000006A498006164940006E490002002163
:101BD00000822021408220218082242140A161A115
:101BE00000C861510308F1000108F1000208F1008A
:101BF0002DE9F74F314B44688046924699461A6862
:101C0000002AFCD12E4B9B461A68002AFCD14FF0CB
:101C1000FF30019100F094FC802000F097FC294DEA
:101C2000294A2A4F2A4E012307202B60A2F59E72D3
:101C3000C2F83C011360636A3B60A36A3360D8F862
:101C4000003042F8043CD8F8083020469847019903
:101C5000D9F80030002BFBD1BAF1000F20D11D4B79
:101C600004221A60D9F80030002BFBD1DBF800A069
:101C7000BAF1000FFAD1D8F80C30204698473B68EB
:101C800063623368A362144BC3F800A0C3F844A195
:101C9000D9F80030002BFBD12B6003B0BDE8F08FEA
:101CA000236A012B04BF0C4A13600C4B40201960BF
:101CB000C3F804A000F050FCD4E700BF10B90250F4
:101CC00020BC025018B8025000B90250CCB70250E4
:101CD000D0B70250C8B7025084B6025028BC025098
:101CE00010B5544B98B019461A680192019AD20760
:101CF000FAD5514B514A1A600A680292029AD407E7
:101D0000FAD54F4A1A600A680392039AD007FAD5A7
:101D10004C4818600A680492049AD207FAD54A4AD5
:101D20001A600A680592059AD407FAD5474A1A60DC
:101D30000A680692069AD207FAD5454A1A600A68D6
:101D40000792079AD407FAD5424A1A600A6808929D
:101D5000089AD207FAD5404A1A600A680992099A85
:101D6000D407FAD53D4A1A600A680A920A9AD2073D
:101D7000FAD53B4A1A600A680B920B9AD407FAD537
:101D8000384A1A600A680C920C9AD207FAD5364A79
:101D90001A600A680D920D9AD407FAD5334A1A6070
:101DA0000A680E920E9AD207FAD5314A1A600A686A
:101DB0000F920F9AD407FAD52E4A1A600A68109229
:101DC000109AD207FAD52C4A1A601A4B19461C6889
:101DD0001194119CE407FAD5174B1860086812900B
:101DE0001298C407FAD51A600A681392139AD0079A
:101DF000FAD5124A1A600A681492149AD207FAD5D0
:101E00001E4A1A600A681592159AD407FAD51C4A18
:101E10001A600A681692169AD007FAD5194A1A60FB
:101E20000A681792179AD207FAD5174A1A6018B09B
:101E300010BD00BFB0B0025080B0025000936521C9
:101E400000043190409665900083612100C33021E9
:101E500000C364900081619000461021008111212F
:101E60000041442100C320290C4610C800863121BE
:101E700000C3602140C1282940966521001331909C
:101E800040962529594614C84004324910B5494B9B
:101E900094B019461A680092009AD207FAD5464BB8
:101EA000464A1A600A680192019AD407FAD5444A50
:101EB0001A600A680292029AD007FAD5414818605F
:101EC0000A680392039AD207FAD53F4A1A600A6851
:101ED0000492049AD407FAD53C4A1A600A6805921B
:101EE000059AD207FAD53A4A1A600A680692069A03
:101EF000D407FAD5374A1A600A680792079AD207B8
:101F0000FAD5354A1A600A680892089AD407FAD5B1
:101F1000324A1A600A680992099AD207FAD5304AF9
:101F20001A600A680A920A9AD407FAD52D4A1A60EA
:101F30000A680B920B9AD207FAD52B4A1A600A68E4
:101F40000C920C9AD407FAD5284A1A600A680D92A6
:101F50000D9AD207FAD5264A1A600A680E920E9A8E
:101F6000D407FAD5234A1A600A680F920F9AD2074B
:101F7000FAD5214A1A600F4B19461C681094109C20
:101F8000E407FAD50C4B1860086811901198C40743
:101F9000FAD51A600A681292129AD007FAD5174A2F
:101FA0001A600A681392139AD207FAD5144A1A6073
:101FB00014B010BDB0B0025080B0025080906521C6
:101FC000000409904096659080806121802008215E
:101FD00080206490008161900046102100811121D1
:101FE0000041442180202029024610C80086092192
:101FF000802060214021282940966521409625298E
:10200000594614C810B5504B96B01C461A68019238
:10201000019AD207FAD54D4B4D4A1A6022680292B6
:10202000029AD207FAD54B4A1A604B4A42EA8040DC
:1020300022680392039AD207FAD5186022680492A4
:10204000049AD007FAD5454A1A60A2F5800242EAFE
:10205000814122680592059AD207FAD51960226853
:102060000692069AD007FAD53D4A1A60226807926E
:10207000079AD107FAD53B4A1A6022680892089A53
:10208000D207FAD5384A1A6022680992099AD0070D
:10209000FAD5364A1A6022680A920A9AD107FAD506
:1020A000334A1A6022680B920B9AD207FAD5314A4A
:1020B0001A6022680C920C9AD007FAD52E4A1A6040
:1020C00022680D920D9AD107FAD52C4A1A6022681F
:1020D0000E920E9AD207FAD5294A1A6022680F92F8
:1020E0000F9AD007FAD5274A1A60216810911099E3
:1020F000C907FAD51A60144B1A461968119111993B
:10210000C807FAD5114B204919601168129112992C
:10211000C907FAD51D491960116813911399CC07A5
:10212000FAD50B491960116814911499C807FAD5AA
:1021300017491960116815911599C907FAD5154AFB
:102140001A6016B010BD00BFB0B0025080B002508F
:102150004004419000862929D81001C840144190BC
:1021600040142129401465210034409000310C9026
:10217000C0400C90C030202940960D9000416090E6
:10218000031645C80086112100416021594644C804
:102190004014459040142D9070B5264888B00546EF
:1021A00004680094009CE607FAD52348234C046099
:1021B000234C44EA83432C680194019CE407FAD53C
:1021C0000360930143EA824242F0104444F4C04465
:1021D0002B680293029BDE07FAD504602B680393F9
:1021E000039BDB07FAD5174B03608B0143EA814160
:1021F00041F0104343F4C0432E680496049EF60752
:10220000FAD503602B680593059BDE07FAD50460B9
:1022100041F058412B680693069BDC07FAD5016014
:1022200042F058422B680793079BDB07FAD5026000
:1022300008B070BDB0B0025080B00250C021022979
:102240008071009880611890354B8EB019461A68DD
:102250000092009AD207FAD5324B334A1A600A68C4
:102260000192019AD007FAD5304A1A600A680292A0
:10227000029AD207FAD52E4A1A600A680392039A84
:10228000D007FAD52B4A1A600A680492049AD2073A
:10229000FAD5294A1A600A680592059AD007FAD534
:1022A000264A1A600A680692069AD207FAD5244A84
:1022B0001A600A680792079AD007FAD5214A1A606D
:1022C0000A680892089AD207FAD51F4A1A600A6863
:1022D0000992099AD007FAD51C4A1A600A680A922C
:1022E0000A9AD207FAD51A4A1A6008680B900B9816
:1022F000C007FAD51A600A680C920C9AD007FAD572
:10230000144A1A600A680D920D9AD207FAD5124A39
:102310001A600E210D230F2200200EB0FFF73CBFE4
:10232000B0B0025080B0025080430129406339218F
:10233000807001298020542100D13490C040349015
:10234000C0302029C0530D9000413890832308C825
:1023500080E3102100413821CF4308C82DE9F04126
:10236000012392B0CDE90333624B1D461A680592F2
:10237000059AD207FAD5604C604B2360604B194632
:102380001A680692069AD707FAD55E4B1A68D604E1
:1023900000F1A8802A680792079AD007FAD55A4A0E
:1023A00022600A680892089AD207FAD51E68C6F316
:1023B0000036002E40F098801220FFF7F9F807460B
:1023C0001320FFF7F5F887428CBF12201320FFF788
:1023D000EFF8471EFFF738FF03AB01AA394612207A
:1023E000FFF72CF904AB804602AA39461320FFF709
:1023F00025F900EB4800022832D003283ED00128FE
:1024000074D12B680993099BDB07FAD53F4B2360F6
:102410002B680A930A9BD807FAD53D4B23602B689B
:102420000F930F9BD907FAD53A4B23602B68109373
:10243000109BDA07FAD5384B23602B681193119B58
:10244000DB07FAD5354B2360013F25D51023192230
:1024500018210020FFF7A0FE304612B0BDE8F08141
:102460002B680B930B9BD907FAD52D4B23602B6858
:102470000C930C9BDA07FAD52A4BCFE72B680D9308
:102480000D9BDB07FAD5284B23602B680E930E9B20
:10249000D807FAD5254BC1E703AB01AA394612206C
:1024A000FFF7CCF804AB044602AA39461320FFF725
:1024B000C5F810EB440402D1FFF712FCC4E7FFF7A4
:1024C000E5FC022C08D0032C09D0012C10D11721D7
:1024D0001620FFF797FDB7E715211420F9E70F2124
:1024E0000E20F6E7124EB7E7124EB5E7124EB3E7ED
:1024F000124EB1E7B0B0025080B0025000084A510D
:10250000B4B0025088B0025000084E5100065A493B
:1025100040065E49000442410014424940042E49ED
:10252000000652494006564900063A4940063E49CF
:102530000608F1000708F1000408F1000508F100A1
:10254000014B1860704700BF08BA0250014B186079
:10255000704700BF04BA0250034A13681842FCD007
:10256000024A10601846704700BA025008BA02507A
:1025700010B50A4C23681BB101232360002010BD55
:1025800000F048F80028F7D00138062803D8044B9B
:1025900053F8200010BD034810BD00BFB400002058
:1025A000242C0000FE8FFFFFBFF34F8F0549064B21
:1025B000CA6802F4E0621343CB60BFF34F8F00BFE1
:1025C000FDE700BF00ED00E00400FA0510B40A4B7F
:1025D0000A490B4C4FF0FE32C3F800244968C3F897
:1025E0000424C3F80824C3F80C240023C4F80035DD
:1025F0005DF8044B084700BF00B002500000002007
:1026000000A00250D0E90012014BC3E9001270474C
:102610000000002038B500F02FF820B1032400F0AE
:1026200063F8204638BD00F031F898B900F0ACF8F6
:1026300098B90F4DD5F828391B0EF02B08D1D5F8D5
:10264000242A0C4B9A420AD0072400F017F8E6E738
:102650000624FAE70424204638BD0024F5E70120CB
:1026600000F092F804460028F7D1C5F80C0AD8E724
:1026700000B002500000E0200020704700207047AA
:10268000014BC3F8040A704700B0025010B511485E
:1026900000F048F800B110BD0F4800F043F80028E2
:1026A000F9D10E4C204600F03DF80028F3D10C4B38
:1026B0000C481C6000F036F801460028EBD100F011
:1026C0002DF8044608B1204610BD00F03FF8204622
:1026D000FAE700BF180000201400002010000020BE
:1026E000080000200C00002008B5084800F024F87D
:1026F000074800F021F8074800F01EF8064800F0EF
:102700001BF8BDE8084000F00BB800BF180000201F
:1027100014000020100000200C0000200020704752
:10272000704700BF08B5034B02681B6810689847E4
:10273000002008BD3000002008B5034B02685B682C
:1027400010689847002008BD3000002070B5094C83
:10275000094D2069AB68984718B1084B08485B6879
:102760009847084AEB68206900211160BDE8704075
:10277000184700BF1C00002030000020000000208F
:10278000402C0000B8000020F8B51A4D1A4E04463F
:10279000B26828699047E8B9184F3B684CB1A3B1BB
:1027A000012B19D0013B3B602869F3689847002052
:1027B000F8BD43B9124A0121C2F800151149D1F8F8
:1027C0001029002AFBD101333B60F3682869984740
:1027D0000020F8BD0C48F8BD0A4AD2F81039002B89
:1027E000FBD1074A6FF07E40C2F80035FFF748FF83
:1027F0003B68D7E71C00002030000020B800002014
:1028000000A0025000B00250E98FFFFF10B504464F
:1028100050B1636813F0685F05D0064A934202D056
:1028200000232360626010BD034B04485B68984737
:10283000EFE700BF2C5F5CA900000020602C0000C7
:10284000C8B143680D4A934213D013F0685F0ED0AD
:10285000012350E8002F194640E8001C9CF0000FAF
:10286000F7D1012AF5D0BFF35F8F002070470448ED
:102870007047044870476FF4E04070472C5F5CA9D4
:10288000E98FFFFFEA8FFFFF80B14368094A934257
:102890000AD013F0685F05D0BFF35F8F0023036099
:1028A0001846704704487047044870476FF4E0408A
:1028B000704700BF2C5F5CA9E98FFFFFEA8FFFFF25
:1028C00010B5044620B1044B63600022226010BDA5
:1028D0000248FFF77BFEF6E73A00003A882C00003A
:1028E000FEE7012801D1EFF30583EFF311832023E5
:1028F00083F31288BFF36F8FEFF3118283F3128893
:10290000BFF36F8FFEE708B500210120FFF7E9FF55
:1029100020F0030382071B680CBF98B2180C7047A5
:1029200070B54FF4A04314221B6B45F2340102FB37
:1029300003110846FFF7ECFF012802D000242046CF
:1029400070BD0C1D002602310846FFF7E1FF8642EC
:10295000F4D2A01CFFF7DCFF05462046FFF7D8FFA6
:102960000128ECD0023504EB45040136ECE72DE9F3
:10297000F04106460D46FFF7D3FF0446F0B10230A2
:10298000FFF7C6FF0021804604340F468BB29845FE
:1029900006D8002405B12C6037800020BDE8F08106
:1029A0002046FFF7B5FFC3439BB20131A21C002BA9
:1029B000F0D09F4238BF1F461446E7E76FF015007E
:1029C000ECE713B500240194049C0094FEF70EF983
:1029D00002B010BDFFF7CCBD704708B501460068D6
:1029E000FFF77FFFFEF77ABB61B662B680F311880E
:1029F000BFF36F8F7047EFF31180202383F31288AA
:102A0000BFF36F8F7047704710B55AB10139841802
:102A100010F8012B11F8013FA04201D09A42F7D0E3
:102A2000D01A10BD1046FCE710B5431E0A4491426F
:102A300000D110BD11F8014B03F8014FF7E7C9B2FF
:102A400002440346934200D1704703F8011BF9E7A3
:102A50002DE9F041069F044615461E46FEF798FBF9
:102A600038B93B46324629462046BDE8F041FEF7DC
:102A7000B5BBBDE8F0810A460021FEF737BEFFF77F
:102A8000D3BFFFF7DCBF0A460021FFF7D8BF01EB39
:102A9000820204388A4201D10020704752F8043D76
:102AA0001BBA40F8043FF5E799020000000000005F
:102AB000D5290000000000009D0C0000000000006F
:102AC000B105000000000000DEE61E284CBBCE8FE2
:102AD00002340000DEE61E28EAAC45B802340000ED
:102AE000DEE61E28838451860234010002000000C5
:102AF00000000000451300007D130000A82A00001C
:102B0000A82A0000B82A0000B82A0000C82A00003D
:102B1000C82A000000000000E128000000000000BA
:102B20000002000000040000000600000008000091
:102B3000000E000000100000FFFFFFFFFFFFFFFF7F
:102B4000FFFFFFFF00000000000000000000000089
:102B500001000000FFFFFFFFFCFFFFFFFFFFFFFF83
:102B6000FFFFFFFF00000000000000000000000069
:102B700001000000FFFFFFFF512563FCC2CAB9F34B
:102B8000849E17A7ADFAE6BCFFFFFFFFFFFFFFFF24
:102B900000000000FFFFFFFF0000000096C298D871
:102BA0004539A1F4A033EB2D817D0377F240A46376
:102BB000E5E6BCF847422CE1F2D1176BF551BF377F
:102BC0006840B6CBCE5E316B5733CE2B169E0F7C52
:102BD0004AEBE78E9B7F1AFEE242E34FFFFFFFFFC7
:102BE0007F000000800000000000000000000000E6
:102BF000FFFFFFFF7F0000008000000000000000DA
:102C00000000000067E6096A85AE67BB72F36E3CA0
:102C10003AF54FA57F520E518C68059BABD9831FA7
:102C200019CDE05BFF8FFFFFFF8FFFFFFE8FFFFFE0
:102C3000FE8FFFFFFD8FFFFFFC8FFFFFFC8FFFFF6D
:102C4000436F756C64206E6F74206C6F636B2070C3
:102C50006F7765722073617665206D757465780095
:102C60006D757465785F667265652063616C6C650F
:102C7000642077697468204E554C4C2070617261F5
:102C80006D6574657200000043616E277420696E83
:102C9000697469616C697A65206D757465782C203A
:102CA000776173204E554C4C0D0A00000000000067
:102CB0000101000000000000000000000000000012
:102CC00000000000072900000000000007290000A4
:102CD0000000000007290000000000000729000094
:102CE0000000000007290000000000000729000084
:102CF0000000000007290000000000000729000074
:102D00000000000007290000000000000729000063
:102D10000000000007290000000000000729000053
:102D20000000000007290000000000000729000043
:102D30000000000007290000000000000729000033
:102D40000000000007290000000000000729000023
:102D50000000000007290000000000000729000013
:102D60000000000007290000000000000729000003
:102D700000000000072900000000000007290000F3
:102D800000000000072900000000000007290000E3
:102D900000000000072900000000000007290000D3
:102DA00000000000072900000000000007290000C3
:102DB00000000000072900000000000007290000B3
:102DC00000000000072900000000000007290000A3
:102DD0000000000007290000000000000729000093
:102DE0000000000007290000000000000729000083
:102DF0000000000007290000000000000729000073
:102E00000000000007290000000000000729000062
:102E10000000000007290000000000000729000052
:102E20000000000007290000000000000729000042
:102E30000000000007290000000000000729000032
:102E400000000000A9250000100000202C00002038
:102E500024000020200000201C000020580000203A
:102E6000500000204800002000000000400000202A
:102E7000C12800000D28000041280000892800001A
:102E8000BC0000203A00003AC00000203A00003A9E
:102E9000C40000203A00003AC80000203A00003A7E
:042EA00015E015E044
:10502800006000000020080001000000FFFFFA50A7
:105038003F1C0AF7971363EEB16EAF5431EF3CCAC9
:10504800010001000100F000FFFFFFFFFFFFFFFF6D
:10505800FFFFFFFFFFFFFFFFFFFFFFFFFFFFFFFF58
:10506800FFFFFFFFFFFFFFFFFFFFFFFFFFFFFFFF48
:10507800FFFFFFFFFFFFFFFFFFFFFFFFFFFFFFFF38
:10508800FFFFFFFFFFFFFFFFFFFFFFFFFFFFFFFF28
:10509800FFFFFFFFFFFFFFFFFFFFFFFFFFFFFFFF18
:1050A800FFFFFFFFFFFFFFFFFFFFFFFFFFFFFFFF08
:1050B800FFFFFFFFFFFFFFFFFFFFFFFFFFFFFFFFF8
:1050C800FFFFFFFFFFFFFFFFFFFFFFFFFFFFFFFFE8
:1050D800FFFFFFFFFFFFFFFFFFFFFFFFFFFFFFFFD8
:1050E800FFFFFFFFFFFFFFFFFFFFFFFFFFFFFFFFC8
:1050F800FFFFFFFFFFFFFFFFFFFFFFFFFFFFFFFFB8
:10510800FFFFFFFFFFFFFFFFFFFFFFFFFFFFFFFFA7
:10511800FFFFFFFFFFFFFFFFFFFFFFFFFFFFFFFF97
:10512800FFFFFFFFFFFFFFFFFFFFFFFFFFFFFFFF87
:10513800FFFFFFFFFFFFFFFFFFFFFFFFFFFFFFFF77
:10514800FFFFFFFFFFFFFFFFFFFFFFFFFFFFFFFF67
:10515800FFFFFFFFFFFFFFFFFFFFFFFFFFFFFFFF57
:10516800FFFFFFFFFFFFFFFFFFFFFFFFFFFFFFFF47
:10517800FFFFFFFFFFFFFFFFFFFFFFFFFFFFFFFF37
:10518800FFFFFFFFFFFFFFFFFFFFFFFFFFFFFFFF27
:10519800FFFFFFFFFFFFFFFFFFFFFFFFFFFFFFFF17
:1051A800FFFFFFFFFFFFFFFFFFFFFFFFFFFFFFFF07
:1051B800FFFFFFFFFFFFFFFFFFFFFFFFFFFFFFFFF7
:1051C800FFFFFFFFFFFFFFFFFFFFFFFFFFFFFFFFE7
:1051D800FFFFFFFFFFFFFFFFFFFFFFFFFFFFFFFFD7
:1051E800FFFFFFFFFFFFFFFFFFFFFFFFFFFFFFFFC7
:1051F800FFFFFFFFFFFFFFFFFFFFFFFFFFFFFFFFB7
:10520800FFFFFFFFFFFFFFFFFFFFFFFFFFFFFFFFA6
:10521800FFFFFFFFFFFFFFFFFFFFFFFFFFFFFFFF96
:08522800FFFFFFFFFFFFFFFF86
:10600000889E0020451B050039A90200311B0500B0
:10601000311B0500311B0500311B0500000000008D
:10602000000000000000000000000000F91B050057
:10603000311B050000000000991B0500311B050005
:10604000C1990200D9360400C1990200C199020029
:10605000C1990200C1990200C1990200C1990200D0
:10606000A9360400C1990200C1990200C13604009A
:10607000C1990200C1990200C1990200C1990200B0
:10608000C1990200C1990200C1990200C1990200A0
:10609000C1990200C1990200C1990200C199020090
:1060A000C1990200C1990200C1990200C199020080
:1060B000C1990200C1990200C1990200C199020070
:1060C000C1990200C1990200C1990200C199020060
:1060D000C1990200C1990200C1990200C199020050
:1060E000C1990200C1990200C1990200C199020040
:1060F000C1990200C1990200C1990200C199020030
:10610000000000000000000000000000000000008F
:10611000000000000000000000000000000000007F
:10612000000000000000000000000000000000006F
:10613000000000000000000000000000000000005F
:10614000000000000000000000000000000000004F
:10615000000000000000000000000000000000003F
:10616000000000000000000000000000000000002F
:10617000000000000000000000000000000000001F
:10618000000000000000000000000000000000000F
:1061900000000000000000000000000000000000FF
:1061A00000000000000000000000000000000000EF
:1061B00000000000000000000000000000000000DF
:1061C00000000000000000000000000000000000CF
:1061D00000000000000000000000000000000000BF
:1061E00000000000000000000000000000000000AF
:1061F000000000000000000000000000000000009F
:10620000DEE61E284CBBCE8F023400003C000000AE
:1062100000FE0500010000000060000000600000BA
:10622000FFFF0291000000000000000000000000DD
:0C62300000000000000000000000000062
:1062400080EA101404F0F01480EA0410604081EA3F
:10625000111404F0F01481EA0411614082EA12146E
:1062600004F0F01482EA0412624083EA131404F08A
:10627000F01483EA0413634080EA102404F47F449A
:1062800080EA0420604081EA112404F47F4481EA1A
:106290000421614082EA122404F47F4482EA042249
:1062A000624083EA132404F47F4483EA04236340B6
:1062B00081EA500404F0553480EA4400614083EAE6
:1062C000520404F0553482EA4402634082EA9004A6
:1062D00004F0333480EA8400624083EA910404F0DD
:1062E000333481EA84016340704700BF82EA90043E
:1062F00004F0333480EA8400624083EA910404F0BD
:10630000333481EA8401634081EA500404F0553457
:1063100080EA4400614083EA520404F0553482EA82
:106320004402634080EA102404F47F4480EA04209D
:10633000604081EA112404F47F4481EA0421614031
:1063400082EA122404F47F4482EA0422624083EA4F
:10635000132404F47F4483EA0423634080EA101486
:1063600004F0F01480EA0410604081EA111404F093
:10637000F01481EA0411614082EA121404F0F0146E
:1063800082EA0412624083EA131404F0F01483EAF0
:1063900004136340704700BF2DE9F14F94464FEA64
:1063A000930B8A68CB6808684968FFF749FF0BF1CF
:1063B000060E33E083EA134480EA134582EA13476A
:1063C00046BA96EA3444604000F00F1684EA063478
:1063D00020F00F1684EA161054BA94EA01067240AF
:1063E00002F00F1486EA043622F00F1486EA141223
:1063F0004CBA6540694001F00F1485EA043521F07C
:106400000F1485EA14115CBA67407B4003F00F1447
:1064100087EA043723F00F1487EA1413BCE8F0006E
:106420006040694072407B4000F0E03400F010357D
:1064300000F00F3040EA540040EAC50080EA9004C2
:1064400004F0332480EA8400604001F0E03401F07D
:10645000103501F00F3141EA540141EAC50181EAEA
:10646000910404F0332481EA8401614002F0E034B5
:1064700002F0103502F00F3242EA540242EAC5023D
:1064800082EA920404F0332482EA8402624003F038
:10649000E03403F0103503F00F3343EA540343EACA
:1064A000C50383EA930404F0332483EA840363403E
:1064B00081EA324787EA134581EA354690EA0604C5
:1064C00084EA034B82EA1B4280EA044484EA0544DE
:1064D00083EA144A85EA14448BEA044B84EA37447D
:1064E00081EA0B4181EA164104EA0A00454082EA4A
:1064F00004082BEA080041408AEA0B0602EA06007B
:1065000084EA34438AEA3A4603EA0607784045407B
:10651000414088EA38478BEA3B4007EA000985EAB0
:10652000090583EA0709464006EA0906714085EA3B
:10653000010005EA3546464006EA314181EA30412C
:1065400081EA364606EA304686EA3546344008EAAD
:10655000010886EA01052A4086EA364003405A408F
:1065600081EA31431F407C4080EA030709EA0709BA
:1065700088EA0908544088EA020806EA0A0601EA9D
:106580000B018AEA0B0215408AEA3A421040454064
:106590008BEA3B4003405E404240174079404D400B
:1065A0004E40E443F64386EA18435D4085EA0540E1
:1065B00083EA134386EA034183EA384284EA1143BB
:1065C00083EA04435FEA3343BEF1010E3FF6F2AEC5
:1065D0001ED4BCE8F0006040694072407B4020BCA3
:1065E000FFF784FE28606960AA60EB60BDE8F08F69
:1065F0002DE9E0414FF2F00280EA1031114080EACB
:106600000130484041088208C3084FF0000E4FE7B0
:1066100000F0113001F0113102F0113203F01133AA
:1066200040EA410040EA820040EAC3004FF2F00233
:1066300080EA1031114080EA01304840BDE8E08135
:106640002DE9F04F02F11C050646074600EB8508D0
:1066500051F8040B043A46F8040BF9D14FF0010C41
:10666000FFF7C6FF5FEA302080EA0C001ECF4140F2
:106670004A4053405C401EC62000464517D04FEAB2
:106680004C0C1CF4807F18BFACF1E50C2C2DE7D02E
:106690003C2D06D1FFF7ACFF06CF41404A4006C66D
:1066A000100006CF41404A4006C61000D8E736E940
:1066B0000F00FFF7C5FD043D86E80F00F7D1BDE8E8
:1066C000F08F00BF2DE9F14F03F11C0402EB840CA5
:1066D0004FEA930B8A68CB6808684968FFF7B0FDFA
:1066E0003CE9F0006040694072407B400BF1060ECF
:1066F0004EE083EA134480EA134582EA134746BA20
:1067000096EA3444604000F00F1684EA063420F024
:106710000F1684EA161054BA94EA0106724002F089
:106720000F1486EA043622F00F1486EA14124CBACB
:106730006540694001F00F1485EA043521F00F141B
:1067400085EA14115CBA67407B4003F00F1487EAB6
:10675000043723F00F1487EA141344BA44404DBAA7
:106760004D4056BA56405FBA5F4087EA174886EAFE
:10677000174B84EA17464FEA38488BEA1B4485EAF0
:106780001B4788EA1B4580EA3440694072407B40E1
:1067900000F0703400F0803500F00F3040EA440023
:1067A00040EAD50080EA900404F0332480EA8400B3
:1067B000604001F0703401F0803501F00F3141EAA2
:1067C000440141EAD50181EA910404F0332481EACD
:1067D0008401614002F0703402F0803502F00F3223
:1067E00042EA440242EAD50282EA920404F03324E7
:1067F00082EA8402624003F0703403F0803503F0D3
:106800000F3343EA440343EAD50383EA930404F0D5
:10681000332483EA84036340C943DB4381EA0004F1
:1068200083EA044686EA020183EA014382EA3345A9
:1068300083EA14435C4084EA00077FEA040A8AEA98
:10684000024A8AEA010B87EA11488AEA374A80EA53
:10685000060181EA1A418AEA030A04EA0A0045406D
:1068600088EA040707EA0B0041408AEA0B0608EAB7
:10687000060084EA34428AEA3A4602EA06035840AD
:106880004540414087EA37438BEA3B4003EA000931
:1068900085EA090582EA0309464006EA09067140CD
:1068A00085EA010005EA3546464006EA314181EABB
:1068B000304181EA364606EA304686EA35463440BB
:1068C0000F4086EA010508EA050886EA36400240DC
:1068D00088EA020881EA314213405C4080EA020300
:1068E00009EA030987EA0907674088EA040806EA13
:1068F0000A0601EA0B018AEA0B0425408AEA3A44B7
:10690000204045408BEA3B4B02EA0B02564084EAAA
:106910000B04234059406E40694087EA364080EAC4
:10692000384080EA060380EA104481EA134585EA8C
:10693000344585EA17427D4082EA354180EA0540C8
:106940003CE9F0006040694072407B40BEF1010EBE
:106950003FF6CFAE20BCFFF7C9FC28606960AA6093
:10696000EB60BDE8F08F00BFFFF76ABE2DE9F007CE
:1069700091E8F807B2E802105B1854EB0C04B2E897
:1069800002104D4156EB0C06B2E802104F4158EB95
:106990000C08B2E8021059EB01095AEB0C0A80E826
:1069A000F80780410130BDE8F00770472DE9F00796
:1069B00091E8F807B2E802105B1A74EB0C04B2E835
:1069C00002108D4176EB0C06B2E802108F4178EB95
:1069D0000C08B2E8021079EB01097AEB0C0A80E8A6
:1069E000F80780414042BDE8F00770472DE9F00705
:1069F000524290E87800B1E880071740DB1918EAA6
:106A0000020854EB080419EA020955EB09051AEAD1
:106A1000020A56EB0A0678C090E87800B1E88007D1
:106A200017407B4118EA020854EB080419EA0209EE
:106A300055EB09051AEA020A56EB0A0678C08041AE
:106A40000130BDE8F00770472DE9F007524290E8A9
:106A50007800B1E880071740DB1B18EA020874EBE6
:106A6000080419EA020975EB09051AEA020A76EB2D
:106A70000A0678C090E87800B1E880071740BB416B
:106A800018EA020874EB080419EA020975EB090513
:106A90001AEA020A76EB0A0678C080414042BDE855
:106AA000F00770472DE9F00152424FF0040890E8DA
:106AB000300091E8C000A31B1340E41AF618EB1B4A
:106AC0001340ED1AFF1830C0C0C1B8F10108EED173
:106AD000BDE8F001704700BF00B592E8DC072DE982
:106AE000DC07B1E8805702B4A7FB02510A95A8FB66
:106AF000020BE7FB6310E9FB62B00B91A8FB0351AB
:106B0000EAFB6201E7FB64B5E7FB6605E8FB661597
:106B1000CDF830B0A9FB03B6EAFB6316ECFB635675
:106B2000E8FB640BE9FB641BEAFB645BECFB646B56
:106B30000D90ACFB0230059CEEFB6250E9FB6460FB
:106B4000EAFB64B0E7FB6431E8FB6451069CE8FBB8
:106B50006461E9FB64B1EAFB64010E93A7FB0432B4
:106B6000079CE7FB6462E8FB64B2E9FB6402EAFBB2
:106B70006412049CE9FB6453EAFB6463089CE7FB32
:106B800064B3E8FB6403E9FB6413EAFB64230F9539
:106B90005DF8049B99E80006DDF80080A9FB085425
:106BA000EAFB68B4DDF81080ECFB6804EEFB6814C7
:106BB000E9FB6824EAFB6834DDF80480EEFB6865D5
:106BC000E9FB68B5EAFB6805DDF81480ECFB6815A5
:106BD000EEFB6825E9FB6835EAFB68450F96DDF8B2
:106BE0000880AEFB0876E9FB6806EAFB6816DDF86C
:106BF0001880ECFB6826EEFB6836E9FB6846EAFB8A
:106C00006856DDF80C80ECFB68B7EEFB6807E9FB23
:106C10006817EAFB6827DDF81C80ECFB6837EEFBA1
:106C20006847E9FB6857EAFB686708B000BD00BF2A
:106C30002DE9F14F87B0FFF74FFFDDF81C8008F119
:106C4000200888E8FF00FFBC87E87F08BDE8F08FD8
:106C500000B591E89857A3FB03520195A3FB0401EB
:106C6000E3FB6420E3FB67100292A3FB0752E3FB04
:106C70006802E4FB6415E3FB6805E3FB6925039107
:106C8000A4FB07B6E3FB6926E3FB6A56E4FB670B4C
:106C9000E4FB682BE3FB6A5BE3FB6C6B0490A4FBF7
:106CA0000810E4FB6950E3FB6C60E3FB6EB0E7FBAC
:106CB0006721E4FB6951E4FB6A61E3FB6EB1E4FB2D
:106CC0006E010592A7FB0832E4FB6A62E4FB6CB23A
:106CD000E4FB6E02E7FB6E12E7FB6853E7FB6963B8
:106CE000E4FB6CB3E7FB6C03E7FB6E13E8FB6E237E
:106CF0000695A7FB0954E7FB6AB4E7FB6C04E8FBC5
:106D00006C14E8FB6E24E9FB6E34E8FB6865E7FB76
:106D10006AB5E8FB6A05E8FB6C15E9FB6C25E9FB45
:106D20006E35EAFB6E450796A8FB0976E8FB6A0616
:106D3000E9FB6A16E9FB6C26EAFB6C36EAFB6E4659
:106D4000ECFB6E56E8FB69B7E9FB6907E9FB6A17DC
:106D5000EAFB6A27EAFB6C37ECFB6C47ECFB6E57EF
:106D6000EEFB6E6700BD00BF2DE9F14F87B0FFF766
:106D70006FFFDDF81C8008F1200888E8FF00FFBCE9
:106D800087E87F08BDE8F08F30B44FF0000310F8BB
:106D9000014B11F8015B013A84EA050443EA04035C
:106DA000F5D1A3F101034FEAD37030BC704700BFA7
:106DB0004FF0000310F8012B013943EA0203F9D127
:106DC000A3F101034FEAD370704700BF30B411F84C
:106DD000014B12F8015B6C4000F8014B013BF6D10E
:106DE00030BC70472DE9F04F90E8F00F00F1400003
:106DF0004FF0040E59E0F0B4826BC36B04680525B4
:106E0000242687593C444FEA724787EAF24787EACB
:106E100092273C4442684FEAF21787EAB24787EA72
:106E2000D2073C4440F8044B032D08BF6FF01B060B
:106E300087593A444FEA734787EAF34787EA93272B
:106E40003A4443684FEAF31787EAB34787EAD30720
:106E50003A4440F8042B87593B444FEA744787EA89
:106E6000F44787EA94273B4444684FEAF41787EADB
:106E7000B44787EAD4073B4440F8043B013DC0D106
:106E8000A0F13C00076A3C444FEA724787EAF247A8
:106E900087EA92273C4402684FEAF21787EAB24732
:106EA00087EAD2073C44C463F0BC4FF0020288EA90
:106EB000781C8CEAF84C0BEBBC1C8AEA090303EA49
:106EC000080383EA0A039C4450F8043B9C4451F8AD
:106ED000043B9C44674444EA050B0BEA060B04EAB6
:106EE00005034BEA030BE34484EAF42383EA3453B7
:106EF0000BEBB30B87EA771C8CEAF74C0AEBBC1C54
:106F000089EA080303EA070383EA09039C4450F86B
:106F1000043B9C4451F8043B9C4466444BEA040AFD
:106F20000AEA050A0BEA04034AEA030AE2448BEA86
:106F3000FB2383EA3B530AEBB30A86EA761C8CEA0E
:106F4000F64C09EBBC1C88EA070303EA060383EA54
:106F500008039C4450F8043B9C4451F8043B9C4477
:106F600065444AEA0B0909EA04090AEA0B0349EAFB
:106F70000309E1448AEAFA2383EA3A5309EBB309A5
:106F800085EA751C8CEAF54C08EBBC1C87EA060305
:106F900003EA050383EA07039C4450F8043B9C443E
:106FA00051F8043B9C44644449EA0A0808EA0B0887
:106FB00009EA0A0348EA0308E04489EAF92383EA74
:106FC000395308EBB30884EA741C8CEAF44C07EBE1
:106FD000BC1C86EA050303EA040383EA06039C4417
:106FE00050F8043B9C4451F8043B9C44E34448EA79
:106FF000090707EA0A0708EA090347EA030767449B
:1070000088EAF82383EA385307EBB3078BEA7B1C43
:107010008CEAFB4C06EBBC1C85EA040303EA0B0379
:1070200083EA05039C4450F8043B9C4451F8043B1C
:107030009C44E24447EA080606EA090607EA080310
:1070400046EA0306664487EAF72383EA375306EBEA
:10705000B3068AEA7A1C8CEAFA4C05EBBC1C84EA7B
:107060000B0303EA0A0383EA04039C4450F8043B3D
:107070009C4451F8043B9C44E14446EA070505EA78
:10708000080506EA070345EA0305654486EAF62390
:1070900083EA365305EBB30589EA791C8CEAF94C8F
:1070A00004EBBC1C8BEA0A0303EA090383EA0B0323
:1070B0009C4450F8043B9C4451F8043B9C44E044FD
:1070C00045EA060404EA070405EA060344EA030461
:1070D000644485EAF52383EA355304EBB304013AAB
:1070E0007FF4E5AEA0F14000BEF1010E7FF483AE67
:1070F000A0F1400C9CE80F00001949199219DB1906
:10710000ACE80F009CE80F004044494452445B4403
:10711000ACE80F00BDE8F08F2DE9F00791E8F80723
:10712000B2E802105B1854EB0C04B2E802104D41B7
:1071300056EB0C06B2E802104F4158EB0C08B2E8CF
:10714000021059EB01095AEB0C0A8941B3F1FF33E4
:1071500074F1FF3475F1FF3576F1000677F1000721
:1071600078F1000879F101097AF1FF3A51F1000153
:107170005B184C414D4156F1000657F1000758F19C
:10718000000859EBD1795AEB010A80E8F807BDE80D
:10719000F00770472DE9F00791E8F807B2E8021010
:1071A0005B1A74EB0C04B2E802108D4176EB0C060E
:1071B000B2E802108F4178EB0C08B2E8021079EBCC
:1071C00001097AEB0C0A89415B184C414D4156F19B
:1071D000000657F1000758F1000859EBD1795AEB36
:1071E000010A80E8F807BDE8F007704718EB0408CB
:1071F00059EB05095AEB060A5BEB070B5FF0000C35
:107200004CF1000C18EB050859EB06095AEB070A7C
:107210005BEB070B50EB0C005FF0000C51EB0C012B
:1072200052EB0C0263414CF1000CB8EB070879F10A
:1072300000097AF1000A7BEB040BA841B141A2419D
:10724000B3416CF1000CBBEB050BB041B941AA4155
:10725000BB416CF1000C4CF001068CF0020718EBFE
:10726000060859EB6C095AEB6C0A7BEB6C0B70EB64
:107270006C0471EB6C0572EB670653EB6C076CEBFF
:107280006C0C18EB0C0059EB0C015AEB0C025BF187
:10729000000354F1000455F1000556EBDC7657EB82
:1072A0000C0770472DE9F14F87B0FFF715FCDDF8AB
:1072B0001080DDF81490DDF818A0FFF797FFBDE807
:1072C000000FFFF793FF03B05DF8048B88E8FF0021
:1072D000BDE8F08F2DE9F14F87B0FFF7B9FCDDF87D
:1072E0001080DDF81490DDF818A0FFF77FFFBDE8EF
:1072F000000FFFF77BFF03B05DF8048B88E8FF0009
:10730000BDE8F08F064B074ADB7802604FF4347219
:107310008280C3710822002382710372704700BF0C
:10732000B0220020D79A0100064B074A1B79026061
:107330004FF4B4728280C3710822FF2382710372FA
:10734000704700BFB02200208F9601002DE9F34165
:10735000C41D002824F00704064614BF2046002060
:1073600000F08AFF071E04DA6FF00B0002B0BDE8E0
:10737000F0810EB9FC42F7D4364D698928896B7BC0
:107380002A7B0331033089B280B20FF054FD00280C
:10739000EADBA978EB783C440334002E194424F04E
:1073A000030400FB01F114BF2046002001F0F0F8B7
:1073B00020440EB90028D7DB2B790446B3B1697D90
:1073C00019446B791944FF29CEDC0330002E20F0DC
:1073D000030414BF204600202A8AC9B201F048F9EC
:1073E0000028C1DB04440EB9002CBDDB012000F0F5
:1073F00039FFC8B1A97BB9B195F82C300734002BFF
:1074000015BF402325234FF48172282224F007045E
:10741000002E14BF2046002003F068FD0028A3DBE7
:1074200004440EB9002C9FDBAB7CE3B12B799BB1FC
:107430000734002E24F0070414BF20460020A97C46
:1074400006F05CFB00288FDB044466B9002C0ADAE6
:107450008AE700BFB0220020012000F003FF10B136
:10746000AB7B002BE4D1724B1B6893B1A97981B13E
:107470000334002E24F0030414BF20460020EA7CCD
:1074800098470028FFF670AF044416B9002CFFF6A9
:107490006BAF684B1B688BB1297D79B10334002E2B
:1074A00024F0030414BF2046002098470028FFF66C
:1074B0005BAF044416B9002CFFF656AF5E4B1F6855
:1074C000AFB1697D99B10334002E2B7E009324F077
:1074D000030414BF20460020EB7DAA7DB847002896
:1074E000FFF642AF044416B9002CFFF63DAF07206B
:1074F00000F0B8FE98B1A97989B10334002E24F0C8
:10750000030414BF20460020AA7E01F09FF9002842
:10751000FFF62AAF044416B9002CFFF625AF95F804
:107520002500B6FA86F77F09A0B1EB7F297F0334E7
:1075300024F00704194444F004043B462246C9B22F
:1075400001F0C6F90028FFF60FAF044416B9002C6D
:10755000FFF60AAF95F82610002959D00734002EFF
:1075600024F0070814BF404600202A8D0FF078FC55
:10757000041EFFF6F9AE444416B9002CFFF6F4AE33
:107580001EB1298D40460AF025FD95F820100029EE
:1075900040D095F82430002B3CD06A8C0734002E64
:1075A00024F0070802F1240214BF4046002092B2E2
:1075B0000FF056FC041EFFF6D7AE444416B9002C5B
:1075C000FFF6D2AEAB7F297F95F82400033424F078
:1075D0000704194444F004043B462246C9B201F0B2
:1075E00069F90028FFF6C0AE044416B9002CFFF676
:1075F000BBAE3EB16A8C95F82010083292B240467C
:107600000AF0EEFC2B6B5BB176B12C630020ADE68B
:107610008846B5E7002EF5D0002211461046EFE768
:10762000002EF3D12046A1E62834FBD59CE600BF0E
:1076300024110020281100202C1100201FB572B643
:10764000184B5D6BE5B9BFF34F8F1749174BCA68ED
:1076500002F4E0621343CB60BFF34F8F00BFFDE73E
:10766000B2FBF6F2DCB20133002AF9D104F11003C7
:107670006B4403F80C2C0A2234B901A8A847E2E7AE
:10768000024600230A26EDE7631E04AEDCB256FA7A
:1076900083F3B0FBF2F602FB1600303003F80C0C5B
:1076A0003046E9E7B022002000ED00E00400FA05D2
:1076B00013B5114C637B8DF80130237B8DF80030BE
:1076C0006389ADF8043068462389ADF8023004F0D0
:1076D0001FFA18B1E8219C20FFF7B0FF207E04F0CC
:1076E00047FA08B1EB21F6E7E07D04F03BFA08B178
:1076F000EC21F0E702B010BDB022002038B50546FD
:1077000000283ED00EF0D0FA10B94FF0FF3038BD4F
:107710000BF0E4F8B0F5FA7FF7D81C4C1C48656311
:10772000002500F019FD2A222946A01C84F83850B3
:10773000257084F82C5025630EF04AFE1B2222810E
:10774000628140F2032240F20113A281032263808E
:10775000A27301231F2223712282A3764FF40272A7
:10776000F7236282638444F60112FB23E2822385BD
:10777000EFF3108472B601F0BBF82CB962B6204664
:10778000C5E76FF01500C2E72846C0E7B022002029
:10779000B176000038B51446002840F0B9805E4D3F
:1077A00095F83830032B00F0B080B1B112B96FF00A
:1077B000150038BD0139142900F2AA80DFE801F074
:1077C0000B1C1F345E67853A6A6D7F404654598BA7
:1077D0008E9C9FA294001378AB700020FFF7B6FD3B
:1077E0000028B7BF0123022385F838306FF00B0063
:1077F000A8BF85F83830DCE71378EB70EDE7137934
:10780000002BD4D05379002BD1D01288FB2ACED8AC
:107810001A2A6388CBD91B3BE02BC8D82368AB60FE
:107820003E4BA2889A80D8E713786A799342BED3F8
:107830002B71D2E713782A799342B8D86B71CCE7D1
:1078400013782A799342B2D86B75C6E71378002B68
:10785000ADD05378013BDBB2F82BA8D81388EB826C
:107860002F4B92789A70B8E71078687608F01AFC77
:10787000B3E71378002B9AD0AB76AEE7012000F087
:10788000F1FC237808B1012B91D9AB73A5E71388DC
:107890002B82A2E71378AB719FE7072000F0E2FC90
:1078A00010B92378012B82D9072000F0DBFC18B136
:1078B0002378002B3FF47BAF2378EB748DE71378AC
:1078C000082B3FF674AF2B7587E71388FF2B3FF625
:1078D0006EAFAB7481E71378EB767EE713780E2BEF
:1078E0003FF665AF2B7778E723680E4A2B62636813
:1078F00053602389138170E713786B776DE71378F2
:10790000EB776AE71378AB7767E74FF0FF3050E724
:107910006FF02C004DE700BFB0220020B8220020FD
:10792000C6220020D0220020F8B50D46064630B30E
:1079300029B311F0070422D1124F97F83830012BE8
:1079400002D16FF00B00F8BD032B02D14FF0FF30D6
:10795000F9E700F08FF80028F8D02846FFF7F6FC8A
:107960000028EEDB12F08AF93046396B04F074F926
:10797000FFF79EFE032387F838302046E3E76FF0D9
:107980001500E0E7B022002010B5074C94F838301D
:10799000032B03D104F07CF905F0F4F90FF089FB17
:1079A000002084F8380010BDB022002050B1074BF1
:1079B00003F1140253F8041B40F8041B9342F9D15D
:1079C000002070476FF01500704700BF7467050016
:1079D00010B5074B93F838403CB904F007F9032081
:1079E000044900F037FC204610BD4FF0FF30FBE7A4
:1079F000B02200202973000010B5074B93F83840DF
:107A00003CB904F007F90220044900F023FC2046A9
:107A100010BD4FF0FF30FBE7B022002005730000DF
:107A200010B5054B93F838401CB910F03DFA2046CC
:107A300010BD4FF0FF30FBE7B022002010B5054B22
:107A400093F838401CB910F032FA204610BD4FF0C0
:107A5000FF30FBE7B0220020024B02681A600020D2
:107A6000704700BFEC220020014B1B68184700BF85
:107A7000EC220020024B1868003818BF0120704724
:107A8000EC220020F7B52E4E0446071D2C48376027
:107A900005F090F90228054606D1294920460EF046
:107AA0000CFE284603B0F0BD042842D13378092BE0
:107AB0000AD0262B1ED03146204600F043F8B0F500
:107AC000817F2DD3722112E005213E200EF0C8FDEA
:107AD0000028F0D1F378327901A943EA02236846FD
:107AE000ADF800300EF08CFF0028CFD053210820D5
:107AF000FFF7A4FD1A213E200EF0B2FD0028DAD1D6
:107B00007368C3F30F23ADF804306946112301A84D
:107B10008DF806300EF08EFF0028B7D06521E6E71D
:107B20000028B3D0A17820780EF09AFD0028B8D1B3
:107B3000ACE70828B5D1024920460EF0EDFDB0E7CC
:107B4000F02200202DE9F8430B78013B05460C4656
:107B5000832B00F29882DFE813F09A009E00A200C7
:107B6000530196021B01210127012D013301370129
:107B7000390149014F0184009602A7009602AB002B
:107B80003D0143015D0163015701960269019602BF
:107B90007C01AC01B201B8019602BE01CA01D0015C
:107BA0009602FD010B023302110225022D0217027B
:107BB0001F026E0274028202880239023F025D02D5
:107BC0004502960296029602960296029602960246
:107BD00096029602960296029602960296029602E5
:107BE00096029602960296029602960296029602D5
:107BF00096029602960296029602960296029602C5
:107C000096029602960296029602960296029602B4
:107C100096029602960296029602960296029602A4
:107C20009602960296029602960296029602960294
:107C30009602960296029602960296029602960284
:107C40009602960296029602960296029602960274
:107C50009602960296029602960296024B025102F4
:107C600057020E23B1F803200B7042F283039A42AD
:107C700009D10623637066780236324621462846CB
:107C80000EF012FC5AE03521C720FFF7D7FC0C2379
:107C90000B700823EEE71A230B700123EAE73E235B
:107CA0000B700223A370E6E73E230B700B23F9E76A
:107CB000292000F041FA28B13E232370222363706B
:107CC0002923EFE70A2000F037FA3E2305F10802E6
:107CD00004F108012B70A0B30A23AB70E378EB70BA
:107CE000A3882B71A3881B0A6B71A379AB71E3790D
:107CF000EB71A368AB608B889380D4F80E30C5F825
:107D00000E30638A6B8263696B61238B2B83638B79
:107D1000AB76638B1B0AEB76A38B2B77A38B1B0AAB
:107D20006B77E38BAB77E38B1B0AEB7794F8203010
:107D300085F820301F226A70023296B23046BDE8C4
:107D4000F8830123AB70E378EB70A3882B71A388D1
:107D50001B0A6B71A379AB71E37903F00103EB713B
:107D6000A368AB608B889380638BAB73638B1B0AB8
:107D7000EB73A38B2B74A38B1B0A6B74E38BAB7419
:107D8000E38B1B0AEB7494F820302B751322D2E797
:107D90003E230B7004234B70142383E73E230B70A8
:107DA0000C234B7004237DE73E230B700A234B709A
:107DB000032377E73E230B700D234B70052371E7F8
:107DC00005232370042355E70823FAE730230B70BB
:107DD00003234FE73E230B700B234B70072361E710
:107DE0003E230B7006234B700C235BE713230B70B1
:107DF0008B789B0001333DE757230B70022339E753
:107E00003E230B700D234DE73E230B7001234B7077
:107E1000112347E73E230B7006234B70122341E7E3
:107E20003E230B7009234B7013233BE73E23037063
:107E3000242000F081F9002815BF24230E231326E7
:107E40000F263246AB70A11CE81C0EF02DFB721CF5
:107E500071E73E230370252000F06EF9C0B12523A1
:107E6000AB70D4F80230C5F80330D4F80630C5F84A
:107E700007306389A5F80B300A26F01CE27A04F17A
:107E80000C0128440EF010FBE27A0132324452E732
:107E90000F23AB706388A5F8033023796B71637986
:107EA000AB71A379EB71A37A2B72E37A6B7207261D
:107EB000E3E73E230B7003234B701023F2E63E23CF
:107EC0000B7005234B702023ECE63E230B70092337
:107ED0004B702123E6E63E230370262000F02CF9A8
:107EE000002815BF2623182317261326A9E73E23AB
:107EF0000B7004234B702723D4E63E230370282302
:107F000083708146D1F8023049F8033F4FF00008F2
:107F10004646AA795FFA88F39A4205D8721D92B252
:107F2000002A3FF4A8AE06E7B21D331DA118A258DF
:107F300049F8032009EB03008B88838047793A4690
:107F40000637063106303E440EF0AEFAB6B208F1FE
:107F50000108DEE73E230B702A2000F0EDF818B18F
:107F60002B2363702A239DE61D236370192399E652
:107F70003E230B7007234B701A2393E63E230B70AE
:107F800014234B7022238DE63E230B700B7C5B0089
:107F90000F334B701D2385E63E230B7003234B707C
:107FA0001E237FE63E230B700B7D5B0013334B706B
:107FB0001B2377E63E230B7003234B701C2371E6D3
:107FC0003E230B7005234B701F236BE6FF230B70C2
:107FD0000B234B70A22365E6FF230B7005234B7028
:107FE000A3235FE6FF230B700D234B70802359E61C
:107FF000FF230B700D234B70822353E6FF230B707E
:1080000002234B7083234DE6FF230B7004234B7038
:10801000842347E6FF23037081238370D1F8033064
:10802000C21C03F1280153F8040B42F8040B8B42E5
:10803000F9D129227FE63E230B700C234B702323BA
:1080400030E6124B1B78002B14BFFF233E230B702E
:108050004FF00E034B7014BF8523372322E63E23D7
:108060000B700A234B7035231CE6084B1B78002B42
:1080700014BFFF233E230B704FF0FE034B7014BF61
:1080800086232B230EE640F26221FDE5F423002037
:10809000074B4FF0FF3141F6FF72C3E9001205496B
:1080A0000022C1E900221F21C3E90212704700BF6C
:1080B000C0100020F82300203F280CD801380B4BBB
:1080C000C0F3421200F01F0053F8223023FA00F0F0
:1080D00000F001007047FF2806D04038C0F342127C
:1080E000034B00F01F00EFE701207047C010002095
:1080F000F82300200146074B006849681A4603C26E
:1081000040F48C221A6041F0107242F4FF625A600F
:10811000704700BFC01000200246024B0068516843
:1081200003C37047F82300200246024B00685168E1
:1081300003C37047C81000200138064BC0F3421239
:1081400003EB820300F01F009B6823FA00F000F0AD
:1081500001007047C0100020014B1860704700BF3D
:108160000024002010B5FFF793FF0FF068F9034BD0
:108170001B68044603B19847204610BD0024002028
:108180000B880288F0B5C3F30E049EB204F1180305
:10819000C57CC35A02352A442B4497B213FA82F3A2
:1081A000013B4288B3FBF7F313FB07439BB29A42B0
:1081B000044A93BF22EA0603324013439BB20B806A
:1081C000F0BD00BF0080FFFF4A1E062A08B5034627
:1081D000084604D84FF4D1711520FFF72FFA094A49
:1081E000914202D940F2A311F6E711B903B1196027
:1081F00008BD2BB11B680022C3E901211A1D1A60BA
:108200000430F5E7FAFFFF7F10B5114B00EB410496
:108210001A786389B3FBF2F303FB0223013A1A4491
:10822000B2F5706F027928BF00231A448378B2FB3D
:10823000F3F0194403FB1020091AB1FBF3F003FB20
:10824000101313446FEA43436FEA5343638110BD35
:1082500004240020024B03EB80035960704700BFE9
:1082600004240020034B03EB80035868003818BF38
:1082700001207047042400202DE9F04F10F0070A78
:1082800085B0054604D040F261111720FFF7D6F9FA
:10829000554F07F14C06B1460446B0464FF0010B6E
:1082A00057F8043B8DF80BA03BB101A898479DF807
:1082B0000A30082B01D9E821E7E79DF80B1081BBB4
:1082C00005B13160B94506F10406E9D12DB3DFF8F7
:1082D0001CE100238EF800301E46122258F82200BE
:1082E000013A60B190F804A08178BAF1FF0F66D12D
:1082F0004FF000078E4207713CBFCEB20123511CE4
:10830000ECD10BB18EF80060122640F6FF6A58F8E7
:108310002670002F65D1013EF9D2601B05B0BDE883
:10832000F08F9DF80AC0BCF1020FE64601F105028C
:1083300038BF4FF0020E0EF1FF3004EB420404444C
:10834000CEF100002040BDF808406444013CCCF16F
:10835000000C04EA0C04B4F5803F4FEA420301D359
:10836000F82192E775B1C31A336099701C8083F8C5
:1083700003B09DF80C201A71019A1A814FEA124C31
:10838000A3F806C004FB01049CE758F82C90B9F14F
:10839000000F06D099F804B0D34504BF99F80290B5
:1083A0004F440CF1FF3CBCF1000FEEDA3944FF29D9
:1083B000A0D90BB18EF8006040F2271165E7944612
:1083C0000027F0E707EB41033846A3F80AA0FFF7C0
:1083D0001BFF09F10109BB785FFA89F18B42F1D8E3
:1083E00099E74FF00009F6E7082400200424002054
:1083F000F8B54FF6FF730380184B03EB8103054676
:10840000186DB8B186780379B3FBF6F206FB123328
:10841000DBB219460A1D00EB4202B2F90270548821
:10842000002F09DB0131B1FBF6F206FB1211C9B2D4
:108430008B42EFD10020F8BDFF29FBD0C4F30E031F
:10844000C4782B8024B94FF4D5711720FFF7F6F8C4
:108450005380BDE8F8400EF0CDBC00BF04240020DE
:108460001D4B03EB810370B51C6D054644B303043B
:1084700004D54FF4DC711720FFF7E0F801462046E1
:108480000EF09AFCFF28014604D02046BDE870405B
:108490000EF0B0BCA078B5FBF0F300FB1353DBB2D9
:1084A00019460A1D04EB4206B6F90260002E09DBEC
:1084B0000131B1FBF0F200FB1211C9B28B42F0D1D5
:1084C000002070BDFF29FBD08B4204EB42021CBF91
:1084D0000023E3705580D8E704240020094B03EB08
:1084E000810310B51C6D014620460EF065FCFF2887
:1084F000014604D02046BDE810400EF07BBC0020B1
:1085000010BD00BF04240020F8B5104B03EB81031D
:1085100007461C6D014620460EF04EFCFF2805461E
:1085200011D0E688238953EA064606D00146204644
:108530000EF060FC01463846B04720462946FFF75A
:1085400063FE0020F8BD0520FCE700BF04240020E6
:1085500038B50E4B827903EB82030446186D08B9D7
:10856000052038BD8278E1799142F9D24B1CE37144
:1085700000EB41035D89B3F90A30002BF3DBA580E2
:108580000EF038FC20600020EBE700BF0424002040
:1085900070B5044610F003000E4603D04E2118209B
:1085A000FFF74CF8FFF710FE054624B103483146AB
:1085B0000460FFF709FE284670BD00BFA02400201C
:1085C0002DE9F14FDFF870B09DF828A09DF82C90B0
:1085D0001E46DBF8003007460D4690461BB9602169
:1085E0001820FFF72BF85246092140460EF066FA94
:1085F0004A4684B2092130460EF060FA14FA80F13E
:10860000DBF800000EF0ADFB386018B9286001B04F
:10861000BDE8F08F04442C60386853464146092277
:108620000EF010FA28684B460922314601B0BDE829
:10863000F04F0EF007BA00BFA024002070B50E4620
:1086400004460EF04EFA054630460EF04AFA044B48
:108650002A1821461868BDE870400EF0A6BB00BF7E
:10866000A0240020014B18680EF06FBBA02400204E
:108670001F2AF8B5044613460ED89200033222F0A2
:108680000303B3F5803F2DD2184DACB1A00710D035
:108690005F210920FEF7D2FFFF2B4FEA420204D9E7
:1086A000FF339A42A8BF1A46E8E77C2AB8BF7C226B
:1086B000E4E729706C602B8122F0030201EB810357
:1086C0001204D80001276B68120C0025EEB28E420E
:1086D00000D3F8BD14B126181F705E601044013538
:1086E0002833F3E74FF0FF30F3E700BFA424002066
:1086F00038B5144A147853680021C8B2844203D8AC
:10870000AB210920FEF79AFF18460131057828337E
:10871000002DF2D000218170012412894470446838
:108720008161C161920800F12001051D21F8022B31
:10873000994245F8044B1444F8D100234361037077
:1087400038BD00BFA42400200A4B1B89B3F5FF7F6E
:108750004FEA930006D25A089B1A9BB2984238BF40
:1087600018467047B3F5EE6F01D8FF22F4E740F2E8
:108770007263F3E7A42400202DE9F8434B78804688
:108780000C4602F0040602F0FB07D3B1DFB12E4B1A
:10879000D4F804901D89B7BB01236370AD08A761AD
:1087A000E76104F120034A46211D04F1280023F863
:1087B000025B984241F8042B2A44F8D100236361FC
:1087C00001E0002FE3D0FF23A370002E18BF022684
:1087D000A3191B7D032B03D1022F1CBF0136F6B258
:1087E000A31901221A7506F10C0204EB8606002378
:1087F00024F812307268A370C8F80020A8F804307A
:108800004046BDE8F883002114226170A0180DF0E5
:10881000DFFDB5F5FF7F0FD26B08ED1AADB209EBA6
:108820000502C4F804902584A2606384C4F80C9007
:10883000A5842261E384C6E7B5F5EE6F4FF0FF0330
:10884000EBD940F27265EAE7A42400202DE9F84351
:1088500005460C46F720052191460EF02FF9061E1D
:1088600022DB1DB914FB06F0BDE8F88315F0030701
:1088700003D098211920FEF7E1FEDFF83480C8F814
:108880001050A8F81460A5B2BBB29D42EAD9B8F85E
:1088900014C0D8F810004B4607FB0C000522F72146
:1088A0000EF0D0F80137EFE74FF0FF30DCE700BF04
:1088B000B824002007B5CDE900230B460349024642
:1088C000081D0EF0D0FB03B05DF804FBD02400209F
:1088D00013B5064CCDE900230B46024604F108010E
:1088E00004F10C000EF0BFFB02B010BDD02400203C
:1088F000134B012200214FF0FF309A60C3F80012A1
:10890000C3F80803C3F80015C3F804259A60C3F838
:108910000803C3F80015C3F804250A490A4A03F5F9
:1089200080334FF40040C3F80825C1F88000BFF33E
:108930004F8FBFF36F8FC1F88001C3F808257047D0
:1089400000F0004000E100E00000F63F8C463423D8
:1089500000B50CF8033B054B8E4607CBCEF8030061
:10896000CCF80410CCF808205DF804FBEC240020BF
:1089700010B5154C08F0FCFB07F024FD636A608C11
:1089800000219847237E9BB9104B628C93E803002B
:1089900005F03EF9E36A188805F064F8636B94F813
:1089A000301094F831009847002384F8383010BD17
:1089B00094E8070004F10C0383E80700044904F17C
:1089C000190010F024F8DFE7E0240020082500203B
:1089D0004D890000034B93F8383003B97047FFF717
:1089E000C7BF00BFE024002008B54FF48E61062009
:1089F000FEF724FE08B5094B93F83820022A07D168
:108A0000DA7A42F00102DA72BDE80840FFF7B0BF3F
:108A100040F231212720FEF711FE00BFE0240020A4
:108A200070B5354E96F8283005460BB1012825D093
