:020000040008F2
:10200000889E002045DB0C0039690A0031DB0C009A
:1020100031DB0C0031DB0C0031DB0C000000000078
:10202000000000000000000000000000F9DB0C00D0
:1020300031DB0C000000000099DB0C0031DB0C00F0
:10204000C1590A00D9F60B00C1590A00C1590A004A
:10205000C1590A00C1590A00C1590A00C1590A00F0
:10206000A9F60B00C1590A00C1590A00C1F60B00BC
:10207000C1590A00C1590A00C1590A00C1590A00D0
:10208000C1590A00C1590A00C1590A00C1590A00C0
:10209000C1590A00C1590A00C1590A00C1590A00B0
:1020A000C1590A00C1590A00C1590A00C1590A00A0
:1020B000C1590A00C1590A00C1590A00C1590A0090
:1020C000C1590A00C1590A00C1590A00C1590A0080
:1020D000C1590A00C1590A00C1590A00C1590A0070
:1020E000C1590A00C1590A00C1590A00C1590A0060
:1020F000C1590A00C1590A00C1590A00C1590A0050
:1021000000000000000000000000000000000000CF
:1021100000000000000000000000000000000000BF
:1021200000000000000000000000000000000000AF
:10213000000000000000000000000000000000009F
:10214000000000000000000000000000000000008F
:10215000000000000000000000000000000000007F
:10216000000000000000000000000000000000006F
:10217000000000000000000000000000000000005F
:10218000000000000000000000000000000000004F
:10219000000000000000000000000000000000003F
:1021A000000000000000000000000000000000002F
:1021B000000000000000000000000000000000001F
:1021C000000000000000000000000000000000000F
:1021D00000000000000000000000000000000000FF
:1021E00000000000000000000000000000000000EF
:1021F00000000000000000000000000000000000DF
:10220000DEE61E284CBBCE8F023400003C000000EE
:1022100000FE05000100000000200800002008006A
:10222000FFFF02910000000000000000000000001D
:0C223000000000000000000000000000A2
:1022400080EA101404F0F01480EA0410604081EA7F
:10225000111404F0F01481EA0411614082EA1214AE
:1022600004F0F01482EA0412624083EA131404F0CA
:10227000F01483EA0413634080EA102404F47F44DA
:1022800080EA0420604081EA112404F47F4481EA5A
:102290000421614082EA122404F47F4482EA042289
:1022A000624083EA132404F47F4483EA04236340F6
:1022B00081EA500404F0553480EA4400614083EA26
:1022C000520404F0553482EA4402634082EA9004E6
:1022D00004F0333480EA8400624083EA910404F01D
:1022E000333481EA84016340704700BF82EA90047E
:1022F00004F0333480EA8400624083EA910404F0FD
:10230000333481EA8401634081EA500404F0553497
:1023100080EA4400614083EA520404F0553482EAC2
:102320004402634080EA102404F47F4480EA0420DD
:10233000604081EA112404F47F4481EA0421614071
:1023400082EA122404F47F4482EA0422624083EA8F
:10235000132404F47F4483EA0423634080EA1014C6
:1023600004F0F01480EA0410604081EA111404F0D3
:10237000F01481EA0411614082EA121404F0F014AE
:1023800082EA0412624083EA131404F0F01483EA30
:1023900004136340704700BF2DE9F14F94464FEAA4
:1023A000930B8A68CB6808684968FFF749FF0BF10F
:1023B000060E33E083EA134480EA134582EA1347AA
:1023C00046BA96EA3444604000F00F1684EA0634B8
:1023D00020F00F1684EA161054BA94EA01067240EF
:1023E00002F00F1486EA043622F00F1486EA141263
:1023F0004CBA6540694001F00F1485EA043521F0BC
:102400000F1485EA14115CBA67407B4003F00F1487
:1024100087EA043723F00F1487EA1413BCE8F000AE
:102420006040694072407B4000F0E03400F01035BD
:1024300000F00F3040EA540040EAC50080EA900402
:1024400004F0332480EA8400604001F0E03401F0BD
:10245000103501F00F3141EA540141EAC50181EA2A
:10246000910404F0332481EA8401614002F0E034F5
:1024700002F0103502F00F3242EA540242EAC5027D
:1024800082EA920404F0332482EA8402624003F078
:10249000E03403F0103503F00F3343EA540343EA0A
:1024A000C50383EA930404F0332483EA840363407E
:1024B00081EA324787EA134581EA354690EA060405
:1024C00084EA034B82EA1B4280EA044484EA05441E
:1024D00083EA144A85EA14448BEA044B84EA3744BD
:1024E00081EA0B4181EA164104EA0A00454082EA8A
:1024F00004082BEA080041408AEA0B0602EA0600BB
:1025000084EA34438AEA3A4603EA060778404540BB
:10251000414088EA38478BEA3B4007EA000985EAF0
:10252000090583EA0709464006EA0906714085EA7B
:10253000010005EA3546464006EA314181EA30416C
:1025400081EA364606EA304686EA3546344008EAED
:10255000010886EA01052A4086EA364003405A40CF
:1025600081EA31431F407C4080EA030709EA0709FA
:1025700088EA0908544088EA020806EA0A0601EADD
:102580000B018AEA0B0215408AEA3A4210404540A4
:102590008BEA3B4003405E404240174079404D404B
:1025A0004E40E443F64386EA18435D4085EA054021
:1025B00083EA134386EA034183EA384284EA1143FB
:1025C00083EA04435FEA3343BEF1010E3FF6F2AE05
:1025D0001ED4BCE8F0006040694072407B4020BCE3
:1025E000FFF784FE28606960AA60EB60BDE8F08FA9
:1025F0002DE9E0414FF2F00280EA1031114080EA0B
:102600000130484041088208C3084FF0000E4FE7F0
:1026100000F0113001F0113102F0113203F01133EA
:1026200040EA410040EA820040EAC3004FF2F00273
:1026300080EA1031114080EA01304840BDE8E08175
:102640002DE9F04F02F11C050646074600EB850810
:1026500051F8040B043A46F8040BF9D14FF0010C81
:10266000FFF7C6FF5FEA302080EA0C001ECF414032
:102670004A4053405C401EC62000464517D04FEAF2
:102680004C0C1CF4807F18BFACF1E50C2C2DE7D06E
:102690003C2D06D1FFF7ACFF06CF41404A4006C6AD
:1026A000100006CF41404A4006C61000D8E736E980
:1026B0000F00FFF7C5FD043D86E80F00F7D1BDE828
:1026C000F08F00BF2DE9F14F03F11C0402EB840CE5
:1026D0004FEA930B8A68CB6808684968FFF7B0FD3A
:1026E0003CE9F0006040694072407B400BF1060E0F
:1026F0004EE083EA134480EA134582EA134746BA60
:1027000096EA3444604000F00F1684EA063420F064
:102710000F1684EA161054BA94EA0106724002F0C9
:102720000F1486EA043622F00F1486EA14124CBA0B
:102730006540694001F00F1485EA043521F00F145B
:1027400085EA14115CBA67407B4003F00F1487EAF6
:10275000043723F00F1487EA141344BA44404DBAE7
:102760004D4056BA56405FBA5F4087EA174886EA3E
:10277000174B84EA17464FEA38488BEA1B4485EA30
:102780001B4788EA1B4580EA3440694072407B4021
:1027900000F0703400F0803500F00F3040EA440063
:1027A00040EAD50080EA900404F0332480EA8400F3
:1027B000604001F0703401F0803501F00F3141EAE2
:1027C000440141EAD50181EA910404F0332481EA0D
:1027D0008401614002F0703402F0803502F00F3263
:1027E00042EA440242EAD50282EA920404F0332427
:1027F00082EA8402624003F0703403F0803503F013
:102800000F3343EA440343EAD50383EA930404F015
:10281000332483EA84036340C943DB4381EA000431
:1028200083EA044686EA020183EA014382EA3345E9
:1028300083EA14435C4084EA00077FEA040A8AEAD8
:10284000024A8AEA010B87EA11488AEA374A80EA93
:10285000060181EA1A418AEA030A04EA0A004540AD
:1028600088EA040707EA0B0041408AEA0B0608EAF7
:10287000060084EA34428AEA3A4602EA06035840ED
:102880004540414087EA37438BEA3B4003EA000971
:1028900085EA090582EA0309464006EA090671400D
:1028A00085EA010005EA3546464006EA314181EAFB
:1028B000304181EA364606EA304686EA35463440FB
:1028C0000F4086EA010508EA050886EA364002401C
:1028D00088EA020881EA314213405C4080EA020340
:1028E00009EA030987EA0907674088EA040806EA53
:1028F0000A0601EA0B018AEA0B0425408AEA3A44F7
:10290000204045408BEA3B4B02EA0B02564084EAEA
:102910000B04234059406E40694087EA364080EA04
:10292000384080EA060380EA104481EA134585EACC
:10293000344585EA17427D4082EA354180EA054008
:102940003CE9F0006040694072407B40BEF1010EFE
:102950003FF6CFAE20BCFFF7C9FC28606960AA60D3
:10296000EB60BDE8F08F00BFFFF76ABE2DE9F0070E
:1029700091E8F807B2E802105B1854EB0C04B2E8D7
:1029800002104D4156EB0C06B2E802104F4158EBD5
:102990000C08B2E8021059EB01095AEB0C0A80E866
:1029A000F80780410130BDE8F00770472DE9F007D6
:1029B00091E8F807B2E802105B1A74EB0C04B2E875
:1029C00002108D4176EB0C06B2E802108F4178EBD5
:1029D0000C08B2E8021079EB01097AEB0C0A80E8E6
:1029E000F80780414042BDE8F00770472DE9F00745
:1029F000524290E87800B1E880071740DB1918EAE6
:102A0000020854EB080419EA020955EB09051AEA11
:102A1000020A56EB0A0678C090E87800B1E8800711
:102A200017407B4118EA020854EB080419EA02092E
:102A300055EB09051AEA020A56EB0A0678C08041EE
:102A40000130BDE8F00770472DE9F007524290E8E9
:102A50007800B1E880071740DB1B18EA020874EB26
:102A6000080419EA020975EB09051AEA020A76EB6D
:102A70000A0678C090E87800B1E880071740BB41AB
:102A800018EA020874EB080419EA020975EB090553
:102A90001AEA020A76EB0A0678C080414042BDE895
:102AA000F00770472DE9F00152424FF0040890E81A
:102AB000300091E8C000A31B1340E41AF618EB1B8A
:102AC0001340ED1AFF1830C0C0C1B8F10108EED1B3
:102AD000BDE8F001704700BF00B592E8DC072DE9C2
:102AE000DC07B1E8805702B4A7FB02510A95A8FBA6
:102AF000020BE7FB6310E9FB62B00B91A8FB0351EB
:102B0000EAFB6201E7FB64B5E7FB6605E8FB6615D7
:102B1000CDF830B0A9FB03B6EAFB6316ECFB6356B5
:102B2000E8FB640BE9FB641BEAFB645BECFB646B96
:102B30000D90ACFB0230059CEEFB6250E9FB64603B
:102B4000EAFB64B0E7FB6431E8FB6451069CE8FBF8
:102B50006461E9FB64B1EAFB64010E93A7FB0432F4
:102B6000079CE7FB6462E8FB64B2E9FB6402EAFBF2
:102B70006412049CE9FB6453EAFB6463089CE7FB72
:102B800064B3E8FB6403E9FB6413EAFB64230F9579
:102B90005DF8049B99E80006DDF80080A9FB085465
:102BA000EAFB68B4DDF81080ECFB6804EEFB681407
:102BB000E9FB6824EAFB6834DDF80480EEFB686515
:102BC000E9FB68B5EAFB6805DDF81480ECFB6815E5
:102BD000EEFB6825E9FB6835EAFB68450F96DDF8F2
:102BE0000880AEFB0876E9FB6806EAFB6816DDF8AC
:102BF0001880ECFB6826EEFB6836E9FB6846EAFBCA
:102C00006856DDF80C80ECFB68B7EEFB6807E9FB63
:102C10006817EAFB6827DDF81C80ECFB6837EEFBE1
:102C20006847E9FB6857EAFB686708B000BD00BF6A
:102C30002DE9F14F87B0FFF74FFFDDF81C8008F159
:102C4000200888E8FF00FFBC87E87F08BDE8F08F18
:102C500000B591E89857A3FB03520195A3FB04012B
:102C6000E3FB6420E3FB67100292A3FB0752E3FB44
:102C70006802E4FB6415E3FB6805E3FB6925039147
:102C8000A4FB07B6E3FB6926E3FB6A56E4FB670B8C
:102C9000E4FB682BE3FB6A5BE3FB6C6B0490A4FB37
:102CA0000810E4FB6950E3FB6C60E3FB6EB0E7FBEC
:102CB0006721E4FB6951E4FB6A61E3FB6EB1E4FB6D
:102CC0006E010592A7FB0832E4FB6A62E4FB6CB27A
:102CD000E4FB6E02E7FB6E12E7FB6853E7FB6963F8
:102CE000E4FB6CB3E7FB6C03E7FB6E13E8FB6E23BE
:102CF0000695A7FB0954E7FB6AB4E7FB6C04E8FB05
:102D00006C14E8FB6E24E9FB6E34E8FB6865E7FBB6
:102D10006AB5E8FB6A05E8FB6C15E9FB6C25E9FB85
:102D20006E35EAFB6E450796A8FB0976E8FB6A0656
:102D3000E9FB6A16E9FB6C26EAFB6C36EAFB6E4699
:102D4000ECFB6E56E8FB69B7E9FB6907E9FB6A171C
:102D5000EAFB6A27EAFB6C37ECFB6C47ECFB6E572F
:102D6000EEFB6E6700BD00BF2DE9F14F87B0FFF7A6
:102D70006FFFDDF81C8008F1200888E8FF00FFBC29
:102D800087E87F08BDE8F08F30B44FF0000310F8FB
:102D9000014B11F8015B013A84EA050443EA04039C
:102DA000F5D1A3F101034FEAD37030BC704700BFE7
:102DB0004FF0000310F8012B013943EA0203F9D167
:102DC000A3F101034FEAD370704700BF30B411F88C
:102DD000014B12F8015B6C4000F8014B013BF6D14E
:102DE00030BC70472DE9F04F90E8F00F00F1400043
:102DF0004FF0040E59E0F0B4826BC36B04680525F4
:102E0000242687593C444FEA724787EAF24787EA0B
:102E100092273C4442684FEAF21787EAB24787EAB2
:102E2000D2073C4440F8044B032D08BF6FF01B064B
:102E300087593A444FEA734787EAF34787EA93276B
:102E40003A4443684FEAF31787EAB34787EAD30760
:102E50003A4440F8042B87593B444FEA744787EAC9
:102E6000F44787EA94273B4444684FEAF41787EA1B
:102E7000B44787EAD4073B4440F8043B013DC0D146
:102E8000A0F13C00076A3C444FEA724787EAF247E8
:102E900087EA92273C4402684FEAF21787EAB24772
:102EA00087EAD2073C44C463F0BC4FF0020288EAD0
:102EB000781C8CEAF84C0BEBBC1C8AEA090303EA89
:102EC000080383EA0A039C4450F8043B9C4451F8ED
:102ED000043B9C44674444EA050B0BEA060B04EAF6
:102EE00005034BEA030BE34484EAF42383EA3453F7
:102EF0000BEBB30B87EA771C8CEAF74C0AEBBC1C94
:102F000089EA080303EA070383EA09039C4450F8AB
:102F1000043B9C4451F8043B9C4466444BEA040A3D
:102F20000AEA050A0BEA04034AEA030AE2448BEAC6
:102F3000FB2383EA3B530AEBB30A86EA761C8CEA4E
:102F4000F64C09EBBC1C88EA070303EA060383EA94
:102F500008039C4450F8043B9C4451F8043B9C44B7
:102F600065444AEA0B0909EA04090AEA0B0349EA3B
:102F70000309E1448AEAFA2383EA3A5309EBB309E5
:102F800085EA751C8CEAF54C08EBBC1C87EA060345
:102F900003EA050383EA07039C4450F8043B9C447E
:102FA00051F8043B9C44644449EA0A0808EA0B08C7
:102FB00009EA0A0348EA0308E04489EAF92383EAB4
:102FC000395308EBB30884EA741C8CEAF44C07EB21
:102FD000BC1C86EA050303EA040383EA06039C4457
:102FE00050F8043B9C4451F8043B9C44E34448EAB9
:102FF000090707EA0A0708EA090347EA03076744DB
:1030000088EAF82383EA385307EBB3078BEA7B1C83
:103010008CEAFB4C06EBBC1C85EA040303EA0B03B9
:1030200083EA05039C4450F8043B9C4451F8043B5C
:103030009C44E24447EA080606EA090607EA080350
:1030400046EA0306664487EAF72383EA375306EB2A
:10305000B3068AEA7A1C8CEAFA4C05EBBC1C84EABB
:103060000B0303EA0A0383EA04039C4450F8043B7D
:103070009C4451F8043B9C44E14446EA070505EAB8
:10308000080506EA070345EA0305654486EAF623D0
:1030900083EA365305EBB30589EA791C8CEAF94CCF
:1030A00004EBBC1C8BEA0A0303EA090383EA0B0363
:1030B0009C4450F8043B9C4451F8043B9C44E0443D
:1030C00045EA060404EA070405EA060344EA0304A1
:1030D000644485EAF52383EA355304EBB304013AEB
:1030E0007FF4E5AEA0F14000BEF1010E7FF483AEA7
:1030F000A0F1400C9CE80F00001949199219DB1946
:10310000ACE80F009CE80F004044494452445B4443
:10311000ACE80F00BDE8F08F2DE9F00791E8F80763
:10312000B2E802105B1854EB0C04B2E802104D41F7
:1031300056EB0C06B2E802104F4158EB0C08B2E80F
:10314000021059EB01095AEB0C0A8941B3F1FF3324
:1031500074F1FF3475F1FF3576F1000677F1000761
:1031600078F1000879F101097AF1FF3A51F1000193
:103170005B184C414D4156F1000657F1000758F1DC
:10318000000859EBD1795AEB010A80E8F807BDE84D
:10319000F00770472DE9F00791E8F807B2E8021050
:1031A0005B1A74EB0C04B2E802108D4176EB0C064E
:1031B000B2E802108F4178EB0C08B2E8021079EB0C
:1031C00001097AEB0C0A89415B184C414D4156F1DB
:1031D000000657F1000758F1000859EBD1795AEB76
:1031E000010A80E8F807BDE8F007704718EB04080B
:1031F00059EB05095AEB060A5BEB070B5FF0000C75
:103200004CF1000C18EB050859EB06095AEB070ABC
:103210005BEB070B50EB0C005FF0000C51EB0C016B
:1032200052EB0C0263414CF1000CB8EB070879F14A
:1032300000097AF1000A7BEB040BA841B141A241DD
:10324000B3416CF1000CBBEB050BB041B941AA4195
:10325000BB416CF1000C4CF001068CF0020718EB3E
:10326000060859EB6C095AEB6C0A7BEB6C0B70EBA4
:103270006C0471EB6C0572EB670653EB6C076CEB3F
:103280006C0C18EB0C0059EB0C015AEB0C025BF1C7
:10329000000354F1000455F1000556EBDC7657EBC2
:1032A0000C0770472DE9F14F87B0FFF715FCDDF8EB
:1032B0001080DDF81490DDF818A0FFF797FFBDE847
:1032C000000FFFF793FF03B05DF8048B88E8FF0061
:1032D000BDE8F08F2DE9F14F87B0FFF7B9FCDDF8BD
:1032E0001080DDF81490DDF818A0FFF77FFFBDE82F
:1032F000000FFFF77BFF03B05DF8048B88E8FF0049
:10330000BDE8F08F064B074ADB7802604FF4347259
:103310008280C3710822002382710372704700BF4C
:10332000B0220020D75A0900064B074A1B790260D9
:103330004FF4B4728280C3710822FF23827103723A
:10334000704700BFB02200208F5609002DE9F341DD
:10335000C41D002824F00704064614BF20460020A0
:1033600000F08AFF071E04DA6FF00B0002B0BDE820
:10337000F0810EB9FC42F7D4364D698928896B7B00
:103380002A7B0331033089B280B20FF054FD00284C
:10339000EADBA978EB783C440334002E194424F08E
:1033A000030400FB01F114BF2046002001F0F0F8F7
:1033B00020440EB90028D7DB2B790446B3B1697DD0
:1033C00019446B791944FF29CEDC0330002E20F01C
:1033D000030414BF204600202A8AC9B201F048F92C
:1033E0000028C1DB04440EB9002CBDDB012000F035
:1033F00039FFC8B1A97BB9B195F82C300734002B3F
:1034000015BF402325234FF48172282224F007049E
:10341000002E14BF2046002003F068FD0028A3DB27
:1034200004440EB9002C9FDBAB7CE3B12B799BB13C
:103430000734002E24F0070414BF20460020A97C86
:1034400006F05CFB00288FDB044466B9002C0ADA26
:103450008AE700BFB0220020012000F003FF10B176
:10346000AB7B002BE4D1724B1B6893B1A97981B17E
:103470000334002E24F0030414BF20460020EA7C0D
:1034800098470028FFF670AF044416B9002CFFF6E9
:103490006BAF684B1B688BB1297D79B10334002E6B
:1034A00024F0030414BF2046002098470028FFF6AC
:1034B0005BAF044416B9002CFFF656AF5E4B1F6895
:1034C000AFB1697D99B10334002E2B7E009324F0B7
:1034D000030414BF20460020EB7DAA7DB8470028D6
:1034E000FFF642AF044416B9002CFFF63DAF0720AB
:1034F00000F0B8FE98B1A97989B10334002E24F008
:10350000030414BF20460020AA7E01F09FF9002882
:10351000FFF62AAF044416B9002CFFF625AF95F844
:103520002500B6FA86F77F09A0B1EB7F297F033427
:1035300024F00704194444F004043B462246C9B26F
:1035400001F0C6F90028FFF60FAF044416B9002CAD
:10355000FFF60AAF95F82610002959D00734002E3F
:1035600024F0070814BF404600202A8D0FF078FC95
:10357000041EFFF6F9AE444416B9002CFFF6F4AE73
:103580001EB1298D40460AF025FD95F8201000292E
:1035900040D095F82430002B3CD06A8C0734002EA4
:1035A00024F0070802F1240214BF4046002092B222
:1035B0000FF056FC041EFFF6D7AE444416B9002C9B
:1035C000FFF6D2AEAB7F297F95F82400033424F0B8
:1035D0000704194444F004043B462246C9B201F0F2
:1035E00069F90028FFF6C0AE044416B9002CFFF6B6
:1035F000BBAE3EB16A8C95F82010083292B24046BC
:103600000AF0EEFC2B6B5BB176B12C630020ADE6CB
:103610008846B5E7002EF5D0002211461046EFE7A8
:10362000002EF3D12046A1E62834FBD59CE600BF4E
:1036300024110020281100202C1100201FB572B683
:10364000184B5D6BE5B9BFF34F8F1749174BCA682D
:1036500002F4E0621343CB60BFF34F8F00BFFDE77E
:10366000B2FBF6F2DCB20133002AF9D104F1100307
:103670006B4403F80C2C0A2234B901A8A847E2E7EE
:10368000024600230A26EDE7631E04AEDCB256FABA
:1036900083F3B0FBF2F602FB1600303003F80C0C9B
:1036A0003046E9E7B022002000ED00E00400FA0512
:1036B00013B5114C637B8DF80130237B8DF80030FE
:1036C0006389ADF8043068462389ADF8023004F010
:1036D0001FFA18B1E8219C20FFF7B0FF207E04F00C
:1036E00047FA08B1EB21F6E7E07D04F03BFA08B1B8
:1036F000EC21F0E702B010BDB022002038B505463D
:1037000000283ED00EF0D0FA10B94FF0FF3038BD8F
:103710000BF0E4F8B0F5FA7FF7D81C4C1C48656351
:10372000002500F019FD2A222946A01C84F83850F3
:10373000257084F82C5025630EF04AFE1B2222814E
:10374000628140F2032240F20113A28103226380CE
:10375000A27301231F2223712282A3764FF40272E7
:10376000F7236282638444F60112FB23E2822385FD
:10377000EFF3108472B601F0BBF82CB962B62046A4
:10378000C5E76FF01500C2E72846C0E7B022002069
:10379000B136080038B51446002840F0B9805E4DB7
:1037A00095F83830032B00F0B080B1B112B96FF04A
:1037B000150038BD0139142900F2AA80DFE801F0B4
:1037C0000B1C1F345E67853A6A6D7F404654598BE7
:1037D0008E9C9FA294001378AB700020FFF7B6FD7B
:1037E0000028B7BF0123022385F838306FF00B00A3
:1037F000A8BF85F83830DCE71378EB70EDE7137974
:10380000002BD4D05379002BD1D01288FB2ACED8EC
:103810001A2A6388CBD91B3BE02BC8D82368AB603E
:103820003E4BA2889A80D8E713786A799342BED338
:103830002B71D2E713782A799342B8D86B71CCE711
:1038400013782A799342B2D86B75C6E71378002BA8
:10385000ADD05378013BDBB2F82BA8D81388EB82AC
:103860002F4B92789A70B8E71078687608F01AFCB7
:10387000B3E71378002B9AD0AB76AEE7012000F0C7
:10388000F1FC237808B1012B91D9AB73A5E713881C
:103890002B82A2E71378AB719FE7072000F0E2FCD0
:1038A00010B92378012B82D9072000F0DBFC18B176
:1038B0002378002B3FF47BAF2378EB748DE71378EC
:1038C000082B3FF674AF2B7587E71388FF2B3FF665
:1038D0006EAFAB7481E71378EB767EE713780E2B2F
:1038E0003FF665AF2B7778E723680E4A2B62636853
:1038F00053602389138170E713786B776DE7137832
:10390000EB776AE71378AB7767E74FF0FF3050E764
:103910006FF02C004DE700BFB0220020B82200203D
:10392000C6220020D0220020F8B50D46064630B34E
:1039300029B311F0070422D1124F97F83830012B28
:1039400002D16FF00B00F8BD032B02D14FF0FF3016
:10395000F9E700F08FF80028F8D02846FFF7F6FCCA
:103960000028EEDB12F08AF93046396B04F074F966
:10397000FFF79EFE032387F838302046E3E76FF019
:103980001500E0E7B022002010B5074C94F838305D
:10399000032B03D104F07CF905F0F4F90FF089FB57
:1039A000002084F8380010BDB022002050B1074B31
:1039B00003F1140253F8041B40F8041B9342F9D19D
:1039C000002070476FF01500704700BF74270D008E
:1039D00010B5074B93F838403CB904F007F90320C1
:1039E000044900F037FC204610BD4FF0FF30FBE7E4
:1039F000B02200202933080010B5074B93F8384057
:103A00003CB904F007F90220044900F023FC2046E9
:103A100010BD4FF0FF30FBE7B02200200533080057
:103A200010B5054B93F838401CB910F03DFA20460C
:103A300010BD4FF0FF30FBE7B022002010B5054B62
:103A400093F838401CB910F032FA204610BD4FF000
:103A5000FF30FBE7B0220020024B02681A60002012
:103A6000704700BFEC220020014B1B68184700BFC5
:103A7000EC220020024B1868003818BF0120704764
:103A8000EC220020F7B52E4E0446071D2C48376067
:103A900005F090F90228054606D1294920460EF086
:103AA0000CFE284603B0F0BD042842D13378092B20
:103AB0000AD0262B1ED03146204600F043F8B0F540
:103AC000817F2DD3722112E005213E200EF0C8FD2A
:103AD0000028F0D1F378327901A943EA022368463D
:103AE000ADF800300EF08CFF0028CFD05321082015
:103AF000FFF7A4FD1A213E200EF0B2FD0028DAD116
:103B00007368C3F30F23ADF804306946112301A88D
:103B10008DF806300EF08EFF0028B7D06521E6E75D
:103B20000028B3D0A17820780EF09AFD0028B8D1F3
:103B3000ACE70828B5D1024920460EF0EDFDB0E70C
:103B4000F02200202DE9F8430B78013B05460C4696
:103B5000832B00F29882DFE813F09A009E00A20007
:103B6000530196021B01210127012D013301370169
:103B7000390149014F0184009602A7009602AB006B
:103B80003D0143015D0163015701960269019602FF
:103B90007C01AC01B201B8019602BE01CA01D0019C
:103BA0009602FD010B023302110225022D021702BB
:103BB0001F026E0274028202880239023F025D0215
:103BC0004502960296029602960296029602960286
:103BD0009602960296029602960296029602960225
:103BE0009602960296029602960296029602960215
:103BF0009602960296029602960296029602960205
:103C000096029602960296029602960296029602F4
:103C100096029602960296029602960296029602E4
:103C200096029602960296029602960296029602D4
:103C300096029602960296029602960296029602C4
:103C400096029602960296029602960296029602B4
:103C50009602960296029602960296024B02510234
:103C600057020E23B1F803200B7042F283039A42ED
:103C700009D106236370667802363246214628460B
:103C80000EF012FC5AE03521C720FFF7D7FC0C23B9
:103C90000B700823EEE71A230B700123EAE73E239B
:103CA0000B700223A370E6E73E230B700B23F9E7AA
:103CB000292000F041FA28B13E23237022236370AB
:103CC0002923EFE70A2000F037FA3E2305F1080226
:103CD00004F108012B70A0B30A23AB70E378EB70FA
:103CE000A3882B71A3881B0A6B71A379AB71E3794D
:103CF000EB71A368AB608B889380D4F80E30C5F865
:103D00000E30638A6B8263696B61238B2B83638BB9
:103D1000AB76638B1B0AEB76A38B2B77A38B1B0AEB
:103D20006B77E38BAB77E38B1B0AEB7794F8203050
:103D300085F820301F226A70023296B23046BDE804
:103D4000F8830123AB70E378EB70A3882B71A38811
:103D50001B0A6B71A379AB71E37903F00103EB717B
:103D6000A368AB608B889380638BAB73638B1B0AF8
:103D7000EB73A38B2B74A38B1B0A6B74E38BAB7459
:103D8000E38B1B0AEB7494F820302B751322D2E7D7
:103D90003E230B7004234B70142383E73E230B70E8
:103DA0000C234B7004237DE73E230B700A234B70DA
:103DB000032377E73E230B700D234B70052371E738
:103DC00005232370042355E70823FAE730230B70FB
:103DD00003234FE73E230B700B234B70072361E750
:103DE0003E230B7006234B700C235BE713230B70F1
:103DF0008B789B0001333DE757230B70022339E793
:103E00003E230B700D234DE73E230B7001234B70B7
:103E1000112347E73E230B7006234B70122341E723
:103E20003E230B7009234B7013233BE73E230370A3
:103E3000242000F081F9002815BF24230E23132627
:103E40000F263246AB70A11CE81C0EF02DFB721C35
:103E500071E73E230370252000F06EF9C0B12523E1
:103E6000AB70D4F80230C5F80330D4F80630C5F88A
:103E700007306389A5F80B300A26F01CE27A04F1BA
:103E80000C0128440EF010FBE27A0132324452E772
:103E90000F23AB706388A5F8033023796B716379C6
:103EA000AB71A379EB71A37A2B72E37A6B7207265D
:103EB000E3E73E230B7003234B701023F2E63E230F
:103EC0000B7005234B702023ECE63E230B70092377
:103ED0004B702123E6E63E230370262000F02CF9E8
:103EE000002815BF2623182317261326A9E73E23EB
:103EF0000B7004234B702723D4E63E230370282342
:103F000083708146D1F8023049F8033F4FF0000832
:103F10004646AA795FFA88F39A4205D8721D92B292
:103F2000002A3FF4A8AE06E7B21D331DA118A2581F
:103F300049F8032009EB03008B88838047793A46D0
:103F40000637063106303E440EF0AEFAB6B208F13E
:103F50000108DEE73E230B702A2000F0EDF818B1CF
:103F60002B2363702A239DE61D236370192399E692
:103F70003E230B7007234B701A2393E63E230B70EE
:103F800014234B7022238DE63E230B700B7C5B00C9
:103F90000F334B701D2385E63E230B7003234B70BC
:103FA0001E237FE63E230B700B7D5B0013334B70AB
:103FB0001B2377E63E230B7003234B701C2371E613
:103FC0003E230B7005234B701F236BE6FF230B7002
:103FD0000B234B70A22365E6FF230B7005234B7068
:103FE000A3235FE6FF230B700D234B70802359E65C
:103FF000FF230B700D234B70822353E6FF230B70BE
:1040000002234B7083234DE6FF230B7004234B7078
:10401000842347E6FF23037081238370D1F80330A4
:10402000C21C03F1280153F8040B42F8040B8B4225
:10403000F9D129227FE63E230B700C234B702323FA
:1040400030E6124B1B78002B14BFFF233E230B706E
:104050004FF00E034B7014BF8523372322E63E2317
:104060000B700A234B7035231CE6084B1B78002B82
:1040700014BFFF233E230B704FF0FE034B7014BFA1
:1040800086232B230EE640F26221FDE5F423002077
:10409000074B4FF0FF3141F6FF72C3E900120549AB
:1040A0000022C1E900221F21C3E90212704700BFAC
:1040B000C0100020F82300203F280CD801380B4BFB
:1040C000C0F3421200F01F0053F8223023FA00F030
:1040D00000F001007047FF2806D04038C0F34212BC
:1040E000034B00F01F00EFE701207047C0100020D5
:1040F000F82300200146074B006849681A4603C2AE
:1041000040F48C221A6041F0107242F4FF625A604F
:10411000704700BFC01000200246024B0068516883
:1041200003C37047F82300200246024B0068516821
:1041300003C37047C81000200138064BC0F3421279
:1041400003EB820300F01F009B6823FA00F000F0ED
:1041500001007047C0100020014B1860704700BF7D
:104160000024002010B5FFF793FF0FF068F9034B10
:104170001B68044603B19847204610BD0024002068
:104180000B880288F0B5C3F30E049EB204F1180345
:10419000C57CC35A02352A442B4497B213FA82F3E2
:1041A000013B4288B3FBF7F313FB07439BB29A42F0
:1041B000044A93BF22EA0603324013439BB20B80AA
:1041C000F0BD00BF0080FFFF4A1E062A08B5034667
:1041D000084604D84FF4D1711520FFF72FFA094A89
:1041E000914202D940F2A311F6E711B903B1196067
:1041F00008BD2BB11B680022C3E901211A1D1A60FA
:104200000430F5E7FAFFFF7F10B5114B00EB4104D6
:104210001A786389B3FBF2F303FB0223013A1A44D1
:10422000B2F5706F027928BF00231A448378B2FB7D
:10423000F3F0194403FB1020091AB1FBF3F003FB60
:10424000101313446FEA43436FEA5343638110BD75
:1042500004240020024B03EB80035960704700BF29
:1042600004240020034B03EB80035868003818BF78
:1042700001207047042400202DE9F04F10F0070AB8
:1042800085B0054604D040F261111720FFF7D6F93A
:10429000554F07F14C06B1460446B0464FF0010BAE
:1042A00057F8043B8DF80BA03BB101A898479DF847
:1042B0000A30082B01D9E821E7E79DF80B1081BBF4
:1042C00005B13160B94506F10406E9D12DB3DFF837
:1042D0001CE100238EF800301E46122258F82200FE
:1042E000013A60B190F804A08178BAF1FF0F66D16D
:1042F0004FF000078E4207713CBFCEB20123511C24
:10430000ECD10BB18EF80060122640F6FF6A58F827
:104310002670002F65D1013EF9D2601B05B0BDE8C3
:10432000F08F9DF80AC0BCF1020FE64601F10502CC
:1043300038BF4FF0020E0EF1FF3004EB420404448C
:10434000CEF100002040BDF808406444013CCCF1AF
:10435000000C04EA0C04B4F5803F4FEA420301D399
:10436000F82192E775B1C31A336099701C8083F805
:1043700003B09DF80C201A71019A1A814FEA124C71
:10438000A3F806C004FB01049CE758F82C90B9F18F
:10439000000F06D099F804B0D34504BF99F80290F5
:1043A0004F440CF1FF3CBCF1000FEEDA3944FF2919
:1043B000A0D90BB18EF8006040F2271165E7944652
:1043C0000027F0E707EB41033846A3F80AA0FFF700
:1043D0001BFF09F10109BB785FFA89F18B42F1D823
:1043E00099E74FF00009F6E7082400200424002094
:1043F000F8B54FF6FF730380184B03EB81030546B6
:10440000186DB8B186780379B3FBF6F206FB123368
:10441000DBB219460A1D00EB4202B2F90270548861
:10442000002F09DB0131B1FBF6F206FB1211C9B214
:104430008B42EFD10020F8BDFF29FBD0C4F30E035F
:10444000C4782B8024B94FF4D5711720FFF7F6F804
:104450005380BDE8F8400EF0CDBC00BF042400201E
:104460001D4B03EB810370B51C6D054644B303047B
:1044700004D54FF4DC711720FFF7E0F80146204621
:104480000EF09AFCFF28014604D02046BDE870409B
:104490000EF0B0BCA078B5FBF0F300FB1353DBB219
:1044A00019460A1D04EB4206B6F90260002E09DB2C
:1044B0000131B1FBF0F200FB1211C9B28B42F0D115
:1044C000002070BDFF29FBD08B4204EB42021CBFD1
:1044D0000023E3705580D8E704240020094B03EB48
:1044E000810310B51C6D014620460EF065FCFF28C7
:1044F000014604D02046BDE810400EF07BBC0020F1
:1045000010BD00BF04240020F8B5104B03EB81035D
:1045100007461C6D014620460EF04EFCFF2805465E
:1045200011D0E688238953EA064606D00146204684
:104530000EF060FC01463846B04720462946FFF79A
:1045400063FE0020F8BD0520FCE700BF0424002026
:1045500038B50E4B827903EB82030446186D08B917
:10456000052038BD8278E1799142F9D24B1CE37184
:1045700000EB41035D89B3F90A30002BF3DBA58022
:104580000EF038FC20600020EBE700BF0424002080
:1045900070B5044610F003000E4603D04E211820DB
:1045A000FFF74CF8FFF710FE054624B103483146EB
:1045B0000460FFF709FE284670BD00BFA02400205C
:1045C0002DE9F14FDFF870B09DF828A09DF82C90F0
:1045D0001E46DBF8003007460D4690461BB96021A9
:1045E0001820FFF72BF85246092140460EF066FAD4
:1045F0004A4684B2092130460EF060FA14FA80F17E
:10460000DBF800000EF0ADFB386018B9286001B08F
:10461000BDE8F08F04442C603868534641460922B7
:104620000EF010FA28684B460922314601B0BDE869
:10463000F04F0EF007BA00BFA024002070B50E4660
:1046400004460EF04EFA054630460EF04AFA044B88
:104650002A1821461868BDE870400EF0A6BB00BFBE
:10466000A0240020014B18680EF06FBBA02400208E
:104670001F2AF8B5044613460ED89200033222F0E2
:104680000303B3F5803F2DD2184DACB1A00710D075
:104690005F210920FEF7D2FFFF2B4FEA420204D927
:1046A000FF339A42A8BF1A46E8E77C2AB8BF7C22AB
:1046B000E4E729706C602B8122F0030201EB810397
:1046C0001204D80001276B68120C0025EEB28E424E
:1046D00000D3F8BD14B126181F705E601044013578
:1046E0002833F3E74FF0FF30F3E700BFA4240020A6
:1046F00038B5144A147853680021C8B2844203D8EC
:10470000AB210920FEF79AFF1846013105782833BE
:10471000002DF2D000218170012412894470446878
:104720008161C161920800F12001051D21F8022B71
:10473000994245F8044B1444F8D1002343610370B7
:1047400038BD00BFA42400200A4B1B89B3F5FF7FAE
:104750004FEA930006D25A089B1A9BB2984238BF80
:1047600018467047B3F5EE6F01D8FF22F4E740F228
:104770007263F3E7A42400202DE9F8434B788046C8
:104780000C4602F0040602F0FB07D3B1DFB12E4B5A
:10479000D4F804901D89B7BB01236370AD08A761ED
:1047A000E76104F120034A46211D04F1280023F8A3
:1047B000025B984241F8042B2A44F8D1002363613C
:1047C00001E0002FE3D0FF23A370002E18BF0226C4
:1047D000A3191B7D032B03D1022F1CBF0136F6B298
:1047E000A31901221A7506F10C0204EB86060023B8
:1047F00024F812307268A370C8F80020A8F80430BA
:104800004046BDE8F883002114226170A0180DF025
:10481000DFFDB5F5FF7F0FD26B08ED1AADB209EBE6
:104820000502C4F804902584A2606384C4F80C9047
:10483000A5842261E384C6E7B5F5EE6F4FF0FF0370
:10484000EBD940F27265EAE7A42400202DE9F84391
:1048500005460C46F720052191460EF02FF9061E5D
:1048600022DB1DB914FB06F0BDE8F88315F0030741
:1048700003D098211920FEF7E1FEDFF83480C8F854
:104880001050A8F81460A5B2BBB29D42EAD9B8F89E
:1048900014C0D8F810004B4607FB0C000522F72186
:1048A0000EF0D0F80137EFE74FF0FF30DCE700BF44
:1048B000B824002007B5CDE900230B460349024682
:1048C000081D0EF0D0FB03B05DF804FBD0240020DF
:1048D00013B5064CCDE900230B46024604F108014E
:1048E00004F10C000EF0BFFB02B010BDD02400207C
:1048F000134B012200214FF0FF309A60C3F80012E1
:10490000C3F80803C3F80015C3F804259A60C3F878
:104910000803C3F80015C3F804250A490A4A03F539
:1049200080334FF40040C3F80825C1F88000BFF37E
:104930004F8FBFF36F8FC1F88001C3F80825704710
:1049400000F0004000E100E00000F63F8C46342318
:1049500000B50CF8033B054B8E4607CBCEF80300A1
:10496000CCF80410CCF808205DF804FBEC240020FF
:1049700010B5154C08F0FCFB07F024FD636A608C51
:1049800000219847237E9BB9104B628C93E803006B
:1049900005F03EF9E36A188805F064F8636B94F853
:1049A000301094F831009847002384F8383010BD57
:1049B00094E8070004F10C0383E80700044904F1BC
:1049C000190010F024F8DFE7E0240020082500207B
:1049D0004D490800034B93F8383003B97047FFF78F
:1049E000C7BF00BFE024002008B54FF48E61062049
:1049F000FEF724FE08B5094B93F83820022A07D1A8
:104A0000DA7A42F00102DA72BDE80840FFF7B0BF7F
:104A100040F231212720FEF711FE00BFE0240020E4
:104A200070B5354E96F8283005460BB1012825D0D3
:104A300001292AD8336C28469847044628B396F8AB
:104A4000303013BB96F8283013B31DBB96F84420C2
:104A5000D106C2F300152DD4B26CF16C1278C2F3FA
:104A6000001201B382F00104BBB1738F9A0715D510
:104A7000F36BDC78023C18BF012407E0738F180742
:104A8000D6D5F36BDB78022BD2D10124204670BD42
:104A9000012DDBD00024204670BD738F002BF4D194
:104AA000002DF3D0F6E7B6F850100029DAD0002B2D
:104AB000F3D0DAE7F16B0A7802F00302032A09D196
:104AC000CA78022A15D0706D0EF08BF896F828304F
:104AD0000546C1E7706D0EF084F838B903F008FBA5
:104AE00080F0010596F82830EDB2B5E796F8283049
:104AF000B2E70025B0E700BFE024002070B5294CE4
:104B0000E56AA26C95F89430A265064694F85C00BC
:104B10000BB10430C0B295F875100EB9FF2837D02C
:104B200008F056F895F8943063B3206E08F032FC24
:104B300094F82830D5F8F020216EA06D6267003B14
:104B400018BF012384F87C30D5F8F430A36707F050
:104B5000DDFB5EB995F875302A8F033B012B94BFBE
:104B600028200020104480B208F082FCA88E07F0B4
:104B7000F1FF95F87410002008F0E2FC022384F89D
:104B8000383070BDA06D08F005FC07F01BFCE0E7B5
:104B900095F874208A42C7D008F01AF895F8943036
:104BA000C2E700BFE02400202DE9F0473C4C94F818
:104BB0003830012B82B06CD1E56A5FFA83F9E36B80
:104BC00095F884201F7893F801A00646884607F0E0
:104BD000030772B1638F002143F00403638785F8F4
:104BE0008410636A0420984794F828300BB185F844
:104BF0008690032F33D0BAF1000F2CD0022385F812
:104C00008A3095F89430EBB1E36A94F8282093F851
:104C10007530003A18BF0122013BDBB284F87C20DA
:104C2000D5F8F0206267032BD5F8F420A26794F83A
:104C30005C2033D81B490020CB5C00901A4901202E
:104C400007F0EAFA16B9B8F1000F17D102B0BDE8C3
:104C5000F047FFF78DBE012385F88A30D1E795F83C
:104C60008A303BB9638FE16B43F002036387022014
:104C7000636A9847032385F88A30C2E73146304695
:104C8000FFF7CEFE0028E1D102B0BDE8F047FFF704
:104C900035BF40F2DC412720FEF7D0FCFFF7A4FE31
:104CA000E024002088270D004425002070B5804EA8
:104CB000F46A96F85C3094F8942082B000218DF864
:104CC00005100AB10433DBB294F8741010B9FF2B4D
:104CD00000F0B280FF2007F07BFF94F88A30032BAE
:104CE00000F2E180DFE803F0021C746496F8BA3049
:104CF000ADF806306F48A4F8643003F0D3F900280B
:104D000040F0A080706D0DF105020DF106010DF06F
:104D10000FFFF06320B194F8CF30002B00F0A78094
:104D20006548F06394F88B200378D20003F0030504
:104D300002F0080203F0F303134394F88C2092006E
:104D400002F00402134303F0EF03032D037051D16B
:104D5000C278022A06D0706D0DF043FF002851D1B1
:104D6000F06B0378037094F8933013B14378002B01
:104D70004DD108F00FFB07F025FB04F003F908B153
:104D8000032D70D0E08E07F0E5FE94F87510012039
:104D900008F0D6FBF36B494A18889978A6F84400C6
:104DA000012386F8BC30917086F8383002B070BDAF
:104DB000404803F077F9002870D0F06BC3781B2BC4
:104DC00014D1012104F1100007F040FFF06B0DE059
:104DD000B4F86430706DADF806300DF105020DF1D8
:104DE00006010DF0A5FEF063002852D0012386F8DD
:104DF000BB3097E7706D0DF0F4FE18B903F078F949
:104E00000028ADD1F06B037843F01003AAE7306EB1
:104E100008F0C0FA96F82830D4F8E820F16B306E2C
:104E20007267B3FA83F35B0986F87C30D4F8EC3010
:104E3000B36707F06BFAA0E794F875308B427FF404
:104E400049AF4AE7738FF16B726A43F480734FF492
:104E5000807073879047F06B012184F88510C378C8
:104E60001B2BC3D1AEE701200AF08CF88AE79DF82E
:104E7000053033B1BDF806204270012386F8BB30FF
:104E800050E703808370F06B01210FF00AFDF06B97
:104E9000F0E740F2D1212720FEF7D0FB40F2DB21E2
:104EA0002720FEF7CBFB40F2E9212720FEF7C6FBC7
:104EB000E02400201C250020682500202425002057
:104EC00070B50D4B0D4C0E4A1A6094F838301BB17A
:104ED000ED212720FEF7B2FB03F0FF0206460D4648
:104EE000227604F08DFE012104F188000FF0D9FC38
:104EF000A664256670BD00BF30110020E0240020AC
:104F00006C58080010B5074A92F8383013B10C24D9
:104F1000204610BD03F0FF04147604F071FE204615
:104F200010BD00BFE0240020024B012283F8BD2009
:104F3000704700BFE0240020F0B5BB4C85B002AD47
:104F400085E8030094F838000A9E002840F082812A
:104F5000002A00F07F81002B00F07C81002E00F001
:104F6000798100F0FF0184F8BD1084F8301084F8D6
:104F7000BE1084F8311084F8BC1084F8BB1061872F
:104F8000618495E80300236404F1280383E80300A7
:104F9000E56A6262666307F0B9FE07F013FA95F9F5
:104FA0007C0007F0E1FFA86A08F0D8F9286A07F04A
:104FB000E1FF95F8A40007F0E7FF94F82800002827
:104FC00000F0EF80E36A93F8C231002B40F0C1801B
:104FD00095F875209D21012008F0B6F8934B944E6A
:104FE000186808F0C1F96B69D5F8FC10D5F80021F4
:104FF000D5F8F8006365D5F80431AF69C4F8C0701E
:105000000FC6E36AD5F8081193F88E20C4F87D1016
:10501000D5F80C11C6F80D10A2F12601012910D9FE
:1050200093F88F1026290CD0213A012A40F2E6800D
:10503000242900F0C68093F87460032E08BF04266C
:1050400016E094F82820002A7CD093F89A2293F84E
:1050500074606AB1F31E012B40F2DD80D31E012B78
:1050600040F2D980012E03D0012A14BF0226012666
:1050700005F13C07314638460FF032FD31460FF05E
:105080005DF9B5F8483095F875100246934228BF8F
:105090001346384684F8BA300FF0EFFC95F87510D7
:1050A00095F89470B5F85060042908BF03210FF0FB
:1050B00045F90FB9043080B2B04228BF3046C6B2BD
:1050C00084F8C46003F05EFF002863D194F82800E0
:1050D00084F85C6000283FD195F89330EBB195F8E7
:1050E000743095F87E10D5F8E8206267013B0029FE
:1050F000DBB2D5F8EC20A2674FF0010118BF042005
:10510000032B84F87C1000F2AA804A4A0021D35C69
:105110000091FB22464907F07FF80120FFF7C6FD0A
:105120000023C4E90033A360AB6F2988B5F8880079
:1051300095F8A4206080218022710BB101221A60B1
:1051400005B0F0BD93F80A2293F87460002A81D16B
:105150008EE707F0C9FD3BE795F89430B3B195F8B9
:105160007530D5F8F020D5F8F410A167013BDBB21B
:105170000120032B626784F87C0070D82D49CB5C3A
:105180000021009132462A4907F046F80120FFF736
:10519000B5FCC5E703F0FCFEB04238BF3046C6B2EE
:1051A00094E795F87420234B03EB42039988224B34
:1051B00001F5FA71A3FB013189096E3107F0C4FFD3
:1051C0000CE794F82820002A3FF435AF93F82E21FD
:1051D00093F86D1093F8746002EA01035A071AD429
:1051E00013F001022AD19B077FF542AFF31EDBB219
:1051F000012B10D9012E18BF022639E72429E0D04F
:1052000094F82820002A3FF416AF93F82E2193F843
:105210007460500701D504262AE712F0010313D168
:1052200091077FF525AFE1E7E02400203011002051
:105230004425002088270D00D34D6210033E012E27
:105240008CBF1646042613E7033E012E8CBF1E4674
:1052500004260DE74FF4BE712720FEF7EFF9FFF7A4
:10526000C3FB00BF08B5124B93F8382092B193F8F6
:10527000282022B993F83830012B14D108BD93F8B7
:105280003820022A0AD1DB6AD3F8D801BDE80840E9
:1052900008F0BAB8BDE80840FFF76ABB40F2132136
:1052A0002720FEF7CBF940F20F212720FEF7C6F9A1
:1052B000E0240020FFF75CBB014B1876704700BF6D
:1052C000E0240020014B93F8BC007047E02400204C
:1052D000034B93F8BB0010B9588CC0F300307047F3
:1052E000E0240020024B588CC0F3C020704700BF60
:1052F000E0240020014B93F8BE007047E02400201A
:105300002DE9F0433B4CA56DE76A95F8018010F05C
:10531000010983B00E4635D00023800784F8C530DC
:105320001ED5E36C002B5AD0B4F8502018462946FD
:1053300003320DF0B9F80DF1020201A9A065D4F80D
:10534000C0000DF0F8FC01980DF0DBFC012230608C
:105350004146D4F8C0000DF083FCB9F1000F1BD01A
:10536000D7E93C3297F88C10013342F10002012951
:10537000C7E93C320CBF0023012387F88C3003B00F
:10538000BDE8F08394F8C530032B2DD8DFE803F097
:1053900024070202830718D403B0BDE8F083820714
:1053A000FAD5E36CDBB1B4F8502029460332184635
:1053B0000DF07AF80346D4F8C000A36500224146F8
:1053C00003B0BDE8F0430DF04BBCD4F8C00003B00F
:1053D000BDE8F0430DF0ABBC8107DDD5A1E740F29D
:1053E000CE412720FEF72AF940F27A412720FEF726
:1053F00025F900BFE02400202DE9F04FBC4C94F8C3
:105400003820E66A85B00023022ACDE9023340F055
:105410001B82638C884613F04001074606D1636AFD
:1054200040209847638C43F040036384A26D557815
:10543000002F00F0A98092F8009096F89430C9F3FC
:10544000C00B002B40F05C81A9B2A4F850100029D9
:1054500040F065810023E364638C96F88B10C9F3F8
:10546000800243F400739142638400F0F380D4F827
:105470002CA09AF88A20DAB1022A00F09C8194F8D4
:10548000283000218AF88A1023B19AF88630002B40
:1054900040F087819AF88530002B40F064819AF8BB
:1054A0008B30012B0CBF002301238AF88B30638CD7
:1054B00096F88C2043F400635A4563844FF0000A49
:1054C00009F0030900F0CE8003F05CFD05460028DA
:1054D00000F02F81B9F1030F00F03E8196F8933070
:1054E0004FF000094D46002B6CD1B8F1000F40F091
:1054F000908094F8BE100120FFF792FA002840F047
:105500008880B9F1000F40F0E680FFF7CFFBBAF1D9
:10551000000F09D094F82830002B40F0D180B4F867
:1055200009300133A4F80930002F00F08880B4F866
:10553000053000220133A4F8053084F8BE206D4800
:1055400004F07EFA029830B10DF0DBFBE16A002234
:10555000027203F073FC039B33B1E16A00221A72FA
:105560000C22039803F038FC002D6ED1638C1B06CF
:1055700007D4636A294680209847638C43F08003F0
:10558000638405B0BDE8F08F96F89420002A40F0BF
:10559000CC8043F48063638494F8BE30013384F894
:1055A000BE3096F87530033B012B39D903F0EAFC85
:1055B000002835D14FF000094D46CA4696F8933081
:1055C000002B92D094F8283096F87E20B3FA83F31B
:1055D0005B0984F87C3096F87430013B002ADBB21A
:1055E000D6F8E820626718BF0420D6F8EC20A2673E
:1055F00008BF0020032B00F22C813F4A3F49D35CB7
:1056000000220092FB2206F007FEB8F1000F3FF4E3
:1056100070AF07F0E9FFB9F1000F4BD1012576E734
:10562000012009F0AFFC07F0A5FA0428C2D11B2D18
:105630004FF0000994BF00250125CA46BEE7B4F823
:1056400007300133A4F8073079E7FFF791F905B087
:10565000BDE8F08F96F88C205A45BA4609F0030948
:105660007FF432AFB9F1030FD4F82CB063D143F417
:1056700080536384638FA16D43F00103012063872E
:105680008BF88400636A98479BF88C30013B18BF05
:1056900001238BF88C30002D3FF416AFDBF8F0308F
:1056A0000133CBF8F030DBF8F43043F10003CBF8F2
:1056B000F43009E703A903204D46FFF721FE26E752
:1056C000B4F80530B4F80710B6F888200B4313433C
:1056D0003FF42AAF23E703A90120FFF711FE40465C
:1056E000FFF7E4FA03A90220FFF70AFE0FE700BF65
:1056F000E02400200825002088270D0044250020F4
:1057000006F07CFE00287FF49FAE002D46D096F870
:105710008C305B4500F08480A9B2A4F85010D4F816
:10572000C0000DF07FFAE06496E606F0A7FE638CF9
:105730002FE7814642E7B9F1000FA5D0002D4CD1EB
:105740009BF88C30013B18BF0123A9468BF88C30A5
:1057500003F018FC002531E701204FF0000909F0A3
:1057600011FC4D462AE700218AF8851002F0AAFCB8
:105770000021002874D0638F43F00803638708205A
:10578000636A9847DAF8E8300133CAF8E830DAF8A3
:10579000EC3043F10003CAF8EC3080E6A4F8505036
:1057A00058E6638F8AF8861043F010036387102051
:1057B000636A98476EE6606D02A90DF0DCF9002877
:1057C00049D0DAF8E8300133CAF8E830DAF8EC30DA
:1057D00043F10003CAF8EC3051E643F4805363848C
:1057E0009BF894B007F0C6F9042894F8C43007D1A8
:1057F000BBF1000F14BF1B221F22934228BF134688
:105800009D4213D8E36C002B3FF45EAE94F8BD309C
:10581000C3B1636A0021202098474FF0000997E741
:10582000012384F83130FFF7A3F8AAE694F830306A
:10583000012043F0100384F830304FF0000909F0E4
:10584000A1FB85E7B94683E740F25F512720FDF7CA
:10585000F5FEFFF7C9F840F214412720FDF7EEFEF0
:1058600040F22B412720FDF7E9FE00BFF549080073
:10587000F9530800A94B0800D549080008B540F2C3
:10588000FB310620FDF7DAFE2DE9F843002800F091
:10589000E1800446072900F2D380DFE801F0AB2461
:1058A00024A7D11F9ECD014620460FF0FAFED4F862
:1058B000443100F1E5059D4240F2C780E81A3228E4
:1058C00038BF322003210BF05BFEC4F8445106467A
:1058D00020460FF0B0FF002E00F09D802046BDE86E
:1058E000F8430FF0A9BF0FF01DFFD4F814210023D7
:1058F00005460E4684F8403184F84931BAB150EA81
:10590000010314D0CA00C3001B1A42EA507262EBB2
:105910000102D4F830115B18D4F8341142EB0102C3
:10592000D4E95401834272EB0103C0F09180022359
:1059300004F5A07784F8483138460AF0F1FF0028D2
:1059400000F08C8094F8603103F0FF01002B6BD1E4
:10595000D4E956026FF000439A4208BFB0F1FF3F0E
:1059600013D02046D4E954980FF09BFED4F8583158
:10597000D4F85C21B3EB090300F1E50062EB080207
:105980001B1A62F10002002A4BDB94F81001394621
:105990000BF0B8F800286BD0D4E95401D4E94A32AE
:1059A000834272EB01071FD255EA06071CD0C01ACA
:1059B00061EB020133462A460CF06CFC05FB01F357
:1059C000D4E94A2100FB0636A5FB005355193344A0
:1059D00043EB0103C4E94A5306E090F810010AF0D2
:1059E00079FF002384F83831BDE8F883BDE8F84337
:1059F00007F00EBE05F0DEF8D4F84401CB380BF00A
:105A0000EFFC80B320460FF0CDFE00283FF44BAFF3
:105A100020460FF010FFD4E95423C4E94C23BDE81D
:105A2000F883204605F0CEF894F810010AF052FFF2
:105A3000002384F83831AFE7FF213020FDF7FEFD69
:105A400040F203113020FDF7F9FDC4F84451DFE7BF
:105A500001236DE7E2213020FDF7F0FD40F2A46163
:105A60003020FDF7EBFD40F25D213020FDF7E6FD33
:105A70004FF4D5613020FDF7E1FD00BF2DE9F04F77
:105A800004468BB04FF00008029390F875B0CDF843
:105A900018800E4615460EF066FA94F8C3310B2BAB
:105AA00000F21884BD4F37F8139094F88F304844B3
:105AB000442B1FFA80F914D094F88E20442A10D079
:105AC000A3F10E02B2FA82F252090392002D40F0C5
:105AD000BD8294F80422032A00F00E83012304936C
:105AE00006E0002D00F08B800123CDF81080039399
:105AF000B4F85052B4F888A0751B2DB2A6EB0A0A70
:105B0000002D0FFA8AFA04F50878C0F29582029BFC
:105B1000A34A127802F0FF005AB9074694F804220B
:105B2000032A00F2F383DFE812F041010001C7010C
:105B30007300059308F0C6FE059B0028EDD0B4F86D
:105B4000F021012A40F2288394F80422022A00F06E
:105B5000238394F81A02002840F01E8394F87E20D4
:105B6000002ADAD194F8C3210B2A00F2B38337F864
:105B7000129094F8042209F5C869012A1FFA89F9DC
:105B800040F0608394F89220032A40F09683D4F882
:105B9000FC01E76A07444946059308F057FE0246B0
:105BA0003846D4F8F871C4F8F821D21BD4F8007242
:105BB000494602FB07F708F049FED4F80822C4F86A
:105BC0000802801A07444946E06908F03FFE94F84D
:105BD0007E20059B02B10230B4F8DC21D4F800121B
:105BE0005244C943521B0A44D4F80C12C4F80C02A4
:105BF000401A00FB0277012284F81A228EE794F8FB
:105C00000432032B00F07D820123CDE903336FE7DB
:105C1000E169029801FB05F2002800F01A82B4F84D
:105C2000DC01002840F0158284F81B02D4F80CC275
:105C30000CFB152594F88E200695262A00F0AE82DE
:105C400094F88F20262A00F0A982002B3BD0D0BBED
:105C5000D4E98E23D4F84012D4F844E28A4273EB9C
:105C60000E0380F0488394F87530DA1E012A40F262
:105C7000DC82184607F046FFDFF82891D4F840127E
:105C800000F5234E0EF1A10EA9FB0E3ED4E98E23A2
:105C900094F875008439A0F1030C8A1A1544BCF1FC
:105CA000010FA5EB9E1540F22B8307F02BFF00F2AE
:105CB000E731A9FB0131B4F8DC01D4F80CC2890941
:105CC0002944103906918244ABF103030CFB0AFA14
:105CD000DBB20AF1300A012B4FEA4A0A40F2A282F3
:105CE000584607F00FFF2F4B00F52340A130A3FBD0
:105CF00000304FEA9019584607F0FCFE0AF174058F
:105D0000274B4D442844586094F87E30002B42D0F5
:105D1000254AE069514606AB0EF055FB204B84F84E
:105D20001B02069A5868E1692EE1D4F80C02E26978
:105D3000D4F80832D4F80012B4F8DC9194F875B0B5
:105D4000121A02FB05F5D4F8F82106953033CA443F
:105D500002FB0139C943258E8A44ABF1030300FBE2
:105D60000A99012B4FEA490905F1740540F2B981FE
:105D7000584607F0C7FE0B4B00F52340A130A3FBAC
:105D800000304FEA901A584607F0B4FE4D44044BD9
:105D9000554428445860069A8CE000BF9C270D00AB
:105DA000A8250020D34D6210AC25002094F8751072
:105DB00094F8D6010EF0EAFA0546E06A494628440E
:105DC00008F044FD4946C4F80802E06908F03EFDC9
:105DD00094F87E30002B40F0DD81C4F80C0207A956
:105DE00008A807F009FC079B0093D4E99201DDE9BC
:105DF00008230BF03FFE94F8753005938146184652
:105E000007F080FE059BDFF8E8A2033B00F55F404A
:105E1000012B00F1410094BF28210021AAFB003092
:105E200001EB90118031012220460EF0B7FED4F82C
:105E30005432E26A94F875000693059207F062FE08
:105E40004AF2A13B5844AAFB0031069B059AA3F1F4
:105E50009400D4F808321044C01A2844A0EB09007A
:105E600003F1300994F87530258EDA1EA0EB9110FD
:105E7000012A06904FEA490905F1960540F22E8164
:105E80001846059307F03EFE8344AAFB0B3A059B98
:105E90004FEA9A1A184607F02DFE4D44954B069A84
:105EA000554428445860D4F85432D31AB3F5917F3E
:105EB000C0F01782E16967E0E36AD4F8FC01494663
:105EC000184408F0C3FC4946C4F80802E06908F029
:105ED000BDFC94F87E30002B40F05A8194F8759008
:105EE000C4F80C02484607F00DFE814D00F55F40F6
:105EF000A9F10309B9F1010F00F14100A5FB003040
:105F000094BF2821002101EB90118031012220460D
:105F10000EF044FEB4F8DC31002B00F0A280D4F87F
:105F2000FC31E26AD4F8080294F875A013441B1AF5
:105F3000AAF103010693C9B2D4F8F831D4F80022CB
:105F4000B4F8309002FB0305303501294FEA4505CE
:105F500009F1740940F2C880504607F0D3FD644B44
:105F600000F52340A130A3FB00304FEA901B5046C0
:105F700007F0C0FD4D445F4B069AE1695D4428443B
:105F80005860012384F80432D4F80C526FF4AD73D6
:105F90004D1B1D44D21BD4F84872D4F84C320692E3
:105FA000854228BF0546BA1843F10003C4F83432CD
:105FB0000023C4F8D851C4F8302284F8203204F108
:105FC0003C000EF058FDD4E98C230544C4E992232B
:105FD000C4F82452A4F8506205F02AFA20B1D4F88B
:105FE00024321E33C4F82432B4F8C811039A8E1B2D
:105FF000002336B29E4284F82832C4BF022384F8BC
:106000002832002A40F0D680029A002A40F0D6803A
:1060100094F80432002B40F0F28094F81C024146C0
:106020000AF070FD002800F05781049B84F81832B4
:1060300000200BB0BDE8F08FD4E98E01002384F876
:106040001B32C4E992015546012361E5CDF8108069
:106050004EE594F81B02002800F0E180254B5868BB
:1060600092E7029B002B3FF45AAFD4F8FC31E26A6E
:1060700094F8750003EB020B07F044FD00F5234094
:10608000A130A5FB00304FEA9019D4F80802D4F8EB
:10609000402294F875A0ABF1940BABEB000B93444A
:1060A000AAF10301D4E98E23C9B20129ABEB020B9B
:1060B00040F2C480504607F025FD94F875A000F228
:1060C000E732A5FB0235AAF10301D4F80802AD09B5
:1060D000C9B2ABEB09022A4406922DE74FF0650ADC
:1060E000D8E64FF0650A4EE64FF0650B3FE700BF7C
:1060F000D34D6210A82500200E2B18BF03957FF406
:10610000EDACB4F89832B3427FF47EADB4F85232BD
:10611000B4F8DC211344C4F80032D4F80C32C4F8CB
:10612000F831E369C4F8FC31204605F039FF94F8F2
:10613000AC32002B40F0A880D4F8A052E26995421E
:1061400004D020880FF076FDD4F8A02294F87E3099
:10615000002B00F08D8041F64B539D4240F28D8024
:1061600000234FF096112387616384F87E30D4F8C2
:106170009C32E362B4F89A322386D4F8A432636284
:10618000022384F804320123CDE90333E261AFE452
:106190000230A3E6023020E60027BFE4B4F89822DC
:1061A000B21A12043FF551AD94F89B22002A18BF91
:1061B00093464AE5029A002A3FF42FAFB4F8F02143
:1061C000D2B1B4F8F20194F8F41100FB01118A4243
:1061D00000F101007FF721AF002B3FF41EAF002339
:1061E00084F82832A4F8F20102F0D8FE00F007008B
:1061F000013084F8F40110E7A4F8F2210DE7E16919
:10620000D4F80C324046C91A0EF067F880B2002864
:106210003FF403AF149B9BB11880012009E7B4F849
:10622000DC0103E54FF0650965E5D4E98E23A1F1B2
:10623000E90EAEEB020E3C21754441E53C2548E7F2
:106240000120F6E6E0690593494608F0FFFA94F864
:106250007E20059B02B10230B4F8DC71D4F80C2228
:10626000C4F80C0257447F1B821A02FB07F7C2E4F2
:1062700041F64B518D423FF678AF4FF04D136363BB
:1062800000232387012370E720880FF0D0FC68B338
:10629000B4F89822B4F8A812618694F87E30B4F865
:1062A000AA124281013A02820022C2818181D4F87D
:1062B000A022002B7FF454AF57E794F8751094F8A0
:1062C000D601E76A05930EF061F8059B0744D4F800
:1062D000FC0160E4FFF7D2FA40F293513020FDF761
:1062E000ADF940F2DE413020FDF7A8F940F23E71F1
:1062F0003020FDF7A3F940F232513020FDF79EF92E
:10630000B4F8DC01D4F80CC23C21D9E440F24A5183
:106310003020FDF793F900BFF0B585B0002800F0FC
:1063200010810446072900F2F380DFE811F09500A0
:10633000080008007E00F10083008B00ED000FF0E4
:106340008AFED4E98E23801A61EB0301012871F1E2
:106350000003C0F2FF806FF00102002382428B41F4
:10636000C0F20181E3690BB1B0FBF3F394F88F2025
:10637000442A00F09B800E2A94F88E1000F096803C
:106380004339012940F29280B4F88810B4F81622FB
:106390000B449BB2D11A090400F1C880531C9BB274
:1063A000A4F8163294F81932B4F81612002B00F043
:1063B000B380B4F8C200B4F888306D4FB4F85222FC
:1063C0000344B4F8C000013B1B1A9EB23B68013283
:1063D000A4F8522202AD53B1013989B200222046FD
:1063E0009847B4F81612014489B2A4F81612731A29
:1063F0001B0462D4002300951A462046FFF73EFB9B
:1064000040B3012840F0A180B4F81612B4F8C831A6
:10641000CA1A10046ED4BDF80830194489B23B681A
:10642000A4F81612002BD7D1E1E705B0BDE8F04083
:1064300007F0EEB8012008F0A5FD05B0BDE8F0407A
:10644000FEF738BF90F80432042B40F08880002318
:1064500080F8043205B0F0BD90F81832D3B1B0F82E
:106460001622B0F888309A4263D0D31AA0F8CE3101
:10647000A0F88820D4E98C232046C4E98E2305F0B7
:10648000AFFC94F8D331002BE4D005B0BDE8F04068
:106490000FF056BBB0F81432B0F88810B0F81422E0
:1064A000A0F888205B1AA0F8CE31E3E7B4F8161202
:1064B000013189B2A4F816127BE794F89220039474
:1064C000002A0CBF3E220822012384F8B12028466E
:1064D0008DF8083003F072F820460FF033FB0023EC
:1064E00084F8043294F81C020AF0F4F9202384F8AA
:1064F0001C32AFE7BDF80820114489B2721A12F4B9
:10650000004F18BF19468AE7D6213020FDF796F8CC
:10651000DA213020FDF792F8B4F8CC318B427FF4C9
:1065200048AF013189B2A4F8161242E701339BB299
:1065300036E7B0F8CC31A0F888309B1AA0F8CE31FD
:1065400098E7AA213020FDF779F840F276613020F3
:10655000FDF774F840F21E613020FDF76FF8D0218E
:106560003020FDF76BF840F21F613020FDF766F830
:10657000341100202DE9F043D0F814310026D0E981
:10658000548983B080F8186105460F4683F8D621F8
:1065900080F838610121D0F8140102F011F9D5F822
:1065A0001441C4E98E8995F8103184F81C32C4E98D
:1065B0009289C4F8547284F80462A4F85062334695
:1065C0000096324631462046FFF758FAD0B90123EB
:1065D00084F80432C4F80002C4F8F801A4F81602E2
:1065E000A4F8140284F81902B4F88830A4F852020E
:1065F000013BA4F8883006F05BFE03B0BDE8F04331
:1066000009F052BF40F2FF113020FDF717F800BF2C
:10661000D0F81401704700BF2DE9F04385B0002386
:106620000322CDE90033FF268DF806206846FDF7EA
:106630008FFF044620BB009D95F83831002BF5D024
:1066400085F86061012128460FF0F8F895F8383197
:10665000002BEBD095F810010AF0A6FC95F810017C
:106660000BF0C6F895F810010AF034F9002840D074
:1066700085F838416846FDF76BFF04460028DAD0FC
:10668000DFF88480012388F80830002502264FF6C1
:10669000FF771EE0029B03B393F81C22202A1CD034
:1066A0001888B8421FD00221FDF718FF814628B391
:1066B00090F81C020AF078FC99F81C020BF098F88C
:1066C00099F81C0289F804420AF004F9202389F899
:1066D0001C32CDE902558DF80E6002A8FDF738FF97
:1066E00004460028D6D0002388F8083005B0BDE85D
:1066F000F08340F2EB113020FCF7A0FF4FF49B71C8
:106700003020FCF79BFF00BFA8250020054B00228E
:10671000012142F210705A72588119701A72FFF7F3
:106720007BBF00BFA82500202DE9F84390F8383141
:10673000002B77D10446884601465648154603F09B
:10674000FF070AF093F8202806466BD058223946F6
:1067500004F588700BF03CFE84F81061C4F81481D5
:10676000FF2384F83831B8F1000F06D002F02EFC78
:1067700000F00700013088F8F40102234FF0000810
:10678000A4F8483184F8408108F0B2F800F19E0680
:106790002046B6B20FF006F8002847D00DF0E3FB14
:1067A00000F5CD6189B2284608F050F82844C4F8B5
:1067B00044010FF050FC301841F100014FF0010985
:1067C000C4F85001A4F82680C4F8541184F8189134
:1067D00020460EF0FDFF002846D0494620460EF028
:1067E00060FF6FF49C631D442D1AC4F81C514FF0D8
:1067F000FF326FF00043C4E9562394F8100104F50A
:10680000A0710AF07FF900283FD0D4E95423204634
:10681000C4E94A23C4E94C2300210FF00FF838469D
:10682000BDE8F8830C273846BDE8F88301462046CA
:106830000EF037FFDFF86080E530C4F84401B8F8A7
:106840000A0008B1E08CB8B906440FF004FC361811
:1068500041F10001C4E95461002DC8D0AE1941F1E5
:106860000001C4E95661C8E748460FF08CF8E53DE1
:106870002D1AC4F81C51BAE702F0A8FBB8F80A3088
:10688000B0FBF3F202FB1300DEE740F2CD11302043
:10689000FCF7D4FE89580800A825002090F838316C
:1068A0000BB90020704710B50446FF2380F8603113
:1068B00001210EF0C3FF94F838310BB9002010BD50
:1068C00094F810010AF070FB94F810010AF090FFA0
:1068D00094F8100109F0FEFF20B1002384F838314C
:1068E000002010BD40F2EB113020FCF7A7FE00BFE6
:1068F000014B5872704700BFA825002090F8602116
:1069000082B910B502F0FF0490F8182112B90122E3
:10691000104610BDD0E947319942F9D904F052F937
:106920002246F5E700221046704700BF08B506F082
:1069300027F9044BDA6882422ABF187A002080F0D7
:10694000010008BDA825002008B540F2FF110EF097
:106950002EF9B0F5296F28BF4FF4296080B208BD29
:1069600090F8D331002B75D1F0B503F0FF0590F806
:106970000432032B85B0044601D005B0F0BD0FF002
:106980006AFBD4E98E23801A61EB0301012871F1BF
:106990000003F2DB6FF00103834275EB01035CDB64
:1069A000E369B4F88820002B55D0B0FBF3F080B237
:1069B000531C184480B2A4F81402B4F81422B4F89A
:1069C000CC319B1A1BB2002BD7DD94F81C020AF0C5
:1069D000EBFA0028D1D0FF2384F81932B4F888509C
:1069E000B4F8C220B4F8C030214F1544013DED1A6F
:1069F0003B68ADB20DF10E066BB1B4F8141201395B
:106A000089B2002220469847B4F8143210FA83F372
:106A10009BB2A4F81432B4F81432EB1A1B04ACD4B1
:106A2000B4F81412009689B2002301222046FFF721
:106A300025F80028A1D0012814D1B4F81432BDF8EB
:106A40000E2012FA83F39BB2A4F814323B68002B99
:106A5000D3D1E0E770471846AAE740F2C75130208B
:106A6000FCF7ECFD40F20E613020FCF7E7FD00BFC3
:106A7000341100202DE9F043044683B0062900F2CA
:106A80002B81DFE801F0042613232C338C00D0E99E
:106A90008E23D0E9900182428B41C0F0B180914BAE
:106AA0001B7A03F0FF02002B00F09B80042384F884
:106AB000043206F0FDFB09F0F7FCB4F88820A4F8D6
:106AC00016220023A4F8523284F8193203B0BDE82C
:106AD000F083032380F8043203B0BDE8F08306F0AE
:106AE00057F8C4E9900103B0BDE8F0830088112194
:106AF000FDF7F4FC94F87530002800F0DC80022BE0
:106B000000F0D78066D8012B08BF0A3040F0DE8045
:106B1000808840F24517874234BFC01B0020D4F85C
:106B20000C52E369DFF8BC912A18934284BF5B1BC7
:106B30001D1A99F8093098BF00251BB9E36B9D42D7
:106B400028BF1D4604F13C00D4F8D8610DF093FF36
:106B500006EB000802200AF0ABFCA5EB080525EACD
:106B6000E575854228BF0546022128460AF008FD42
:106B700000B9A84401233A46414620460DF0FDFFE6
:106B8000E269D4F8D831C9F80C00D0180AF028FC12
:106B900000289BD140F28A313020FCF74FFD90F85D
:106BA0007550284606F0AEFF033D4F4900F55F40A3
:106BB000012D00F14100A1FB003094BF28210021EC
:106BC00001EB901101228031204603B0BDE8F04373
:106BD0000DF0E4BF033B012B78D8408C40F26D17D9
:106BE00099E7B4F8CC11009201232046FEF746FF46
:106BF00000283FF45EAF40F2DC613020FCF71EFD60
:106C000094F81A32002B3FF44AAF94F80432032B65
:106C10007FF445AF94F875800DF0A5F994F8C33171
:106C20000B2B57D8314AD4F8406232F81330D4F8DD
:106C3000D891C51803F5C8639FB2D4E98E234046A6
:106C4000B61A06F057FFA8F10302012AADB2A9EB6C
:106C5000000939D9404606F055FF234B00F5234281
:106C6000A132A3FB02239B09A9EB0303A3F1740246
:106C70005208D43B9D3205FB03F3B3FBF7F36033BB
:106C8000A2EB53018E424FEA530302D313449E42B8
:106C900001D907F01DFEE069294607F0D7FD94F8F9
:106CA0007E3003B102300023C4F80C0284F81A329B
:106CB000F5E614302CE740F26D17033B40F2451225
:106CC000012B88BF17462AE76523CDE7CD21B420E5
:106CD000FCF7B4FCFEF7D2FD4FF4F3613020FCF773
:106CE000ADFC00BFA8250020D34D62109C270D00ED
:106CF000012A70B5064609D0022A14460D461ED058
:106D00004AB140F2C2713020FCF798FC05F038FF20
:106D1000C6F8540270BD05F033FF224601462846EE
:106D2000FFF728FC0F4995F81001324608F01AF9D0
:106D30000028EFD140F2AB713020FCF77FFCD0F897
:106D4000541201222846FFF715FC064995F8100158
:106D5000324608F007F90028DCD140F2BC7130203F
:106D6000FCF76CFC19630800F8B5044651B1012921
:106D70005BD1002380F8183106F09AFABDE8F8409C
:106D800009F092BBC58C002D47D12046D4E94A7644
:106D90000EF0C8FC401941F10001C01946EB010199
:106DA00000220223C4E95401C4E94A0184F84021C5
:106DB000A4F8483194F8603103F0FF01002BDBD1D7
:106DC000D4E956026FF000439A4208BFB0F1FF3F8A
:106DD0000CD194F8100104F5A07109F093FE00287D
:106DE000CAD140F2FB613020FCF728FC2046D4E9F0
:106DF00054560EF056FCD4F85831D4F85C215B1B85
:106E000000F1E50062EB06021B1A62F10002002AA3
:106E1000DFDA204603F0D6FEAEE702F0BFF8E58CDD
:106E2000B0FBF5F303FB1505AFE740F2D27130205C
:106E3000FCF704FC90F83801003818BF01207047B7
:106E4000014B5881704700BFA825002010B582B0C3
:106E5000002301220193044600938DF8062002E0EE
:106E6000009B83F858406846FDF772FB0028F7D076
:106E700002B010BD08B501210020FDF72FFB10B1B5
:106E800090F9580008BD40F63F013220FCF7D6FBD0
:106E900090F85430590702460DD413F0030000D186
:106EA000704792F8550000F0FD00A0F10100B0FA23
:106EB00080F04009704790F85600A0F10100B0FA48
:106EC00080F04009704700BF08B501210020FDF7A0
:106ED00005FB28B190F89400003818BF012008BDC8
:106EE00040F645313220FCF7A9FB00BF343270B5C3
:106EF00092B205460C461E460BF0B2FF25B1034B7D
:106F00001D601C745E741C7170BD00BFD025002014
:106F1000014B1870704700BFD110002090F86C0032
:106F2000003818BF01207047014B5870704700BFF0
:106F3000E8250020F0B5070CA7F5AA42144B543AF7
:106F4000012A03EA90231FD927F4004042F6AA221F
:106F5000801A18BF01200022162116461F2487EA36
:106F6000060562EA0505013510D0DD03ADB245EA3C
:106F70005606E503ADB2013945EA52024FEA530322
:106F80004FEA5404EBD1F0BD0020E4E70020FAE71B
:106F9000E0FF3F00F8B58D1FADB240F67A4C654575
:106FA0000746BDF824601046BDF818203BD8841F62
:106FB000A4B264458CBF002401242546AFBB1D4FFD
:106FC0003F796FB15CB96FF450654D19062D06D845
:106FD0006FF450640419062C8CBF0024012425464C
:106FE000FDB1814224D803FB0666B6F5FA7F1FDCAB
:106FF000A2F10A039BB240F67644A34218D80CF0E3
:1070000060F842F210735A4300FB06F1B2EB410FF5
:107010000ED9BDF81C50BDF8200085428CBF00255C
:1070200001252846F8BD0024C7E797F87D70C8E71A
:107030000025F6E7982600202DE9F3410023CDE94D
:10704000003304460E46174600F10A086846FDF76D
:107050007FFA08B1002015E0009DA542F6D0304629
:107060000CF029F8EB1CAA7839460DF0C4F800287A
:10707000ECD06A7A607A05F10A0341460DF0BBF85C
:107080000028E3D002B0BDE8F0810000054A1346B5
:1070900092F8202053F8211B11F8030BC0F3801045
:1070A0000DF0A9B8E02B00200138C0B2032808B5C4
:1070B00004D940F249310620FCF7C0FA014B185CB4
:1070C00008BD00BF6C280D000138C0B2032808B508
:1070D00004D940F249310620FCF7B0FA014B185CA4
:1070E00008BD00BFDC280D000138C0B2032808B578
:1070F00004D940F249310620FCF7A0FA014B185C94
:1071000008BD00BFCA290D00F7B5114B9C7EDD7E7E
:107110009F8B064614B900F021FE0446A5B900F085
:107120001DFE054614B9092003B0F0BD0028FAD0B1
:10713000304601A98DF804408DF80550ADF8067071
:107140000DF020F90020EFE7002CF1D1EBE700BFB4
:107150002C2B002010B503210020FDF7BFF90446B9
:1071600070B90321FDF77CF9044620B940F2913152
:107170003920FCF763FA034B93F960100EF04BFAD9
:10718000204610BD9826002038B50DF033F801F0E8
:1071900059F900F0F1FD0DF012FC01F0C7FB02F00F
:1071A000BFFC01F0EBFB012000F08EFD1A4B1B4AE7
:1071B0001B4C00251D601B4BA4F854501A601B2269
:1071C0009A805D839D839D771D76174BA576F92266
:1071D00058682283154A1B892260E06129461422DF
:1071E00004F124002384A580A5750BF0F1F8012398
:1071F00004F13A0042F21072C4E90A2284F8243001
:1072000084F8393084F856500EF007FD04F144003C
:10721000BDE838400EF026BD3811002003021B00E7
:10722000982600202C2B00206C280D001B00480104
:10723000044B41F64C521B21C3E9022219745A61D6
:10724000FFF7A2BF2C2B002073B53B4DAB68C36387
:107250003A4B1B79003B18BF012380F87D30384B37
:10726000C3610446FFF770FB064600F071FD2B7CFE
:1072700084F84430334BA4F8466010F0200F1B68AC
:107280001DBFAA886988A4F866101B2208BFA4F84D
:107290006620A4F868201BB194F97C1020889847D8
:1072A000294B1B6813B12949208898472046FFF7CE
:1072B0002BFF064650B120880221FDF725F9002852
:1072C00036D040F224613920FCF7B8F901236386F7
:1072D0001F4B1B6813B10146208898471D4B1B6844
:1072E00013B12088002198471B4B1B680BB12088E5
:1072F00098471A4B1B680BB120889847AB886A885F
:107300006978019103332978009103329BB292B2DC
:1073100004F1180104F11400FDF752F9636913B97F
:1073200040F24E61CFE7A3691BB940F24F61CAE753
:107330000926304602B070BD2C2B00209826002074
:1073400000093D004811002040110020A026002027
:107350005C11002050110020541100205811002011
:107360002DE9F34105460E460EF096F9002800F08F
:10737000AF8028460EF016FA30B1B6F80130013B66
:107380007F2B01D9122404E028460EF00FFA20B911
:107390000C24204602B0BDE8F0812846FFF74AFDE4
:1073A0000028F5D128460EF020F980460028EFD1BC
:1073B000284603F05BF90028E4D0B6F80170F178B4
:1073C00042F2107328465F430EF0D5F9042130785D
:1073D000FDF784F8062104463078FDF77FF8002C8D
:1073E00078D038B141F67D313920FCF727F990F893
:1073F000BD800446414E3368002B6DD0403420469A
:107400000DF084FE002867D020460DF073FE0028A2
:1074100062D1B8F1000F08D0394B20461B6898475D
:10742000002859D041F69131DEE736493368496981
:1074300042462046984700284ED041F69631D3E781
:1074400028460EF0AFF940B902210DF10600FCF715
:10745000CFFF064658B90D249BE728460EF0B4F935
:107460000028F1D1284B1B79002BEDD18AE70021B0
:1074700001F0A6F9BDF806303380284631460EF0FB
:10748000CEF928460EF0A0F9A8B9296A28460EF0D0
:10749000A5F901463046FFF7D7FE044600287FF4E1
:1074A00078AF3A4631462846FFF73EF9044620B108
:1074B00041F6C23198E70121ECE7134BDB6D002B5D
:1074C0003FF467AF024606F591713046984760E792
:1074D00042245EE700288AD128460EF05BF9014677
:1074E0000028ADD13A462846FFF71EF90446002889
:1074F0003FF44FAF41F69F3176E700BF3C110020CB
:10750000441100202C2B002098260020024B1B68E1
:1075100003B118470C20704738110020F7B5044616
:1075200010460F461E4601F0CBF90BF045FE05460E
:10753000042C5FD8DFE804F003234626300000F077
:10754000C9FBB8B1B7B9FFF705FE002850D02946EE
:107550000EF01BF90021F8B20EF02DFB10B12946F8
:107560000EF03DFB002E47D0284601F097F900248D
:1075700030703AE003213846FCF7B0FFE5E7FFF74B
:1075800065FCEFE707213846FCF7A8FF0028E9D0A3
:1075900029460EF026FBE5E70A213846FCF79EFF58
:1075A0000028DFD090F83830032B23D1D0F8984052
:1075B000002CD7D0F83C204629460EF018FBD4F812
:1075C000F840F5E7694638460CF063FE68B90B4BA6
:1075D0001B681BB9019B83F87C50C3E70122294635
:1075E000684698473A280446F4D1204603B0F0BDD7
:1075F0004224FAE71224F8E73446F6E74C1100205B
:10760000034B5A8802801B7883700020704700BFAC
:107610002C2B00207FB583781A2B064609D8042B23
:1076200005D9012202FA03F3314A134205D112258A
:107630001AE0292B01D03B2BF9D13088B0F5706FBF
:10764000F5D269460CF025FE88B9019B93F82021FC
:1076500002F0FF05C2B9B27883F82121FF2283F836
:10766000202168460DF084F9284604B070BD3088AA
:107670000921FCF733FF0446002837D0B0F8AC01ED
:1076800002A90CF006FE08B10C25EDE7B4F8AE0136
:107690000821FCF723FF20B940F691113920FBF7B0
:1076A000CDFF03781BB994F8C831032BECD1039BB1
:1076B00093F83621002AE7D194F8F02102F0FF0573
:1076C000002AE1D1B4F8B021A3F8382194F8B4210C
:1076D00083F83A21027D83F83B21B27883F83C217C
:1076E00084F8F021FF2283F83621BDE70225BBE7AD
:1076F0002000380438B504784278857804F0010316
:1077000052EA030104F0020401D1112038BDBCB9D2
:10771000002DFAD0002B08BF144601E000242546B6
:1077200020460BF054FD0028EFD028460BF04FFD0B
:107730000028EAD0054B00209C76DD769883E5E7AB
:10774000002BEBD114461D46EAE700BF2C2B00208E
:1077500013B5008869460CF09CFD18B10224204640
:1077600002B010BD9DF8003001984BB90BF0B6FC8B
:107770000028F3D0019890F8323123B13A24EEE793
:107780000BF0BAFCF4E790F8DA3003F0FF04002BBA
:10779000F4D190F8D1309B0706D1FF2380F8323125
:1077A00068460DF0E5F8DAE70249D2300DF02FF91E
:1077B000D5E700BF515009002DE9FF410778EF2FB1
:1077C00004460E4601D91226D6E0B0F80130ADF8D5
:1077D0000C309DF90C209DF80C30002AF3DB9DF84D
:1077E0000D209507EFD1D80600F19A80990603F095
:1077F000030240F19180002AE5D11A0703D503F076
:107800006703012BDFD163781D0711D42179E2785A
:10781000E07942EA0122617942EA0142A17941EA32
:107820000021207A41EA00418A42CCD81F2ACAD9D5
:10783000627A013A062AC6D8A27A032AC3D813F07C
:10784000040102D1023A012A03D8E27A012ABAD805
:1078500011B9A27C032AB6D813F01001227D72D090
:10786000012AB0D1237E012BADD800297CD06378CA
:10787000D80703D500F0EAF900287CD06378227D90
:1078800003F01801082940F08B80022A73D11B07EE
:1078900040F18E801FFA87F803214046FCF71EFE58
:1078A0000546002840F0958003214046FCF7D8FDAE
:1078B0000546002800F0AA80554B93F960100DF0A2
:1078C000AAFE002138460EF076F9002840F08880A4
:1078D00028460DF05CFF21463070E074284602F027
:1078E0001DFFE37E0646002B46D0002844D1E96CFC
:1078F00002466846FCF740FFE86C324601210BF077
:1079000004FBE96C68460422FCF736FFE86C32465B
:1079100031460BF0FAFA2FE0032A7FF46EAF52E7FC
:1079200013F0600F7FF44FAF03F00F0203F0070373
:10793000052B3FF468AF931E012B7FF664AF002A3E
:107940007FF441AF5FE7022A04D103F06F03092BF4
:107950007FF439AFA37D013B022B3FF634AFE37DCB
:107960000F2B7FF67FAF2EE700F0F8F981070AD4DE
:10797000237D022B04D11126304604B0BDE8F081EE
:10798000A37D022BF7D000F0E9F942073FF56FAF76
:10799000237D032BEFD0A37D032B7FF468AFEAE7B1
:1079A000022A3FF474AF227F002A3FF470AFE2E76F
:1079B000E279A37943EA0223227A43EA0243B3F548
:1079C000804F7FF667AF0EF0A4FB00287FF462AF14
:1079D000D1E7FFF72FFA00283FF473AF0C26CBE76F
:1079E00040300DF093FB00283FF472AF637813F042
:1079F000330F7FF4E8AE296AA77D28460DF0EEFE2E
:107A0000FFF752FB87423FF463AFE7E70726B3E790
:107A10009826002030B50279042A8BB003465CD842
:107A20004488B4F5804F58D82D4810440021827CFA
:107A3000457BADF8001042F0100242EA4502C57DD8
:107A4000007F8DF8081042EA850242EAC00202F087
:107A50001F028DF80020BDF80020ADF809201A881B
:107A60008DF80B208DF80E40120A240A8DF80D10A7
:107A70008DF810108DF80C208DF80F405A7B8DF882
:107A800011205A798DF812209A79D3F807008DF8D1
:107A90001320B3F80B209B7B8DF81A307F238DF8D1
:107AA0001B30012305908DF81D10ADF818208DF8BE
:107AB0001C308DF81E3002A88DF81F108DF8201094
:107AC0008DF823108DF824108DF821108DF82210D8
:107AD0006946FFF771FE0BB030BD1220FBE700BF17
