:10000000D0080020F9100000E5290000E5100000EC
:10001000E5100000E5100000E51000000000000001
:100020000000000000000000000000004D11000072
:10003000E510000000000000E5100000E5100000E1
:1000400000000000000000000000000000000000B0
:1000500000000000000000000000000000000000A0
:100060000000000000000000000000000000000090
:100070000000000000000000000000000000000080
:100080000000000000000000000000000000000070
:100090000000000000000000000000000000000060
:1000A0000000000000000000000000000000000050
:1000B0000000000000000000000000000000000040
:1000C0000000000000000000000000000000000030
:1000D0000000000000000000000000000000000020
:1000E0000000000000000000000000000000000010
:1000F0000000000000000000000000000000000000
:1001000000000000000000000000000000000000EF
:1001100000000000000000000000000000000000DF
:1001200000000000000000000000000000000000CF
:1001300000000000000000000000000000000000BF
:1001400000000000000000000000000000000000AF
:10015000000000000000000000000000000000009F
:10016000000000000000000000000000000000008F
:10017000000000000000000000000000000000007F
:10018000000000000000000000000000000000006F
:10019000000000000000000000000000000000005F
:1001A000000000000000000000000000000000004F
:1001B000000000000000000000000000000000003F
:1001C000000000000000000000000000000000002F
:1001D000000000000000000000000000000000001F
:1001E000000000000000000000000000000000000F
:1001F00000000000000000000000000000000000FF
:10020000DEE61E284CBBCE8F023400003C0000000E
:10021000A42E00000100000000000000000000000B
:10022000FFFF02910000000000000000000000003D
:0C023000000000000000000000000000C2
:10023C0030B44FF0000310F8014B11F8015B013A98
:10024C0084EA050443EA0403F5D1A3F101034FEA60
:10025C00D37030BC704700BF4FF0000310F8012B77
:10026C00013943EA0203F9D1A3F101034FEAD37038
:10027C00704700BF30B411F8014B12F8015B6C40B1
:10028C0000F8014B013BF6D130BC7047044A012306
:10029C00C2F840354FF080420020C2F878357047E4
:1002AC0000E001404FF4A0431B6B984216D214237C
:1002BC00434345F23402D1580A4A0B4B42EA0062DE
:1002CC008A4243EA006309D08B4209D0002383F3AE
:1002DC001188BFF36F8F0423184602DF002070478C
:1002EC00012070470000FA50FFFFFA504FF0805386
:1002FC00D3F83021082A06D1D3F83431052B02D893
:10030C00024AD05C70470020704700BFB12C00003F
:10031C00074B0122C3F80425D3F80024D207FBD5E0
:10032C000160BFF35F8F0022C3F80425704700BF44
:10033C0000E00140124B70B553F82050013053F8D7
:10034C002060AE4200D870BD6C68B4B1237FDB076F
:10035C0011D4636953B12046984738B10028B8BF0F
:10036C004042E368FF28A8BFFF201870E26853786A
:10037C0043F0010353700835E3E72B689847FAE71D
:10038C00FC2A0000134B9A6A12F0007F9A6A14BF81
:10039C001E201D2012F0807F9A6A18BF1F2012F4B5
:1003AC00002F9A6A18BF212012F4802F9A6A18BF66
:1003BC00222012F4003F9A6A18BF232012F4803FC7
:1003CC009A6A6FEA02426FEA12429A6218BF2420BC
:1003DC00704700BF00ED00E010B5184B0246986A5C
:1003EC009C6A10F4805F14BF1720162014F4006F61
:1003FC009C6A18BF1820A40508D5986A000404D577
:10040C001AB19A6A22F400429A6219200B4B9A6A2A
:10041C0012F4806F9A6A18BF1A20D2050CD49B6A0A
:10042C0013F4005F18BF1C20044A936A43F47F4303
:10043C00936200230B7010BD1B20F5E700ED00E06C
:10044C0010B51C4B0246986A9C6A10F0100F14BF32
:10045C001120102014F0080F9C6A18BF1220A4075A
:10046C0009D5586B986A000604D51AB19A6A22F01D
:10047C0080029A6213200F4B9A6A12F0010F9A6A4B
:10048C0018BF142012F0200F9A6A18BF1520D4063A
:10049C0058BF9B6A074B9A6A920642BF5A6A22F46B
:1004AC0000525A629A6A42F0FF029A6200230B7061
:1004BC0010BD00BF00ED00E0F0B5264C264F2268C1
:1004CC00002607EB02151301D5F80858EDB28DBBC9
:1004DC0006B122604FF080521569B0FBF5F405FBB4
:1004EC00140484BB1569B1FBF5F405FB141454BB5F
:1004FC00146952696243914225D803F1804202F596
:10050C00F0320224C2F80008C2F80418C2F80848F5
:10051C00D2F80048A042134618D1D2F804289142D0
:10052C0014D1D3F80838DBB2022B0CBF00206FF0CB
:10053C000D0007E00132072A4FF00106C1D92260F5
:10054C006FF01B00F0BD6FF01500FBE76FF00D00B6
:10055C00F8E700BF6000002000E001401FB5084A2A
:10056C00044607CA01AB83E807000C221946204653
:10057C0002F044FA00280CBF2046002004B010BD45
:10058C00C82A000070B5064E0546002456F8040B28
:10059C002844FFF7E3FF10B90134072CF6D170BDE6
:1005AC001C2B00002DE9F0431F4C204F54F8048CF9
:1005BC0085B0002601ADB04503D8002005B0BDE8DC
:1005CC00F08397E80700636AD3F8009085E807008A
:1005DC000C222946484602F011FA98B9B9F1000FDD
:1005EC0010D0636A21691B681A6991420AD19A6911
:1005FC00A169914206D8E169914203D962695B69AC
:10060C009A4309D0236A5BB1002383F31188BFF3AB
:10061C006F8F0423184602DFE36801361C44CAE7D7
:10062C00626A1360F8E700BF3C020000D42A0000A5
:10063C0070B5094D2B784BB9084C0126C4F80065F0
:10064C0000F072FF20B92E70C4F80005002070BDB8
:10065C006FF00D00FBE700BFCC00002000A00250A3
:10066C002DE9F04F8DB004460591002800F0E18192
:10067C008669D0F80C900769FFF770FF00284BD003
:10068C00A3699E4248D13046FFF77CFF844243D198
:10069C00226AAA4B9A4240F0CC810DF1200800212D
:1006AC00404602F05EF928B9BDF820206369B3EB2F
:1006BC00520F36D32569B5F5F82F32D8E3689D4231
:1006CC002FD314EB09092CD2F3192AD2A64228D81D
:1006DC009C4226D209F1FF394E4522D84B4520D9F0
:1006EC00E26996421DD893421BD95268964218D89B
:1006FC00934216D93544924F05F1050997E8070046
:10070C0088E807000C224146284602F077F900B928
:10071C007DB901354D45F1D1226A884B9A4240F0A2
:10072C008881884904F120000DB0BDE8F04FFFF737
:10073C00EFBDEA68A3699A42EED123690393FFF7F0
:10074C0077FF0028E8D1FFF773FF0028E4D14FF4BE
:10075C00A0473B6B102BDFD8824645F2480B4FF677
:10076C00FF793B6B9A4510D300274FF4A0494FF00B
:10077C00140B45F2340AD9F830309F42CCD23846AB
:10078C00FFF790FDA0B90137F5E75046FFF78AFD5A
:10079C0048B1ABF11001084602F0B4F84845BBD0A3
:1007AC0002315945F7D10AF1010A0BF1140BD8E7C4
:1007BC00D9F830309F42AFD20BFB07FC0CF1040C84
:1007CC000022CDF8088002EB0C0300215AF803300C
:1007DC000493C2F11003032B94BF002301239B004D
:1007EC0004984FEAC10E20FA0EFE029800F801E0C0
:1007FC0001319942F4DB01461A4419440F2A029143
:10080C00E1D9039B009305F17002334608A905F169
:10081C00300002F0D0F8B8B905460CE02846FFF7D6
:10082C0041FD38B1142045F23403464900FB053034
:10083C00FFF76EFD0135AF42F0D1002108A802F0A0
:10084C0090F828B1002306E065307FF465AF9AE795
:10085C00BDF820305B0865699D4233D902F05AF827
:10086C0080B3023002F04EF8013880B24FF6FD73BF
:10087C00984227D807A90DF11A0002F072F808BBAC
:10088C00314B059A03EA450382F001021343BDF88C
:10089C001A209BB29A4215D2079898B100F0030225
:1008AC0030326A44DB439BB24FF0FF31089102F8BF
:1008BC00103CC3F3072302F80F3C089920F0030007
:1008CC00FFF726FD4FF480514FF4A040FFF7F4FDE5
:1008DC00002840F0AE80636B04F13C05984229D1AE
:1008EC00DFF86890DFF854A00027A36B9F4249D231
:1008FC00DFF85C80002658F8040BFFF743FE50B17C
:10090C00036A534507D1844205D000F13C03406B88
:10091C00002282421ED101364E45ECD300236A6A76
:10092C0013601BB92B6A002B40F08380EB680137F6
:10093C001D44DAE7EA6801301544CFE7FFFF029166
:10094C00E02A00000000FFFFFEFF01000100000094
:10095C00B82C0000D5F810C019698C450ED19969D6
:10096C00D5F818C08C4509D8D5F81CC08C4505D9CC
:10097C006969D3F814C031EA0C01D0D0D9680132BE
:10098C000B44C6E74FF080424FF0FF33C2F80833F8
:10099C00BFF36F8F72B6284AC2F88030C2F8843029
:1009AC00C2F88830C2F88C30C2F89030C2F894305B
:1009BC00C2F89830C2F89C30C2F88031C2F8843149
:1009CC00C2F88831C2F88C31C2F89031C2F8943137
:1009DC00C2F89831C2F89C314FF0E02300221A6122
:1009EC00D3F8042D42F00072C3F8042DD3F8242D53
:1009FC0022F4E02203F550635A62EFF3148292075B
:100A0C0007D5EFF3148222F0020282F31488BFF3AD
:100A1C006F8FBFF34F8FBFF36F8FA2699A60A3697B
:100A2C001A6882F30888002282F309885E683046CF
:100A3C0000470DB0BDE8F08F00E100E070B5032079
:100A4C00FFF778FC0420FFF775FC4FF4A041002061
:100A5C00FFF732FD0646A8B9886ACD6AFFF792FD0A
:100A6C0004462846FFF78EFD054618B162694369B6
:100A7C009A420DD300212046FFF7F2FD01212846B2
:100A8C00FFF7EEFD054A137B23F00103137370BDD2
:100A9C000121FFF7E5FD31462046F1E76400002017
:100AAC009A422DE9F84F93461D4628BF9B461A4B98
:100ABC00DDF828A01446012280468946C3F800259B
:100ACC0027460026A64206D30020134B0022C3F86B
:100ADC000025BDE8F88F09EB0601BAF1000F06D02E
:100AEC000BF103008008002398420ED151465A4660
:100AFC00404600F091FC0028E7D1A7EB0B07BD4264
:100B0C00AB462E4428BFBB46DCE751F823204AF8FD
:100B1C0023200133E8E700BF00A002502DE9F04389
:100B2C00A1B002AF8046381D99460C46164600F01F
:100B3C0059FC274B98421DD0F0B9B4F1005F29D273
:100B4C00B9F1000F1CD06D46ADF5007D02AB0093E2
:100B5C0032464FF400732146381DFFF7A1FFAD4616
:100B6C001C4B9842044605D00A3398422CD00C3BBF
:100B7C00984211D16FF015007C37BD46BDE8F0836B
:100B8C00154B00934FF4004332462146381DFFF7B6
:100B9C0087FFE5E70090F5E70028EDD10F4D012325
:100BAC00C5F800354146381D00F08EFCA0F57003E9
:100BBC00A3F50073052BC5F80045DDD8252222FAD4
:100BCC0003F3DB07D6D4D7E76FF08500D4E700BF7B
:100BDC000002F0000202F000D010002000A0025031
:100BEC002DE9F043BDB005469DF8147189461646B3
:100BFC000146984640223B4613A8FFF78FFF044658
:100C0C0038B9102213A94846FFF712FB28B96FF028
:100C1C00640420463DB0BDE8F083449A3B4641460F
:100C2C0003A8FFF77BFF04460028F2D13B462022A5
:100C3C0003A90BA8FFF772FF04460028E9D1134F54
:100C4C000123C7F800352023009332460BAB29460D
:100C5C0013A801F0F7FEA0F57003A3F67603C7F80E
:100C6C0000450E2B0CD8DFE803F0080B0B0B0B0B1D
:100C7C000B0B0B0B08080B080D006FF01504C8E7E5
:100C8C000446C6E76FF06504C3E700BF00A002503E
:100C9C0008B5034801F0B0FCBDE8084001F062BCA7
:100CAC00142B000070B5454B5B688AB00646C3F345
:100CBC000803002585F31188BFF36F8F02F07F4086
:100CCC00B0F17F4F11D102F00C0008280DD01007A5
:100CDC004CBF0E4601250022033B8DF80720032B49
:100CEC0005D8DFE803F01D5B5F582E46F3E70024C0
:100CFC009DF80730002B5ED12022314602A801F06E
:100D0C008DFE099B002D51D0C3F3080222B96FEA66
:100D1C0053236FEA4323099302A9204601F0DBFD1C
:100D2C00264BDA6A9107E2D4DA6A002ADFDBDA6A48
:100D3C005200DCD55A69B16942F480725A61BFF332
:100D4C004F8FBFF36F8F5A6931F8021C22F48072F7
:100D5C005A61BFF34F8FBFF36F8F4DF60272914202
:100D6C0009D09A6AD2B242B10DF107010120FFF706
:100D7C0067FB0446BCE73468BAE79A6A12F47F4F03
:100D8C0005D00DF107010120FFF726FBF1E79B6A67
:100D9C00B3F5803FABD3FFF7F5FAEAE70DF10701A6
:100DAC000020E4E70DF107010020EDE723F4FF73C9
:100DBC0023F00103AFE70AB070BD00BF00ED00E007
:100DCC0072B6002383F31388144B4FF0FF32C3F831
:100DDC008020C3F88420C3F88820C3F88C20C3F883
:100DEC009020C3F89420C3F89820C3F89C20C3F833
:100DFC008021C3F88421C3F88821C3F88C21C3F85F
:100E0C009021C3F89421C3F89821C3F89C2162B6B1
:100E1C00BFF34F8FBFF36F8F704700BF00E100E04F
:100E2C003D4A08B53D4B22F07F029A60BFF34F8FCD
:100E3C00BFF36F8FD3F8882022F47002C3F8882098
:100E4C00D3F8882042F4A002C3F888204FF0404227
:100E5C00C3F83422BFF34F8FBFF36F8F0024E1EE42
:100E6C00104A2F482F4A2146121A01F0E2FD2E4853
:100E7C002E4A2F49121A01F0D1FD2E482E4A2F4925
:100E8C00121A01F0CBFD2E482146202243180131C5
:100E9C00302983F80023F9D10020FFF74BFA294BB6
:100EAC0083F308881D4B5A6942F400725A6100247E
:100EBC00E02283F82220DC771C765C769C7683F823
:100ECC0020405A6A42F4E0225A6283F823405A695D
:100EDC0042F010025A615A6922F008025A6110223B
:100EEC001A614FF0FF329A620120DA62FFF722FAA0
:100EFC000220FFF71FFAE1EE104A134B134D83F358
:100F0C000988002012498847204621462246A847D6
:100F1C0010488047FEE700BF0000000000ED00E035
:100F2C0060000020D00000200000002060000020A5
:100F3C00402E00000000002000000020402E000089
:100F4C0000E100E0D0100020D0080020490A000089
:100F5C00E9290000F729000008B54FF08053D3F8B9
:100F6C003021082A4ED14FF080420021C2F80C11DA
:100F7C00C2F81011C2F8381502F54042D3F8041427
:100F8C00C2F82015D3F80814C2F82415D3F80C14A1
:100F9C00C2F82815D3F81014C2F82C15D3F8141471
:100FAC00C2F83015D3F81814C2F83415D3F81C1441
:100FBC00C2F84015D3F82014C2F84415D3F8241401
:100FCC00C2F84815D3F82814C2F84C15D3F82C14D1
:100FDC00C2F85015D3F83014C2F85415D3F83414A1
:100FEC00C2F86015D3F83814C2F86415D3F83C1461
:100FFC00C2F86815D3F84014C2F86C15D3F8443411
:10100C00C2F87035FFF772F918B12B4B2B4AC3F8A5
:10101C008C26FFF76BF918B1294BFB22C3F8182566
:10102C00FFF764F970B14FF080414FF08053D1F865
:10103C00E42ED3F8583222F00F0203F00F031343BF
:10104C00C1F8E43EFFF752F920B11E4B4FF4007289
:10105C00C3F840264FF08053D3F83031082B09D118
:10106C004FF08043D3F80024D20744BF6FF0010245
:10107C00C3F80024144AD2F8883043F47003C2F841
:10108C008830BFF34F8FBFF36F8F4FF08053D3F87F
:10109C003021082A0ED1D3F83431052B02D80B4A53
:1010AC00D35C3BB14FF01023D3F808224FF08043B0
:1010BC00C3F8582508BD00BF00500040488103000C
:1010CC0000F000400090024000ED00E0AB2C00006E
:1010DC0030BFFFF7FDBF00BFEFF30880EFF30981CE
:1010EC0001B57246FFF7DEFD01BD00BF002080F3A5
:1010FC001488BFF36F8F0F4880F30888FFF72CFF1D
:10110C0000200D490860BFF34F8FFFF759FE2020D8
:10111C0080F3118809484FF40061401880F3098866
:10112C00EFF314800221084380F31488BFF36F8F10
:10113C00FFF776FED008002094ED00E0D0080020E8
:10114C001EF0040F0CBFEFF30880EFF309808169E8
:10115C0011F8021C0229FFD001B5724601F037FCD0
:10116C0001BD00BF30B10268034B04489A4208BF6E
:10117C000020704702487047DD55AABB8208F0007A
:10118C007108F00038B50D460446B0B1A02200211C
:10119C00043001F070FC95B10822294604F164007A
:1011AC0001F06FFC082205F1200104F1840001F02C
:1011BC0068FC044B2360002038BD0348FCE703485F
:1011CC00FAE700BFDD55AABB7108F0008308F000F8
:1011DC002DE9F74305460E4699461146FFF7C2FF27
:1011EC000446002840F08480002E00F08580002901
:1011FC0000F08480B9F1200F40F0828005F14404A6
:10120C00082205F10408204601F03BFC05F12407F7
:10121C0008223146404601F034FC06F12001082238
:10122C00384601F02EFC02A94FF4807041F8049D61
:10123C0001F01BFC002865D1334A4FF48073136016
:10124C00012193600823314A00F02EFB012108464E
:10125C0005232F4A00F028FB0823424601211C20BD
:10126C0000F022FB08233A460121032000F01CFB6E
:10127C00224608230121022000F016FB0823254AF0
:10128C0001211A2000F010FB0523234A01211B2009
:10129C0000F00AFB0823214A0121142000F004FB72
:1012AC0008231F4A0121152000F0FEFA082305F13E
:1012BC0064020121162000F0F7FA082305F18402DC
:1012CC000121172000F0F0FA0823164A01210B2007
:1012DC0000F0EAFA00F044FB0446019800F0D2FA60
:1012EC00114B002C18BF1C46A421284601F0C5FB4D
:1012FC00204603B0BDE8F0830C4CF9E70C4CF7E743
:10130C000C4CF5E7084CEFE790B00250782B00003E
:10131C00F02B0000382B0000DC2B00009C2B000075
:10132C00BC2B0000582B00008408F0007608F0005D
:10133C008008F0008108F0000C4BC2691A608269C9
:10134C0043F8042C426943F8082C026943F80C2C2E
:10135C00C26843F8102C826843F8142C426843F896
:10136C00182C026843F81C2C704700BF5CB6025066
:10137C000C4B1B68C3610C4B1B6883610B4B1B68CC
:10138C0043610B4B1B6803610A4B1B68C3600A4B20
:10139C001B688360094B1B684360094B1B68036027
:1013AC00704700BF5CB6025058B6025054B602509B
:1013BC0050B602504CB6025048B6025044B60250D9
:1013CC0040B6025030B10268034B04489A4208BF41
:1013DC000020704702487047DD55AABB0202F0009E
:1013EC000002F00038B5044668B1051D702128468E
:1013FC0001F043FB28462022044901F03AFB044B40
:10140C002360002038BD0348FCE700BF042C00001B
:10141C00DD55AABB0002F0002DE9F043284B044631
:10142C000E4615460FCB85B06F4687E80F002DB9D9
:10143C004FF00009484605B0BDE8F0832046FFF7A1
:10144C00C1FF81460028F5D1231D0193636AA3BB1C
:10145C00236F8BB1C3F14008A84528BFA84604F1FF
:10146C00300031461844424601F003FB236F4344DD
:10147C0046442367A5EB0805226F402A06D104F1E8
:10148C003001384600F0AEFB0023236705F03F081F
:10149C0035F03F0505D031462A46384600F0A2FB10
:1014AC002E44B8F1000FC3D04246314604F130004F
:1014BC0001F0DFFAC4F87080BCE7DFF80890B9E7F8
:1014CC00EC2A00000C02F0002DE9FF41144B0446FD
:1014DC000E460FCB6F4687E80F002046FFF772FFD2
:1014EC008046B0B9CEB1636A251D01953BB9012385
:1014FC006362226F04F13001384600F073FB2B4617
:10150C00043E243453F8042B12BAA34246F8042F99
:10151C00F8D1404604B0BDE8F081DFF80880F8E768
:10152C00EC2A00000502F000084B1B681B0EF02B88
:10153C0008D1074B1A68074B9A4205D1064B00207D
:10154C0018607047052070470620704728B9025074
:10155C0024BA02500000E0200CBA0250002230B530
:10156C0049001346023840F6FC7502F1A05404F50C
:10157C002C44A400904202F10102CABF23602560F2
:10158C005B181E2AF1D1044A13600B445360034BC1
:10159C00034A1A6030BD00BF78B0025084B00250CC
:1015AC0020F80F0030B51E4B85B01A461968009113
:1015BC000099CC07FAD500F1A05000F52C40800022
:1015CC00016813680193019BD807FAD5154B164C8B
:1015DC001868164D1F30202390FBF3F001380028BB
:1015EC0010DA00230130400153B1A0F120014FF07B
:1015FC000042134204D1013888424FEA5202F8D11A
:10160C0005B030BD13680393039BDB07FAD5431871
:10161C0023602B680293029B002BE3D10138DEE799
:10162C00B4B00250ACB00250E4B00250DCB0025086
:10163C00F0B51D6885B001F01F040DB91F2C25D124
:10164C00154D2E462F680197019FFF07FAD500F123
:10165C00A05000F52C408000006835680395039D70
:10166C00ED07FAD50D4D00EB611028600C480068B1
:10167C0002901F2C18BFC94302980FBF106001F0D5
:10168C001F0100FA01F1116000211960106843007C
:10169C00C00F136005B0F0BDB4B00250E4B00250FE
:1016AC00DCB002500C4B18603F3020F03F00890139
:1016BC00403058609960D9601961596199611C3347
:1016CC000648196082B002680192019AD207FAD5D5
:1016DC00196002B0704700BF90B00250B4B0025015
:1016EC0038B5A0F12003B3F5426F05462CD88F28EE
:1016FC0026D800F1470300F16604DB064FEA5414C8
:10170C0000D0013464013F34A409013411B1A14269
:10171C001AD30C46E3004FF48050B0FBF3F02028B2
:10172C0028BF202002B11060084B01221A6021460C
:10173C00FFF714FF28462146FFF7B4FF002038BD01
:10174C0000F11F046409DDE70148F8E71CB80250FA
:10175C002221F000F0B5454B89B01D461C68019460
:10176C00019CE407FAD5424BDFF80CE1DFF80CC121
:10177C0013449B0000241A680B181E2B88BFC0F161
:10178C001E011F320B1852095343B3F5806F82BFF1
:10179C004FF48061B1FBF2F1091A00F1A05000F591
:1017AC002C402746A14233DC2B680493049BDB07B7
:1017BC00FAD5304B1B68296805910599CF07FAD5E6
:1017CC002D4C2E49236000231E46934203F1010049
:1017DC0040D120F001022948194600268A423CD803
:1017EC00296806910699CE07FAD525490968286813
:1017FC0007900798C007FAD52160204800210C46B5
:10180C008B422DD11D4900209A422CD809B0F0BD35
:10181C002B680293029BDB07FAD503199B001B680C
:10182C002E680396039EF607FAD5CEF800300023F7
:10183C00934203F1010306D1164623F00103B34290
:10184C0004D80134AEE7CCF80070F1E7CCF80070A6
:10185C000136F4E70E600346B7E706600131BDE7D9
:10186C0004600131CCE708600133CDE7B4B002501D
:10187C0024AC00147CB00250D4B00250D8B002504A
:10188C0078B0025008B540B1202801464FF007024D
:10189C0028BF20210020FFF75DFF024B00221A60B9
:1018AC0008BD00BF1CB80250F0B5294D85B02C46C0
:1018BC002E680096009EF607FAD500F1A05000F5B0
:1018CC002C4080000568206801900198C707FAD564
:1018DC002048214F056002EB8306B24229D15A1CE5
:1018EC001D4E22F0010200279A4227D8236802934A
:1018FC00029BDE07FAD5194B0B449B001B681F3368
:10190C005B099A4213D2216803910399C907FAD54E
:10191C00154400219B1A104A056008468B4210D8CA
:10192C005A1C0D4922F0010200209A420CD805B035
:10193C00F0BD52F804CBC7F800C0CEE737600133D6
:10194C00D2E710600131E9E708600133EDE700BF31
:10195C00B4B00250D4B00250D8B0025024AC001431
:10196C002DE9F041814B1D6898682033A0B01E46CC
:10197C001A680192019AD707FAD57D4B7D4A1A60F5
:10198C0032680292029AD407FAD57B4A1A607B4AD3
:10199C001446116803910399C907FAD5784A11685E
:1019AC00C1F3402137680497049FFF07FAD5754FA0
:1019BC001F6027680597059FFF07FAD51768002950
:1019CC0000F0CF80B90540F1CC80316806910699C2
:1019DC00CF07FAD56C491960216807910799C90797
:1019EC00FAD51168C1F3402137680897089FFF07A3
:1019FC00FAD5664F1F6027680997099FFF07FAD52C
:101A0C001268002900F0AF80910540F1AC8032687B
:101A1C000A920A9AD207FAD5564A1A6032680B9281
:101A2C000B9AD707FAD55A4A1A6031680C910C995F
:101A3C00CC07FAD55749196031680D910D99C90732
:101A4C00FAD55549196031680E910E99CF07FAD520
:101A5C005249196031680F910F99CC07FAD550494A
:101A6C001960504B1E46196810911099C907FAD588
:101A7C003F4C4D4B236033681193119BDB07FAD518
:101A8C004A4B236033681293129BDF07FAD5484BFD
:101A9C0023603A4B9846196813911399C907FAD5E4
:101AAC00324F386033681493149BDB07FAD52260ED
:101ABC0033681593159BD807FAD53E4B23603368D2
:101ACC001693169BD907FAD53B4B236033681793B3
:101ADC00179BDA07FAD5394B236033681893189B98
:101AEC00DB07FAD5364B236033681993199BD8075B
:101AFC00FAD5344B236033681A931A9BD907FAD55D
:101B0C00314B236033681B931B9BDA07FAD52F4BA1
:101B1C00236000F01DFC08BBD8F800301C931C9B04
:101B2C00DB07F9D53D6033681D931D9BD907FAD5AA
:101B3C00274B236033681E931E9BDA07FAD5254B7F
:101B4C002360D8F800301F931F9BDB07F9D50C4B93
:101B5C001B6813F4805F204B08BF184620B0BDE80B
:101B6C00F0811E48FAE71E48F8E700BF90B002501B
:101B7C0080B0025000100251C01F7229B4B0025044
:101B8C0088B00250C0CF0129C01F0E29C03F0029C8
:101B9C0040010249003184A800001649400108A107
:101BAC0080440888B0B00250C044708880077A41E5
:101BBC00C0077E4100006A498006164940006E4904
:101BCC0000020021008220214082202180822421D9
:101BDC0040A161A100C861510308F1000108F100A6
:101BEC000208F1002DE9F74F314B446880469246CC
:101BFC0099461A68002AFCD12E4B9B461A68002A7B
:101C0C00FCD14FF0FF30019100F094FC802000F0EB
:101C1C0097FC294D294A2A4F2A4E012307202B6075
:101C2C00A2F59E72C2F83C011360636A3B60A36A22
:101C3C003360D8F8003042F8043CD8F8083020461D
:101C4C0098470199D9F80030002BFBD1BAF1000F5D
:101C5C0020D11D4B04221A60D9F80030002BFBD187
:101C6C00DBF800A0BAF1000FFAD1D8F80C302046FE
:101C7C0098473B6863623368A362144BC3F800A0B7
:101C8C00C3F844A1D9F80030002BFBD12B6003B072
:101C9C00BDE8F08F236A012B04BF0C4A13600C4B78
:101CAC0040201960C3F804A000F050FCD4E700BF3A
:101CBC0010B9025020BC025018B8025000B90250A2
:101CCC00CCB70250D0B70250C8B7025084B60250FD
:101CDC0028BC025010B5544B98B019461A680192A2
:101CEC00019AD207FAD5514B514A1A600A680292EE
:101CFC00029AD407FAD54F4A1A600A680392039ADB
:101D0C00D007FAD54C4818600A680492049AD20796
:101D1C00FAD54A4A1A600A680592059AD407FAD588
:101D2C00474A1A600A680692069AD207FAD5454ABB
:101D3C001A600A680792079AD407FAD5424A1A60C1
:101D4C000A680892089AD207FAD5404A1A600A68BB
:101D5C000992099AD407FAD53D4A1A600A680A9280
:101D6C000A9AD207FAD53B4A1A600A680B920B9A68
:101D7C00D407FAD5384A1A600A680C920C9AD20722
:101D8C00FAD5364A1A600A680D920D9AD407FAD51C
:101D9C00334A1A600A680E920E9AD207FAD5314A63
:101DAC001A600A680F920F9AD407FAD52E4A1A6055
:101DBC000A681092109AD207FAD52C4A1A601A4B5C
:101DCC0019461C681194119CE407FAD5174B18603E
:101DDC00086812901298C407FAD51A600A68139210
:101DEC00139AD007FAD5124A1A600A681492149AF8
:101DFC00D207FAD51E4A1A600A681592159AD407AA
:101E0C00FAD51C4A1A600A681692169AD007FAD5A7
:101E1C00194A1A600A681792179AD207FAD5174A04
:101E2C001A6018B010BD00BFB0B0025080B00250A4
:101E3C0000936521000431904096659000836121E8
:101E4C0000C3302100C364900081619000461021D2
:101E5C00008111210041442100C320290C4610C8E7
:101E6C000086312100C3602140C12829409665219C
:101E7C000013319040962529594614C84004324924
:101E8C0010B5494B94B019461A680092009AD207C3
:101E9C00FAD5464B464A1A600A680192019AD40751
:101EAC00FAD5444A1A600A680292029AD007FAD507
:101EBC00414818600A680392039AD207FAD53F4A40
:101ECC001A600A680492049AD407FAD53C4A1A603C
:101EDC000A680592059AD207FAD53A4A1A600A6836
:101EEC000692069AD407FAD5374A1A600A680792FE
:101EFC00079AD207FAD5354A1A600A680892089AE6
:101F0C00D407FAD5324A1A600A680992099AD2079C
:101F1C00FAD5304A1A600A680A920A9AD407FAD596
:101F2C002D4A1A600A680B920B9AD207FAD52B4AE3
:101F3C001A600A680C920C9AD407FAD5284A1A60CF
:101F4C000A680D920D9AD207FAD5264A1A600A68C9
:101F5C000E920E9AD407FAD5234A1A600A680F9289
:101F6C000F9AD207FAD5214A1A600F4B19461C68F2
:101F7C001094109CE407FAD50C4B1860086811906B
:101F8C001198C407FAD51A600A681292129AD007EF
:101F9C00FAD5174A1A600A681392139AD207FAD51F
:101FAC00144A1A6014B010BDB0B0025080B0025088
:101FBC008090652100040990409665908080612195
:101FCC0080200821802064900081619000461021BF
:101FDC00008111210041442180202029024610C893
:101FEC000086092180206021402128294096652106
:101FFC0040962529594614C810B5504B96B01C462E
:10200C001A680192019AD207FAD54D4B4D4A1A60C3
:10201C0022680292029AD207FAD54B4A1A604B4AAE
:10202C0042EA804022680392039AD207FAD51860DC
:10203C0022680492049AD007FAD5454A1A60A2F590
:10204C00800242EA814122680592059AD207FAD5AC
:10205C00196022680692069AD007FAD53D4A1A6092
:10206C0022680792079AD107FAD53B4A1A60226870
:10207C000892089AD207FAD5384A1A60226809924F
:10208C00099AD007FAD5364A1A6022680A920A9A37
:10209C00D107FAD5334A1A6022680B920B9AD207F1
:1020AC00FAD5314A1A6022680C920C9AD007FAD5EC
:1020BC002E4A1A6022680D920D9AD107FAD52C4A35
:1020CC001A6022680E920E9AD207FAD5294A1A6023
:1020DC0022680F920F9AD007FAD5274A1A60216806
:1020EC0010911099C907FAD51A60144B1A46196841
:1020FC0011911199C807FAD5114B20491960116833
:10210C0012911299C907FAD51D49196011681391DA
:10211C001399CC07FAD50B491960116814911499CD
:10212C00C807FAD517491960116815911599C9078F
:10213C00FAD5154A1A6016B010BD00BFB0B00250E7
:10214C0080B002504004419000862929D81001C863
:10215C0040144190401421294014652100344090D2
:10216C0000310C90C0400C90C030202940960D904E
:10217C0000416090031645C8008611210041602182
:10218C00594644C84014459040142D9070B52648CB
:10219C0088B0054604680094009CE607FAD52348ED
:1021AC00234C0460234C44EA83432C680194019C27
:1021BC00E407FAD50360930143EA824242F01044EB
:1021CC0044F4C0442B680293029BDE07FAD50460EA
:1021DC002B680393039BDB07FAD5174B03608B012A
:1021EC0043EA814141F0104343F4C0432E68049606
:1021FC00049EF607FAD503602B680593059BDE0752
:10220C00FAD5046041F058412B680693069BDC0715
:10221C00FAD5016042F058422B680793079BDB0705
:10222C00FAD5026008B070BDB0B0025080B0025058
:10223C00C02102298071009880611890354B8EB0B6
:10224C0019461A680092009AD207FAD5324B334AD3
:10225C001A600A680192019AD007FAD5304A1A60BE
:10226C000A680292029AD207FAD52E4A1A600A68B4
:10227C000392039AD007FAD52B4A1A600A68049283
:10228C00049AD207FAD5294A1A600A680592059A67
:10229C00D007FAD5264A1A600A680692069AD2071F
:1022AC00FAD5244A1A600A680792079AD007FAD519
:1022BC00214A1A600A680892089AD207FAD51F4A6E
:1022CC001A600A680992099AD007FAD51C4A1A6052
:1022DC000A680A920A9AD207FAD51A4A1A6008684A
:1022EC000B900B98C007FAD51A600A680C920C9ADE
:1022FC00D007FAD5144A1A600A680D920D9AD207C3
:10230C00FAD5124A1A600E210D230F2200200EB0AE
:10231C00FFF73CBFB0B0025080B00250804301299F
:10232C0040633921807001298020542100D13490E0
:10233C00C0403490C0302029C0530D9000413890DB
:10234C00832308C880E3102100413821CF4308C8FB
:10235C002DE9F041012392B0CDE90333624B1D46C8
:10236C001A680592059AD207FAD5604C604B236027
:10237C00604B19461A680692069AD707FAD55E4B37
:10238C001A68D60400F1A8802A680792079AD00729
:10239C00FAD55A4A22600A680892089AD207FAD5E6
:1023AC001E68C6F30036002E40F098801220FFF70E
:1023BC00F9F807461320FFF7F5F887428CBF122077
:1023CC001320FFF7EFF8471EFFF738FF03AB01AA06
:1023DC0039461220FFF72CF904AB804602AA394685
:1023EC001320FFF725F900EB4800022832D0032810
:1023FC003ED0012874D12B680993099BDB07FAD5D1
:10240C003F4B23602B680A930A9BD807FAD53D4BA8
:10241C0023602B680F930F9BD907FAD53A4B236097
:10242C002B681093109BDA07FAD5384B23602B6876
:10243C001193119BDB07FAD5354B2360013F25D552
:10244C001023192218210020FFF7A0FE304612B0ED
:10245C00BDE8F0812B680B930B9BD907FAD52D4B5C
:10246C0023602B680C930C9BDA07FAD52A4BCFE729
:10247C002B680D930D9BDB07FAD5284B23602B683B
:10248C000E930E9BD807FAD5254BC1E703AB01AAD7
:10249C0039461220FFF7CCF804AB044602AA3946A1
:1024AC001320FFF7C5F810EB440402D1FFF712FC20
:1024BC00C4E7FFF7E5FC022C08D0032C09D0012C53
:1024CC0010D117211620FFF797FDB7E7152114201F
:1024DC00F9E70F210E20F6E7124EB7E7124EB5E7DB
:1024EC00124EB3E7124EB1E7B0B0025080B00250BA
:1024FC0000084A51B4B0025088B0025000084E5146
:10250C0000065A4940065E49000442410014424903
:10251C0040042E49000652494006564900063A49E5
:10252C0040063E490608F1000708F1000408F100D6
:10253C000508F100014B1860704700BF08BA025043
:10254C00014B1860704700BF04BA0250034A13686D
:10255C001842FCD0024A10601846704700BA02506C
:10256C0008BA025010B50A4C23681BB10123236032
:10257C00002010BD00F048F80028F7D001380628DC
:10258C0003D8044B53F8200010BD034810BD00BF06
:10259C00B4000020242C0000FE8FFFFFBFF34F8FF0
:1025AC000549064BCA6802F4E0621343CB60BFF3E3
:1025BC004F8F00BFFDE700BF00ED00E00400FA05FF
:1025CC0010B40A4B0A490B4C4FF0FE32C3F80024EE
:1025DC004968C3F80424C3F80824C3F80C24002366
:1025EC00C4F800355DF8044B084700BF00B002503A
:1025FC000000002000A00250D0E90012014BC3E9FA
:10260C00001270470000002038B500F02FF820B100
:10261C00032400F063F8204638BD00F031F898B977
:10262C0000F0ACF898B90F4DD5F828391B0EF02BEB
:10263C0008D1D5F8242A0C4B9A420AD0072400F072
:10264C0017F8E6E70624FAE70424204638BD0024F0
:10265C00F5E7012000F092F804460028F7D1C5F800
:10266C000C0AD8E700B002500000E02000207047B0
:10267C0000207047014BC3F8040A704700B00250A9
:10268C0010B5114800F048F800B110BD0F4800F02B
:10269C0043F80028F9D10E4C204600F03DF80028F4
:1026AC00F3D10C4B0C481C6000F036F801460028A6
:1026BC00EBD100F02DF8044608B1204610BD00F017
:1026CC003FF82046FAE700BF180000201400002055
:1026DC0010000020080000200C00002008B508485D
:1026EC0000F024F8074800F021F8074800F01EF825
:1026FC00064800F01BF8BDE8084000F00BB800BF1E
:10270C001800002014000020100000200C000020F5
:10271C0000207047704700BF08B5034B02681B6868
:10272C0010689847002008BD3000002008B5034B06
:10273C0002685B6810689847002008BD30000020D4
:10274C0070B5094C094D2069AB68984718B1084B16
:10275C0008485B689847084AEB68206900211160BB
:10276C00BDE87040184700BF1C000020300000205E
:10277C0000000020402C0000B8000020F8B51A4DD5
:10278C001A4E0446B26828699047E8B9184F3B685E
:10279C004CB1A3B1012B19D0013B3B602869F36804
:1027AC0098470020F8BD43B9124A0121C2F8001520
:1027BC001149D1F81029002AFBD101333B60F36891
:1027CC00286998470020F8BD0C48F8BD0A4AD2F891
:1027DC001039002BFBD1074A6FF07E40C2F8003550
:1027EC00FFF748FF3B68D7E71C00002030000020B3
:1027FC00B800002000A0025000B00250E98FFFFF8B
:10280C0010B5044650B1636813F0685F05D0064AF2
:10281C00934202D000232360626010BD034B044836
:10282C005B689847EFE700BF2C5F5CA900000020B5
:10283C00602C0000C8B143680D4A934213D013F0CA
:10284C00685F0ED0012350E8002F194640E8001CA9
:10285C009CF0000FF7D1012AF5D0BFF35F8F002059
:10286C00704704487047044870476FF4E040704765
:10287C002C5F5CA9E98FFFFFEA8FFFFF80B14368F3
:10288C00094A93420AD013F0685F05D0BFF35F8FFB
:10289C00002303601846704704487047044870478B
:1028AC006FF4E040704700BF2C5F5CA9E98FFFFF1D
:1028BC00EA8FFFFF10B5044620B1044B6360002281
:1028CC00226010BD0248FFF77BFEF6E73A00003AA3
:1028DC00882C0000FEE7012801D1EFF30583EFF30C
:1028EC001183202383F31288BFF36F8FEFF31182D0
:1028FC0083F31288BFF36F8FFEE708B50021012028
:10290C00FFF7E9FF20F0030382071B680CBF98B2A6
:10291C00180C704770B54FF4A04314221B6B45F292
:10292C00340102FB03110846FFF7ECFF012802D02B
:10293C000024204670BD0C1D002602310846FFF70E
:10294C00E1FF8642F4D2A01CFFF7DCFF05462046CF
:10295C00FFF7D8FF0128ECD0023504EB4504013613
:10296C00ECE72DE9F04106460D46FFF7D3FF044690
:10297C00F0B10230FFF7C6FF0021804604340F4649
:10298C008BB2984506D8002405B12C603780002006
:10299C00BDE8F0812046FFF7B5FFC3439BB2013180
:1029AC00A21C002BF0D09F4238BF1F461446E7E70D
:1029BC006FF01500ECE713B500240194049C00940F
:1029CC00FEF70EF902B010BDFFF7CCBD704708B58D
:1029DC0001460068FFF77FFFFEF77ABB61B662B66F
:1029EC0080F31188BFF36F8F7047EFF311802023B2
:1029FC0083F31288BFF36F8F7047704710B55AB1CD
:102A0C000139841810F8012B11F8013FA04201D0B4
:102A1C009A42F7D0D01A10BD1046FCE710B5431EF1
:102A2C000A44914200D110BD11F8014B03F8014F3B
:102A3C00F7E7C9B202440346934200D1704703F84A
:102A4C00011BF9E72DE9F041069F044615461E4689
:102A5C00FEF798FB38B93B46324629462046BDE87E
:102A6C00F041FEF7B5BBBDE8F0810A460021FEF748
:102A7C0037BEFFF7D3BFFFF7DCBF0A460021FFF7D5
:102A8C00D8BF01EB820204388A4201D10020704782
:0C2A9C0052F8043D1BBA40F8043FF5E777
:102AA8009902000000000000D52900000000000085
:102AB8009D0C000000000000B105000000000000AF
:102AC800DEE61E284CBBCE8F02340000DEE61E2850
:102AD800EAAC45B802340000DEE61E28838451863D
:102AE800023401000200000000000000451300004D
:102AF8007D130000A82A0000A82A0000B82A0000B8
:102B0800B82A0000C82A0000C82A000000000000F7
:102B1800E12800000000000000020000000400009E
:102B28000006000000080000000E00000010000071
:102B3800FFFFFFFFFFFFFFFFFFFFFFFF0000000099
:102B4800000000000000000001000000FFFFFFFF80
:102B5800FCFFFFFFFFFFFFFFFFFFFFFF000000007C
:102B6800000000000000000001000000FFFFFFFF60
:102B7800512563FCC2CAB9F3849E17A7ADFAE6BC17
:102B8800FFFFFFFFFFFFFFFF00000000FFFFFFFF49
:102B98000000000096C298D84539A1F4A033EB2D67
:102BA800817D0377F240A463E5E6BCF847422CE157
:102BB800F2D1176BF551BF376840B6CBCE5E316B9B
:102BC8005733CE2B169E0F7C4AEBE78E9B7F1AFE5F
:102BD800E242E34FFFFFFFFF7F000000800000009C
:102BE8000000000000000000FFFFFFFF7F00000062
:102BF80080000000000000000000000067E6096A8D
:102C080085AE67BB72F36E3C3AF54FA57F520E5105
:102C18008C68059BABD9831F19CDE05BFF8FFFFF45
:102C2800FF8FFFFFFE8FFFFFFE8FFFFFFD8FFFFF70
:102C3800FC8FFFFFFC8FFFFF436F756C64206E6F86
:102C480074206C6F636B20706F7765722073617688
:102C580065206D75746578006D757465785F66724A
:102C680065652063616C6C65642077697468204EC3
:102C7800554C4C20706172616D657465720000007E
:102C880043616E277420696E697469616C697A653D
:102C9800206D757465782C20776173204E554C4CE7
:102CA8000D0A000000000000010100000000000003
:102CB80000000000000000000000000007290000DC
:102CC800000000000729000000000000072900009C
:102CD800000000000729000000000000072900008C
:102CE800000000000729000000000000072900007C
:102CF800000000000729000000000000072900006C
:102D0800000000000729000000000000072900005B
:102D1800000000000729000000000000072900004B
:102D2800000000000729000000000000072900003B
:102D3800000000000729000000000000072900002B
:102D4800000000000729000000000000072900001B
:102D5800000000000729000000000000072900000B
:102D680000000000072900000000000007290000FB
:102D780000000000072900000000000007290000EB
:102D880000000000072900000000000007290000DB
:102D980000000000072900000000000007290000CB
:102DA80000000000072900000000000007290000BB
:102DB80000000000072900000000000007290000AB
:102DC800000000000729000000000000072900009B
:102DD800000000000729000000000000072900008B
:102DE800000000000729000000000000072900007B
:102DF800000000000729000000000000072900006B
:102E0800000000000729000000000000072900005A
:102E1800000000000729000000000000072900004A
:102E2800000000000729000000000000072900003A
:082E3800000000000729000062
:102E400000000000A9250000100000202C00002038
:102E500024000020200000201C000020580000203A
:102E6000500000204800002000000000400000202A
:102E7000C12800000D28000041280000892800001A
:102E8000BC0000203A00003AC00000203A00003A9E
:102E9000C40000203A00003AC80000203A00003A7E
:042EA00015E015E044
:04000003000010F9F0
:00000001FF
