:1000000080430020099B000087120100F59A000040
:10001000F59A0000F59A0000F59A00000000000033
:10002000000000000000000000000000719C0000C3
:10003000F59A000000000000119C0000F59A0000F5
:10004000319E0000071A0100319E0000319E000021
:10005000319E0000319E0000319E0000319E000064
:100060001D1A0100319E0000319E0000F1190100AF
:10007000319E0000319E0000319E0000319E000044
:10008000319E0000319E0000319E0000319E000034
:10009000319E0000319E0000319E0000319E000024
:1000A000319E0000319E0000319E0000319E000014
:1000B000319E0000319E0000319E0000319E000004
:1000C000319E0000319E0000319E0000319E0000F4
:1000D000319E0000319E0000319E0000319E0000E4
:1000E000319E0000319E0000319E0000319E0000D4
:1000F000319E0000319E0000319E0000319E0000C4
:10010000064B074A9B7802604FF490728280C3715D
:100110000822FF2382710372704700BFE0030020B2
:100120001B8C0000F8B5C41D002824F00704054608
:1001300014BF2046002000F0EFFA071E02DA6FF02D
:100140000B00F8BD0DB9FC42F9D4294E3189F08875
:10015000F37AB27A0331033089B280B207F0B8FE85
:100160000028ECDB317873783C440334002D1944CB
:1001700024F0030400FB01F114BF2046002000F02E
:1001800057FC20440DB90028D9DBB2780346B2B140
:10019000F17CF37811441944FF29D0DC0330002DA1
:1001A00020F0030414BF20460020F289C9B200F0F9
:1001B00095FC031EC3DB23440DB9002BBFDB317C50
:1001C00081B1B27872B10733002D23F0070414BF58
:1001D0002046002001F068FE031EB0DB23440DB969
:1001E000002BACDB002D0CBF18460020A9E700BF98
:1001F000E00300201FB572B6184BDD6AE5B9BFF306
:100200004F8F1749174BCA6802F4E0621343CB6063
:10021000BFF34F8F00BFFDE7B2FBF6F2DCB2013354
:10022000002AF9D104F110036B4403F80C2C0A22C4
:1002300034B901A8A847E2E7024600230A26EDE701
:10024000631E04AEDCB256FA83F3B0FBF2F602FB97
:100250001600303003F80C0C3046E9E7E0030020CC
:1002600000ED00E00400FA0507B50C4BDA7A8DF8D2
:1002700001209A7A8DF8002068461A89DB88ADF84B
:100280000420ADF8023001F0EFF818B1E8219C200D
:10029000FFF7B0FF03B05DF804FB00BFE0030020F0
:1002A00038B5054668B306F0AFFE10B94FF0FF3021
:1002B00038BD03F03DFFB0F5FA7FF7D8134C144872
:1002C000E562002500F0A2F92A222946204684F89A
:1002D000305007F02DFA01236370A3701B23E380D5
:1002E000238140F2032363811F23E38108232374C6
:1002F000EFF3108472B600F0C7FC2CB962B620464A
:10030000D6E76FF01500D3E72846D1E7E0030020D9
:100310006902000010B5002842D1244C94F8303016
:10032000032B3AD059B1002A3DD00239052937D8DC
:10033000DFE801F0031428362B2E137863700020B9
:10034000FFF7F0FE0028B7BF0123022384F8303006
:100350006FF00B00A8BF84F8303010BD137913B3D1
:10036000537903B31188FB291DD81A2953881AD948
:100370001B3BE02B17D81368C4F806300C4B92884F
:100380009A80DCE71378A370D9E71388E381D6E776
:100390001388FF2B07D82374D1E74FF0FF30DCE739
:1003A0006FF02C00D9E76FF01500D6E7E0030020CE
:1003B000E6030020F8B50D46064630B329B311F028
:1003C000070422D1124F97F83030012B02D16FF081
:1003D0000B00F8BD032B02D14FF0FF30F9E700F01E
:1003E0005FF80028F8D02846FFF79CFE0028EEDBD7
:1003F00008F0E6FD3046214601F07AF8FFF734FFB9
:10040000032387F830302046E3E76FF01500E0E77C
:10041000E003002010B5074C94F83030032B03D1D3
:1004200001F07EF801F06CFC07F048FE002084F833
:10043000300010BDE003002050B1074B03F114025F
:1004400053F8041B40F8041B9342F9D10020704775
:100450006FF01500704700BF0027010010B5074B73
:1004600093F830403CB901F029F80120044900F02C
:100470004BF9204610BD4FF0FF30FBE7E0030020B2
:1004800001010000024B02681A600020704700BFA3
:1004900014040020014B1B68184700BF14040020FF
:1004A000024B1868003818BF012070471404002060
:1004B0002DE9F743264E0446071D2548376001F015
:1004C0002FFC0228054607D12149204607F046FAAD
:1004D000284603B0BDE8F0830428F9D13378072B10
:1004E00018D13E2000F04AF878B9F378327901A9A2
:1004F00043EA02236846ADF8003007F040FC0028CC
:10050000DBD053210820FFF775FE052000F06EF8C0
:100510000028EAD03146204607F04FFAB0F5817F37
:1005200001D37221EEE70028C7D094F8008094F838
:100530000290404600F022F80028BED0B8F13E0FED
:10054000C6D1484600F052F80028C1D1B5E700BF37
:1005500018040020074B4FF0FF3141F6FF72C3E94A
:10056000001205490022C1E900221F21C3E902123D
:10057000704700BF000000205C0400203F280CD81A
:1005800001380B4BC0F3421200F01F0053F8223029
:1005900023FA00F000F001007047FF2806D0403831
:1005A000C0F34212034B00F01F00EFE70120704739
:1005B000000000205C0400200146074B00684968E9
:1005C0001A4603C240F48C221A6041F0107242F4C1
:1005D000FF625A60704700BF000000200246024BD5
:1005E0000068516803C37047080000200138064BBB
:1005F000C0F3421203EB820300F01F009B6823FA52
:1006000000F000F00100704700000020014B18606E
:10061000704700BF6404002010B5FFF79BFF07F090
:100620002BFF034B1B68044603B19847204610BDBF
:10063000640400200B880288F0B5C3F30E049EB258
:1006400004F11803C57CC35A02352A442B4497B2DF
:1006500013FA82F3013B4288B3FBF7F313FB074322
:100660009BB29A42044A93BF22EA060332401343E4
:100670009BB20B80F0BD00BF0080FFFF4A1E062A20
:1006800008B50346084604D84FF4D1711520FFF78A
:10069000B1FD094A914202D940F2A311F6E711B91E
:1006A00003B1196008BD2BB11B680022C3E9012109
:1006B0001A1D1A600430F5E7FAFFFF7F10B5114BE1
:1006C00000EB41041A786389B3FBF2F303FB0223C6
:1006D000013A1A44B2F5706F027928BF00231A4418
:1006E0008378B2FBF3F0194403FB1020091AB1FB25
:1006F000F3F003FB101313446FEA43436FEA5343D1
:10070000638110BD68040020024B03EB8003596035
:10071000704700BF680400202DE9F04F10F0070A71
:1007200085B0054604D040F261111720FFF762FD45
:10073000554F07F10C06B1460446B0464FF0010B89
:1007400057F8043B8DF80BA03BB101A898479DF8E2
:100750000A30082B01D9E821E7E79DF80B1081BB8F
:1007600005B13160B94506F10406E9D12DB3DFF8D2
:100770001CE100238EF800301E46022258F82200A9
:10078000013A60B190F804A08178BAF1FF0F66D108
:100790004FF000078E4207713CBFCEB20123511CBF
:1007A000ECD10BB18EF80060022640F6FF6A58F8D3
:1007B0002670002F65D1013EF9D2601B05B0BDE85F
:1007C000F08F9DF80AC0BCF1020FE64601F1050268
:1007D00038BF4FF0020E0EF1FF3004EB4204044428
:1007E000CEF100002040BDF808406444013CCCF14B
:1007F000000C04EA0C04B4F5803F4FEA420301D335
:10080000F82192E775B1C31A336099701C8083F8A0
:1008100003B09DF80C201A71019A1A814FEA124C0C
:10082000A3F806C004FB01049CE758F82C90B9F12A
:10083000000F06D099F804B0D34504BF99F8029090
:100840004F440CF1FF3CBCF1000FEEDA3944FF29B4
:10085000A0D90BB18EF8006040F2271165E79446ED
:100860000027F0E707EB41033846A3F80AA0FFF79B
:1008700025FF09F10109BB785FFA89F18B42F1D8B4
:1008800099E74FF00009F6E76C04002068040020A7
:10089000F8B54FF6FF730380184B03EB8103054651
:1008A0001869B8B186780379B3FBF6F206FB123308
:1008B000DBB219460A1D00EB4202B2F902705488FD
:1008C000002F09DB0131B1FBF6F206FB1211C9B2B0
:1008D0008B42EFD10020F8BDFF29FBD0C4F30E03FB
:1008E000C4782B8024B94FF4D5711720FFF782FC10
:1008F0005380BDE8F84007F0CABA00BF6804002082
:100900001D4B03EB810370B51C69054644B303041A
:1009100004D54FF4DC711720FFF76CFC014620462C
:1009200007F097FAFF28014604D02046BDE8704042
:1009300007F0ADBAA078B5FBF0F300FB1353DBB2C0
:1009400019460A1D04EB4206B6F90260002E09DBC7
:100950000131B1FBF0F200FB1211C9B28B42F0D1B0
:10096000002070BDFF29FBD08B4204EB42021CBF6C
:100970000023E3705580D8E768040020094B03EB9F
:10098000810310B51C690146204607F062FAFF2872
:10099000014604D02046BDE8104007F078BA002098
:1009A00010BD00BF68040020F8B5104B03EB8103B5
:1009B00007461C690146204607F04BFAFF2805460A
:1009C00011D0E688238953EA064606D00146204620
:1009D00007F05DFA01463846B04720462946FFF742
:1009E0006DFE0020F8BD0520FCE700BF6804002074
:1009F00038B50E4B827903EB82030446186908B9B7
:100A0000052038BD8278E1799142F9D24B1CE3711F
:100A100000EB41035D89B3F90A30002BF3DBA580BD
:100A200007F035FA20600020EBE700BF68040020E3
:100A300070B5044610F003000E4603D04E21182076
:100A4000FFF7D8FBFFF71AFE054624B103483146ED
:100A50000460FFF713FE284670BD00BF8404002029
:100A60002DE9F14FDFF870B09DF828A09DF82C908B
:100A70001E46DBF8003007460D4690461BB9602144
:100A80001820FFF7B7FB52460921404607F0A0F9AE
:100A90004A4684B20921304607F09AF914FA80F1E7
:100AA000DBF8000007F0B1F9386018B9286001B030
:100AB000BDE8F08F04442C60386853464146092253
:100AC00007F065F928684B460922314601B0BDE8B8
:100AD000F04F07F05CB900BF840400201F2AF8B56E
:100AE000044613460ED89200033222F00303B3F5F6
:100AF000803F2DD2184DACB1A00710D05F21092046
:100B0000FFF778FBFF2B4FEA420204D9FF339A42EA
:100B1000A8BF1A46E8E77C2AB8BF7C22E4E7297020
:100B20006C602B8122F0030201EB81031204D800D8
:100B300001276B68120C0025EEB28E4200D3F8BD7F
:100B400014B126181F705E60104401352833F3E796
:100B50004FF0FF30F3E700BF8804002038B5144A97
:100B6000147853680021C8B2844203D8AB2109200D
:100B7000FFF740FB1846013105782833002DF2D0ED
:100B80000021817001241289447044688161C1612F
:100B9000920800F12001051D21F8022B994245F829
:100BA000044B1444F8D100234361037038BD00BFE7
:100BB000880400202DE9F8434B7880460C4602F06B
:100BC000040602F0FB07D3B1DFB12E4BD4F804903A
:100BD0001D89B7BB01236370AD08A761E76104F10C
:100BE00020034A46211D04F1280023F8025B9842A5
:100BF00041F8042B2A44F8D10023636101E0002F5F
:100C0000E3D0FF23A370002E18BF0226A3191B7D7B
:100C1000032B03D1022F1CBF0136F6B2A319012208
:100C20001A7506F10C0204EB8606002324F8123034
:100C30007268A370C8F80020A8F804304046BDE8E8
:100C4000F883002114226170A01806F071FDB5F53B
:100C5000FF7F0FD26B08ED1AADB209EB0502C4F8A5
:100C600004902584A2606384C4F80C90A58422615A
:100C7000E384C6E7B5F5EE6F4FF0FF03EBD940F222
:100C80007265EAE788040020134B012200214FF02F
:100C9000FF309A60C3F80012C3F80803C3F80015C8
:100CA000C3F804259A60C3F80803C3F80015C3F815
:100CB00004250A490A4A03F580334FF40040C3F87B
:100CC0000825C1F88000BFF34F8FBFF36F8FC1F8C5
:100CD0008001C3F80825704700F0004000E100E003
:100CE0000000F63F014B1876704700BF94040020C7
:100CF0002DE9F04104460D46164690F8F03003F019
:100D0000FF071BB10C273846BDE8F0810146454876
:100D100005F006F820288046F4D05822394604F120
:100D2000C80006F005FD84F8C880C4F8CC50FF2345
:100D300084F8F03035B101F041F800F007000130DF
:100D400085F8D40102234FF00008A4F8003184F89C
:100D5000F88003F0F7F900F19E05204608F044F80A
:100D6000ADB2014670B307F0D5FD00F5CD6189B293
:100D7000304603F0A1F93044C4F8FC0008F042FA10
:100D8000281841F10001C4E94201012084F8D00093
:100D9000A4F8268008F0E6F8E53E361AC4F8D460D8
:100DA0004FF0FF326FF00043C4E9442394F8C800C9
:100DB00004F1F80105F0FAF848BB40F2CD113020FB
:100DC000FFF718FA204607F032FFDFF85C80E530C5
:100DD000C4F8FC00B8F8080048B1E08C38B100F065
:100DE000EDFFB8F80830B0FBF3F202FB1300054446
:100DF00008F008FA2D1841F10001C4E94251002E13
:100E0000CED0751941F10001C4E94451CEE7D4E9CF
:100E100042230021C4E93823C4E93A23204608F0DC
:100E200000F870E70D8100004C050020F0B50023AC
:100E300085B0CDE9003301238DF806306846FFF711
:100E4000D7FD70B11D4E0123B3720027CDE90277A3
:100E500002A8FFF7CDFD0546C8B10023B37205B067
:100E6000F0BD009807F00CFAE8E790F8FB0105F0F8
:100E7000EFFA94F8FB0105F0A7FE94F8FB0184F863
:100E8000E45104F081FF202384F8FB31DEE7029B6C
:100E9000002BDDD093F8FB21202AD9D018884FF6FB
:100EA000FF739842D9D02946FFF768FD0446002811
:100EB000DBD14FF49B713020FFF79CF94C050020EB
:100EC000054B00220121DA7219709A7242F21072F7
:100ED0001A81FFF7ABBF00BF4C050020014BD87251
:100EE000704700BF4C050020014B1881704700BFC0
:100EF0004C050020F0B5070CA7F5AA42144B543A54
:100F0000012A03EA90231FD927F4004042F6AA22BF
:100F1000801A18BF01200022162116461F2487EAD6
:100F2000060562EA0505013510D0DD03ADB245EADC
:100F30005606E503ADB2013945EA52024FEA5303C2
:100F40004FEA5404EBD1F0BD0020E4E70020FAE7BB
:100F5000E0FF3F0010B501210020FFF70FFD044620
:100F600070B90121FFF7CCFC044620B940F2913161
:100F70003920FFF73FF9034B93F9061007F01FFEE6
:100F8000204610BD5C05002008B507F0C5FC00F048
:100F90004BFC00F0E7FA07F07FFD00F0AFFD00F03A
:100FA00095FF094B00221A60084B1B214FF4A470D7
:100FB00098801A805980064B064818605A829A75A4
:100FC00099805A749A8208BD480000205C05002070
:100FD0008409002003021B00044B41F64C52C3E974
:100FE00002221B221A74FFF7CFBF00BF8409002022
:100FF0002DE9FF41344DAB680363344B83610446F4
:1010000007F075F9064600F09DFA2B7C84F838301D
:101010002F4B668710F0200F1B681DBFAA886988B8
:10102000A4F85A101B2208BFA4F85A20A4F85C2088
:101030001BB194F9701020889847AE7CEF7CB5F80E
:10104000148016B900F084FA064687BB00F080FAD7
:10105000074676B368B303A920468DF80C608DF877
:101060000D70ADF80E8007F097FC01236A88E385C8
:10107000AB886978019103332978009103329BB2E0
:1010800092B204F1140104F11000FFF7E9FC2369A6
:1010900013B940F24E6114E0636913B940F24F6135
:1010A0000FE0002004B0BDE8F0810920FAE7002E2F
:1010B000D1D120880021FFF777FC0028F5D040F23D
:1010C00024613920FFF796F88409002000093D00CB
:1010D0004C000020F7B505460E4607F0A3FD00289A
:1010E00074D0284607F080FE40B1B6F80130013BCD
:1010F0007F2B03D91224204603B0F0BD284607F009
:1011000077FE08B90C24F6E7284607F03BF90028DB
:10111000F8D1284607F044FD04460028F2D12846BD
:1011200001F04AFA0028E5D0B6F80170F17842F2F1
:10113000107328465F4307F043FE284607F04CFE35
:10114000014658B93A462846FFF7D2FD0446002822
:10115000D1D041F69F313920FFF74CF821460DF1EF
:101160000600FFF795FB064670B3214600F050FCE1
:10117000BDF8063033802846314607F043FE284646
:1011800007F03CFEA0B9296A284607F039FE01465F
:101190003046FFF72DFF04460028ACD13A463146D1
:1011A0002846FFF7A5FD044620B141F6C231D2E73B
:1011B0000121EDE7064B9B68002B9CD0024606F50B
:1011C0008D713046984796E70D2494E7422492E7C4
:1011D0005C050020034B5A8802801B788370002036
:1011E000704700BF84090020F0B50778EF2F85B065
:1011F00004460D4603D91225284605B0F0BDB0F8C7
:101200000130ADF80C309DF90C209DF80C30002A0F
:10121000F1DB9DF80D209107EDD1DA063FD49E0653
:1012200003F0030238D5002AE5D11807E3D4637828
:10123000190711D42179E278E07942EA0122617933
:1012400042EA0142A17941EA0021207A41EA0041C3
:101250008A42D0D81F2ACED9627A013A062ACAD841
:10126000A27A032AC7D813F0040102D1023A012A54
:1012700003D8E27A012ABED811B9A27C032ABAD8CF
:1012800013F01001227D19D0012AB4D1227E012A47
:10129000B1D8B1B91125AFE7032AC6D1ABE713F036
:1012A000600FA8D103F00F0203F00703052BBED097
:1012B000931E012BBBD9002A9DD1B8E7022AE5D1A4
:1012C00099E7DA0743D46378227D03F018010829EF
:1012D00042D1022ADED11B0744D5BFB201213846D4
:1012E000FFF74CFB064600284BD101213846FFF79B
:1012F00007FB064600284AD0264B93F9061007F054
:101300005EFC304607F065FD21462870E0743046EB
:1013100007F0A9FCE37E0546002B3FF46DAF0028E3
:101320007FF46AAF316B02466846FFF743FC306BCF
:101330002A46012106F014FE316B68460422FFF7AD
:1013400039FC306B2A46294606F00AFE54E700F0C5
:10135000C9F80028B7D19DE7022ABCD0227F002A15
:10136000B9D097E7E279A37943EA0223227A43EAE4
:101370000243B3F5804FB0D907F087FF0028ACD106
:1013800088E706F0FFFF0028BBD00C2534E70725CF
:1013900032E700BF5C05002070B50579042D8AB0E6
:1013A00003465CD84488B4F5804F58D82D48465D34
:1013B000284400214279857AC07BADF8001042F0C4
:1013C000100242EA460242EA850242EAC00202F004
:1013D0001F028DF80020BDF80020ADF809201A8802
:1013E0008DF80B208DF80E40120A240A8DF80D108E
:1013F0008DF810108DF80C208DF80F405A7B8DF869
:1014000011205A798DF812209A79D3F807008DF8B7
:101410001320B3F80B209B7B8DF81A307F238DF8B7
:101420001B3001238DF8081005908DF81D10ADF8C4
:1014300018208DF81C308DF81E3002A88DF81F1072
:101440008DF820108DF823108DF824108DF82110C0
:101450008DF822106946FFF7C7FE0AB070BD122052
:10146000FBE700BF2C2701000278034672B14278E7
:1014700062B142881A2A09D982881A2A06D9044AEE
:10148000006810609B88938000207047122070478E
:1014900084090020024B02689A600020704700BF58
:1014A0008409002008B501F07FF8FFF709FDBDE8C9
:1014B0000840014801F062B86805002010B5064CEC
:1014C000064904F5027007F007FA04F503700449B1
:1014D000BDE8104007F000BA680500205000002069
:1014E00058000020014B93F8020170476805002066
:1014F00010B5074C00F0F0FBD4F8080207F0E4F94F
:10150000FFF76AFD00F072FC012384F8143210BD6D
:1015100068050020014B93F814027047680500200D
:1015200010B5074CD4F80C0207F0CEF9D4F810022D
:1015300007F0CAF9FFF728FD002384F8143210BD24
:1015400068050020014BD3E900017047100000201E
:10155000034B1868C0F30020400040F001007047C2
:101560001000002008B502F0E3FD084A002332F81D
:101570002310814205D302EB83039B78044A137046
:1015800008BD01330C2BF2D10023F7E740270100FF
:101590007D070020054B9A8C824201BF002283F810
:1015A00022204FF6FF729A84704700BF7E0700200A
:1015B00050B90A4A1346012003F8010B0868C2F823
:1015C00001008A889A807047012805D1034B0A6878
:1015D0009A608A88D8719A81704700BFA807002056
:1015E00048B90A4B187880B1D3F80120B3F8053018
:1015F0000A608B807047012806D1044BD87920B14E
:101600009A680A609B89F4E700207047A8070020C9
:1016100020B9054B187800F00100704701280ABF77
:10162000014B0020D879F6E7A8070020F7B5002283
:101630008B888DF80600ADF8043008680C4B8DF8E7
:101640000720019D1C78014603F5AC73D0B284429B
:1016500001D8082009E0D3E90076AE4208BF8F42E6
:1016600003F1080302F10102F0D103B0F0BD00BFA5
:10167000B807002030B5094B01465C78002203F51D
:101680008173D0B2844201D8082005E013F8015BD1
:101690008D4202F10102F4D130BD00BFB807002035
:1016A000F0B5254D95F8984189B0224605F299117B
:1016B000684606F0A9F82146684607F04CF904464A
:1016C000B8B300EB4001C9B202A8FEF7E3FE601E0A
:1016D00095F8A161C0B2012495F8982105E0731C2A
:1016E000B3FBF2F102FB1133DEB206F120030DEB86
:1016F000030111F8203C002BF1D100EB4002203215
:101700006A4406EB46032B4412F8187C83F8A27156
:1017100012F8177C12F8162C83F8A37183F8A42111
:1017200001F8204C0138AB19C0B2FF2883F8994169
:10173000D2D109B0F0BD00BFB807002070B5064691
:1017400088B00C46002A4ED0294A92F8A131D01810
:1017500090F8991119B9FF212820FEF74BFD03EBF2
:1017600043011144013391F8A251E57091F8A3515E
:1017700091F8A41161710021257180F8991192F8F6
:101780009811B3FBF1F001FB103382F8A13192F80C
:10179000C23123B9174902F5DD7007F09FF9657969
:1017A00005F03F0545F0400565710D2200216846B2
:1017B00005F0BEFFE3788DF80F3023798DF80E30F9
:1017C00004AA0423694630468DF80D5005F052FDF9
:1017D0009DF81F3023709DF81E3063709DF81D30FA
:1017E000A37008B070BD03216018FEF753FED6E762
:1017F000B8070020A1160000044B5A78824286BF29
:101800001B1893F84A010020704700BFB80700205A
:10181000044B5A78824286BF1B1893F8420100207D
:10182000704700BFB8070020064B00224FF46171DB
:101830001A8083F8C32183F8C421A3F8C61183F862
:10184000C2217047B8070020014B83F8C4017047DC
:10185000B8070020014BB3F8C6017047B807002055
:1018600030B50A4B5C7884420ED9184490F80201D6
:101870002B3003EBC004A5790D7053F830001060D5
:10188000A3889380012030BD0020FCE7B80700202A
:101890000246074810B590F8C34124B1417821B100
:1018A000023001F02FF8204610BD0C46FBE700BFC8
:1018B000B80700202DE9F74F2F4C9A4663788342F2
:1018C0008046894656D9231893F8425185F0010580
:1018D000F9B193F84A31E3B945F002070135BAF19D
:1018E000000F18D1FA070AD5062101FB084104EBC5
:1018F0000810524601F585718230FFF71FFFBB07C4
:1019000034D504EB0810524649460230FFF716FF63
:101910002CE02F46E3E794F8A1614FF0010B002D76
:10192000E0D0A319019393F8991199B90092DAB113
:1019300000F02CFA06EB46012144019B81F8A2013C
:101940004FEA102C009A81F8A3C1000C81F8A40181
:1019500083F899B194F898310136B6FBF3F103FBA3
:101960001166F6B2013DDAE747F00407384603B0E6
:10197000BDE8F08F0027F9E7B8070020074B5A7839
:10198000824209D91A1892F842212AB9062202FB8A
:10199000003000F58570704700207047B8070020C0
:1019A000064B5A78824281BF1B1893F83A01B0FA6D
:1019B00080F0400998BF0020704700BFB8070020A2
:1019C00030B50024A0F84040B0F8444042F2107511
:1019D0004C43B4FBF2F4A0F84440541E05FB03430F
:1019E000B3FBF2F3A0F84230084BB3FBF2F3013340
:1019F000A0F84830838F05FB0344436BB4FBF2F43B
:101A000059438463B1FBF2F2426330BD005A620273
:101A100070B504460D4659BB4FF41C7205F088FEA4
:101A2000012384F88E306FF0360384F8D930042314
:101A300084F8DA306FF03B0384F8DB306F2384F8EE
:101A4000DC306FF03C0384F8DD306FF07F0384F806
:101A5000DF302B2384F8D830FE2384F80E317F2327
:101A600084F88530202384F8DE5084F8FB3170BD83
:101A7000012922D10023A0F8BC3180F8B331154BE5
:101A800082691344B3FBF2F3C0F8B03040F6B833C8
:101A9000A0F8B4301146438C7830FFF791FF05F081
:101AA00001FD30B1E069FFF725FA10B984F89F51C4
:101AB000DDE7002384F89F31D9E70229D7D1B0F8B8
:101AC0005232D0F84C228169BDE870407830FFF77F
:101AD00077BF00BF7FC3C901074B93F9003018449B
:101AE000142804DC10F17F0F03DB40B27047142090
:101AF00070476FF07E00704780090020024B002283
:101B00001A705A70704700BF8009002083230B7041
:101B1000014B1B78CB7070479C0900202DE9F347DF
:101B2000DFF854818246894605270025D9F8103010
:101B300053B11B7A1BB980211020FEF75BFBD9F84B
:101B40001040B4B9002070E0D9F80440237A012B8A
:101B5000F8D0EFF3108372B6D9F804201268C9F8F0
:101B6000042003B962B6C9F81040237A0BB9A62144
:101B7000E2E7267AF6B22772731E0B2B69D8DFE8EC
:101B800003F065061C3362683C68686868576368E0
:101B900013B94FF4D771CFE7204651469847042038
:101BA000EFF3108372B6227A052AD1B25BD1257287
:101BB000C9F81050ABB962B613E0636813B940F2CC
:101BC000B711B9E75146204698470346C3F30723A8
:101BD000012BADF80400C0B23ED0022BE0D1C9F811
:101BE00010500028A2D020E0636813B940F2BF1162
:101BF000A2E7204698470020D2E763680BB9B521D9
:101C00009AE70B228AF8002019881869AAF80310AD
:101C1000012200248AF802208AF805208AF806406A
:101C200006F0E9F8C9F81040042002B0BDE8F087DA
:101C3000D8F80030514620469847034660B1C9F8AD
:101C400010500220F1E74FF4FB7175E740F2F911F3
:101C500072E74FF4FE716FE726720028E5D1002B82
:101C60007FF464AF6EE711B940F21D2164E7002BE9
:101C70007FF45CAF62B659E76400002070B5144C85
:101C80001426231D32460021184605F051FD034657
:101C90000125257400210433324604F11800C4E9FB
:101CA000013305F045FD84F824500A4A04F11C0371
:101CB000C4E906330023E362236384F83430C4F8B4
:101CC0003530C4F8393084F83D30136070BD00BF42
:101CD0009C0900206000002010B5084C2378FF2BE1
:101CE00004D04FF4A0711020FEF784FA05F00AFB2F
:101CF0002070BDE81040FFF7C1BF00BF1D000020ED
:101D000010B5034C207805F019FBFF23237010BD9C
:101D10001D000020014B187805F020BB1D0000209D
:101D200010B506490446FFF7F9FE28B920460449D4
:101D3000BDE81040FFF7F2BE10BD00BFB40900209F
:101D4000A009002010B51346027A22B140F2992171
:101D50001020FEF74FFA0A46BDE810400146014840
:101D600006F09CBEA00900200346064890F83E20DD
:101D70003AB190F83D2022B900F8353B024906F00F
:101D8000AABE70479C0900200D1B0000094AD2E939
:101D90000003434083EAB01181EA43214FEAF34351
:101DA0005360054B116058434FEAF06000EB800030
:101DB000704700BFDC090020BB79379E094AD2E991
:101DC0000003434083EAB01181EA43214FEAF34321
:101DD0005360054B116058434FEAF06000EB800000
:101DE000704700BF20000020BB79379E10B50A4C19
:101DF00009480821FEF74EFBD4E900231343F7D02E
:101E0000064CFFF7DBFF2060FFF7D8FF2368606018
:101E10000343F6D010BD00BF20000020DC090020E5
:101E2000F0B5204E054630780024147080B1431E72
:101E30007768DBB2181B01280BDC07EBC40057F8EE
:101E400034604068884208BFAE4212D1147001204D
:101E5000F0BD1819461007EBC60E57F836C0DEF86D
:101E60000460AC45C0F347008E412CBF03460446D6
:101E7000E0E7B54271EB000002D214700020E7E702
:101E800007EBC30057F833404068884208BFAC42B4
:101E900001D11370DBE7A542814128BF01331370E4
:101EA000ECE700BF040A002010F0070208B503D0D9
:101EB00063214820FEF79EF918B1034B1972586050
:101EC0001A70C80008BD00BF040A0020014B0022A0
:101ED0001A707047040A0020014B187A704700BF3F
:101EE000040A00202DE9D34306F00AFE0DF1070293
:101EF00007460E46FFF794FF98B9114C2278237AD3
:101F000093420ED0616813466FF0604E9DF8070053
:101F1000984209D301EBC003C3E900760132227075
:101F2000012002B0BDE8D08303EB0E0001EBC0003E
:101F3000D0E90089013BC0E90289DBB2E6E700BFD6
:101F4000040A002037B506F0DBFD0DF10702FFF7AC
:101F500067FF0446A0B10C4A9DF807001378556846
:101F6000013BDBB213701A1AD2B2411CD200834279
:101F700038BF002205EBC10105EBC00005F092FB64
:101F8000204603B030BD00BF040A0020074A0346C4
:101F90001068D3F85120C0F80320B3F85520A0F8FA
:101FA000072093F8501006F0FBBC00BF2C0A00205D
:101FB00070B504460E466588407F15F0040113464F
:101FC00018BF04F15F013246FFF774FC4207054673
:101FD00023D4C3070BD5012384F85030607FFFF76B
:101FE000CDFC0368C4F851308388A4F8553015F04F
:101FF000020F4FF001050ED0094B84F85E501868AF
:10200000D4F85F30C0F80930B4F86330A0F80D3070
:10201000294606F0CEFC284600E0002070BD00BF37
:102020002C0A002038B5C38D0F4D0133C3F30E03C6
:10203000C385AB7C04462BB101F0F4F900F094FCAD
:102040000023AB7400232B7194F871302BB1012164
:102050002046BDE8384006F056B9637C13B1E28DE6
:102060009A42F4D20021F3E72C0A002010B5094C63
:102070002379012B02D02379022B05D1A37C1BB13C
:1020800001F0D0F900F070FCE069BDE81040FFF706
:10209000C9BF00BF2C0A002070B5294C2379012B41
:1020A00007D02379022B04D040F657412D20FEF7AC
:1020B000A1F8A0B90125A37C1BB101F0B3F900F090
:1020C00053FC002D3AD0E06906F0FFF8002830D02C
:1020D00001F0BEF8236ABDE870409B68184721688C
:1020E000E26911F8095B02F15103E80992F8502006
:1020F00006F013FC0028DDD02068002106F07EFCED
:102100000028D7D02379E069012B05D02379022B51
:1021100002D04FF44361C9E72379226A03F1804377
:102120005269013B05F00F0152F8233098470546EC
:10213000C1E7E069BDE87040FFF774BF70BD00BF44
:102140002C0A0020074A0346D06903B909B9FFF7F2
:1021500069BF1379126A03F180431269033B52F895
:10216000233018472C0A00202DE9F043032985B0BD
:10217000054690467BD090F870300529DBB202D13D
:102180004288D60760D5002B5ED10127DFF8E890A2
:1021900099F81260B6B106F0F5FB082888F800003F
:1021A00014D002AA0DF10701FFF75AFB20B940F63F
:1021B000CF612D20FEF71EF89DF8070002A906F05A
:1021C000ABFC064698F80030082B08D1D9F800106F
:1021D00011F8030BC0F3801006F09EFC0646D9F8F8
:1021E000001095F8572011F8030B05F15803C0F3C0
:1021F000801006F092FBD9F80010044611F8030B8A
:10220000C0F3801006F0B4FB8146FFF7C9FB01461E
:1022100040B1B9F1080F1BD04846FFF7EDFA80F046
:102220000101C9B298F80000082815D094B96B7F55
:102230001C1A604260416B885A0706D421B996B9CE
:10224000EB7C93B1BB4210D0002005B0BDE8F08319
:102250000021E7E70120EEE714B181F00104E4B2C8
:1022600004F00100E7E73046EFE70120EDE743889F
:102270009B07E9D5022789E72C0A0020032973B5BB
:10228000044604D0052952D0012002B070BD0823B5
:102290000DF107028DF80730FFF766FF0028F3D035
:1022A000237C284D03B39DF8070094F8BE30DBB9BA
:1022B000237884F8BF30082804F1C10228D004F143
:1022C000C001FFF7CDFA20B940F645712D20FDF78A
:1022D00091FF94F8C03043F0020384F8C0301A49EB
:1022E00004F1B60006F0F7FB2B68062204265A70AC
:1022F0001E702046FFF74AFE94F84020E16B2868E4
:1023000006F06DFB28682E7101F042F80020BCE752
:102310002868034613F8031BC1F3801184F8C0102A
:10232000D0F80310C4F8C1109B889380D7E7074BFF
:102330001B6823B1984780F00100C0B2A5E718469A
:10234000A3E700BF2C0A00202D8B000068000020AE
:10235000F8B504460F4619B300F12805284606F0E3
:10236000DAFDA0B963881A072ED5284606F0EAFDE3
:102370000646284606F0CFFD301AC0B206F0F2FD40
:10238000474A936803442846936006F0A0FD284618
:1023900006F0A2FD00F0CAFE2179252000F0F6FD2E
:1023A0003F4E94F85E2030680023037043706388CA
:1023B000103B0D2B64D8DFE803F05F635B0C6340D8
:1023C00063636363636363402046BDE8F840FFF7DF
:1023D00029BE06234370202303702046FFF7D6FD55
:1023E000638823F008039BB2152B05D094F838209E
:1023F000616B306806F0E4FA306800F0C9FF03232F
:1024000021793371002000F0BDFE054607B9F06068
:1024100063881B0704D506F0A2FD0544C4F8D85014
:102420006388103B0D2B36D8DFE803F038352F2FAB
:10243000352F353535353535352F0C23437003466B
:10244000212103F8091B52B1D4F85F20C0F80920FC
:10245000B4F863209A80012106F0ABFABDE7A26DC3
:10246000C0F80920B4F85C209A8094F85710F3E77C
:10247000062303704370B0E7022303700623F9E7D5
:1024800040F234612D20FDF7B5FE21790120BDE831
:10249000F84000F0D5BF40F6CA41F3E7F8BD00BFF1
:1024A0002C0A002038B54388102B044604D1BDE81F
:1024B00038400121FFF74CBF0B4DAB7C23B100F03E
:1024C00039FA402000F0A2FF286800F061FF608820
:1024D00010F0040002D1217900F0B2FF002000F0DA
:1024E00071FF01232B7138BD2C0A0020024B012102
:1024F000D869FFF72DBF00BF2C0A002010B5134C80
:10250000A37C1BB100F08EFF00F02EFAE06905F00D
:10251000DCFE70B12379E069012B0FD12379226AA7
:1025200003F18043D268013BBDE8104052F82330EC
:102530001847E069BDE81040FFF774BD2379022B0E
:10254000ECD040F658312D20FDF754FE2C0A002027
:1025500010B50948037903F0FF0453B91822214646
:10256000043005F0E5F800F05DFF00F0FDF92046CD
:1025700010BD0C24FBE700BF2C0A002010B5094C4D
:10258000002323712060FFF7E3FF20B140F2EF2129
:102590002D20FDF72FFE236A13B940F2F221F7E751
:1025A00010BD00BF2C0A0020014B024A1A6270477E
:1025B0002C0A0020782800002DE9F041067DB31E8A
:1025C000DBB2012B04468CBF4FF000084FF001082E
:1025D0007EB3B71E18BF0127012B36D800F1580172
:1025E00090F8570006F0C4F9082805462DD0FFF7EB
:1025F0000FF958BB657784F81C8084F85070FFF79A
:1026000029F9054606F0FEFD174BA5FB03351B18FF
:1026100045EB01050022C4E9123584F85E2011461D
:102620002046FFF7C5FC70B940F27A412D20FDF736
:10263000E1FD3746082504F151010020FEF7D0FFE7
:102640000028D7D10020BDE8F0810825022EF2D065
:10265000E37E002BF6D0D4F81530C4F85130B4F82E
:102660001930A4F85530C5E740420F00F0B5484E88
:10267000327985B0044602F0FF0312B90278FF2ACE
:1026800004D140F6B7112D20FDF7B4FD3382B360BD
:102690007371B37180F871303E4B00933E4B0193E0
:1026A0003E4B0293336A68465B68039300F068FE12
:1026B00000F09EFC00F0B6FE00F056F9384800F03D
:1026C0002BFD04F12805374800F054FE284606F09B
:1026D000FEFB284606F000FC00F028FD21792520AD
:1026E00000F054FC94F9120000F010FD04F13401E4
:1026F000206B05F052FC04F13C010746206B05F00D
:1027000073FC0546E7B194F82430CBB1B4F92E50F0
:10271000ED43ED0F237F13B963885B0709D5D4E937
:1027200012126FF000439A4208BFB1F1FF3F0ED181
:10273000ADB930680330FFF7ABF8B07405B0F0BD49
:10274000002DE7D094F82550002DDFD1E2E706F008
:1027500059FDD4E91223904271EB0303E8D301221F
:1027600029462046FFF724FC68B1FFF773F80546B9
:1027700006F048FD0C4BA5FB03351B1845EB010586
:10278000C4E91235D5E7002DD3D040F6F4117AE72D
:102790002C0A0020FD2400009920000045210000A3
:1027A000D6BE898E5555550040420F00F7B50446F8
:1027B000FFF75CFF00212046FFF7CAFDA36E0BB1B7
:1027C00001221A606388DB0721D50023114E256A98
:1027D000CDE90033FF23F37405F10A076846FEF7DD
:1027E00007F9A0B9009CA542F8D06A7A607A3B4606
:1027F00004F10A0106F091F80028EFD0A378F374F1
:10280000D4F803007061044BB4F807209A8003B039
:10281000F0BD00BF2C0A0020400A0020024BD86106
:102820001B6A1B68184700BF2C0A002043881B073F
:1028300010B5044611D5036A0A493C2280F87B2072
:102840001B88A0F87C30FF2380F899304FF6FF7387
:10285000A0F89A30723006F03EF9FF2384F8713008
:1028600010BD00BF458B0000978B0000A524000021
:102870009D8B00007D220000AD2700006D20000030
:10288000ED240000682800006C2800007428000077
:102890000138022808B503D9C3212F20FDF7AAFC6F
:1028A00013290A4B05D811290CD8102907D0D1219A
:1028B000F3E71529FBD103EB4003D88801E033F897
:1028C000100008BD03EB40039889FAE710280100C7
:1028D000064BD3F8000138B1D3F8040120B1D3F886
:1028E0000801B0FA80F04009704700BF00F00040D6
:1028F000034B00221A705A7010229A70704700BF62
:10290000680A002070B50646022014460D4600F005
:10291000B9F8064B01221A70054B033CC3F8104569
:10292000C3F80865C3F8045570BD00BF680A0020ED
:1029300000F0004008B5022000F0A4F8084B012286
:102940001A70084B0022C3F80021C3F80421C3F811
:10295000082103F580334FF40002C3F8042508BDB5
:10296000680A002000F000400D4A08B513787BB1DA
:102970000C4B4FF40001C3F80815FFF7A9FF60B135
:1029800001235370084BD3F8003493700023137065
:10299000BDE80840002000F075B850701023F4E73F
:1029A000680A002000F0014000F000400A4B1A784D
:1029B0006AB10A4BD3F800215AB1D3F8040120B10F
:1029C000D3F80801B0FA80F04009C0B270475878D7
:1029D00070470220704700BF680A002000F00040E6
:1029E00008B5074B1A783AB1FFF772FF30B1054BC3
:1029F000D3F80004C0B208BD9878FCE71020FAE7CD
:102A0000680A002000F00040024B00221A705A7041
:102A10009A7070476B0A0020084B1A784AB108492F
:102A2000084AC1F808250022C1F89825C1F89C255C
:102A30001A7000225A709A70704700BF6B0A00200B
:102A400000F001400000020208B50B4B4FF40042B9
:102A5000C3F88020BFF34F8FBFF36F8F074B002267
:102A6000C3F80025C3F80025FFF7D6FF044B4FF449
:102A70000002C3F8082508BD00E100E000F00040B6
:102A800000F0014038B5144C0023C4F80035C4F8F8
:102A900000350546FFF7C0FF104B4FF40002012D33
:102AA000C3F8082503D0022D08D085B938BD02230C
:102AB000C4F800350A4BC4F81435F7E70321C4F80D
:102AC00000150749C4F81415C3F80425EEE787215B
:102AD0003D20FDF78FFB00BF00F0004000F00140FB
:102AE000700A0020024B00221A809A701A717047F7
:102AF000800B002038B5144D95F83D20034608465C
:102B000022B940F687013E20FDF774FB6BB9012A1C
:102B1000AC6B95F83C1005D100F00EFE20442B6BF9
:102B2000C01A38BD06F0B5FAF8E7012B0AD1012A20
:102B3000AC6B95F83C1002D100F0F0FDEEE706F02A
:102B4000B3FAEBE70020EAE7800B002008B5094B59
:102B5000012883F82400084B06D0022808D040F64C
:102B60003D513E20FDF746FB0322C3F8102508BD6A
:102B70000422FAE7800B00200010004008B5144B37
:102B800093F84A30D90720D59A070ED5114BD3F8C0
:102B9000002242F00102C3F80022D3F8500500F0F1
:102BA000F600023818BF012008BD5B070DD50A4B9F
:102BB0000A4AC3F8AC25A3F5B833D3F8403123B1A2
:102BC00040F276613E20FDF715FB0120ECE700BFE7
:102BD000800B00200010004000F001400810004071
:102BE00007B50B4A01AB92F9252000F0E9FD9DF9EC
:102BF000040000F08BFD9DF8050000F059FE20B1A7
:102C000040F23F613E20FDF7F5FA03B05DF804FBAA
:102C1000800B002008B503460F4863B92831C16016
:102C20000E4900F02DFE0130012814D94FF4EB615C
:102C30003E20FDF7DFFA012B0AD12931C160074997
:102C400000F024FE0130012805D940F26271EFE75F
:102C500040F26671ECE708BD280000203028010032
:102C600008B50C4B9B78012B09D100F015FE013003
:102C700001280ED940F6D8013E20FDF7BBFA022B01
:102C800007D100F00FFE0130012802D940F6DE0125
:102C9000F2E708BD800B0020084B094A1B8DB3F5F5
:102CA000166F3ABFA3F6381343F48073A3F5166387
:102CB000C2F80835C2F85405704700BF800B0020E9
:102CC0000010004038B50D460446FFF73FFF284688
:102CD000FFF7E2FF29462046104DFFF781FF40F243
:102CE0000313C5F8343540F25B63C5F8383504F09A
:102CF000D9FB90B14FF08053D5F88825D3F8203315
:102D0000022C22F4FE420CBFC3F30663C3F3062376
:102D100042EA0323014AC2F8883538BD001000405A
:102D200010B50C46FFF712FF2046FFF7B5FF124B18
:102D30005A78012A03D1D8782146FFF751FF0F4C6A
:102D4000D4F8003243F48873C4F8003240F203131D
:102D5000C4F8343540F25B63C4F8383504F0A2FBA4
:102D600040B904F0AFFB28B9D4F8683543F4C02368
:102D7000C4F8683510BD00BF800B00200010004073
:102D8000F8B53C4C0D4616460746002845D110467E
:102D900094F82610FFF796FF22780123A3709A4239
:102DA000354B4FEA46061E4428D1338B4FF47A72D6
:102DB00003F5FA73B3FBF2F3ED1A216B2F4B304A94
:102DC0000D44C3F8405503F5A073C2F8A835236C31
:102DD00043F4002323644FF40023C2F8043523781E
:102DE00093BB94F84A3043F0020384F84A30FFF76B
:102DF000C5FE044678BB4FF4D16122E0F38B4FF45B
:102E00007A7103F5FA73B3FBF1F3ED1A002AD4D10A
:102E10001B4B1C4AC3F8AC25CFE701280FD194F80F
:102E200026101046FFF77CFF0223A3702378012BA6
:102E3000C3D0293D002BC0D1114B134AEAE740F61D
:102E400009013E20FDF7D6F9012BD0D194F84A3084
:102E500043F00403C9E7094B0122DA64D3F84C3587
:102E60009D4205D929463846FFF7D4FE2046F8BDD5
:102E70000024FBE7800B0020302801000080004088
:102E800000F00140001000400410004010B5602226
:102E90000021194804F04CFCFFF724FE04F0B8FAB6
:102EA00060B124221548FF2104F042FC4FF080431A
:102EB0000022C3F8082EC3F8102E10BD04F0B2FA99
:102EC0000028EED104F0B8FA0028EAD104F0D4FAD0
:102ED00008B14022E6E704F0C5FA04460028F8D11C
:102EE00006483822FF2104F023FC4FF08043C3F84A
:102EF000084EC3F8104EE0E7800B0020000E0040A3
:102F0000034B034493F8240000F51660704700BF9C
:102F100030280100094AD2E90C3092F83C10C01A5E
:102F2000074B03EB8103DA6C9B6D801A03F2F313FA
:102F30004FF47A72B3FBF2F3C01A7047800B002093
:102F40003028010008B50F4A92F83C10012906D03C
:102F5000022914D040F2A6213E20FDF74BF940F69D
:102F6000B830D2E90C239B1A074A02EB8102D26CDB
:102F70009B1A4FF47A72B0FBF2F0184408BD4FF47C
:102F8000FA60EEE7800B002030280100FF2808B52A
:102F900004D940F2C2213E20FDF72CF9124B012941
:102FA000A3F8480004D0022919D040F20731F2E713
:102FB00000230E4A43F4801340F0007043F48473FE
:102FC00040F44030C2F81435C2F81805D2F8503534
:102FD00003F0F703032B05D140F21D31DBE74FF07F
:102FE0008073E6E708BD00BF800B002000100040A2
:102FF0003F4B022270B5C3F88020BFF34F8FBFF361
:103000006F8F3C4C0023C4F8FC3F0123C4F8FC3F05
:1030100004F058FA28B1D4F83C3743F48063C4F87C
:103020003C3704F013FA58B1D4F83C3723F000438E
:1030300023F0FF0343F0004343F09603C4F83C370A
:1030400004F030FA2B4C38B1D4F8403723F47F43E6
:1030500043F4B053C4F84037274BC4F8783700F036
:1030600039FC38B14FF08053D3F83033591C18BFB6
:10307000C4F84C374FF010231E4C1B6E5A1C09D05D
:10308000D4F88C251B0403F47F0322F47F0213433E
:10309000C4F88C35194D0123C4F8303585F8243037
:1030A0000323C4F8103540F20123C4F85036022639
:1030B000134BC4F80062187C00F012FC114B124A4A
:1030C000C3F804250023AB87AB6385F84A3002F0D0
:1030D00075FE074B28631022C3F88061C4F80423EF
:1030E0001E602B6E03B19847BDE8704000F0BCBB7A
:1030F00000E100E0001000402C000089800B00205F
:103100002800002000F001400000020C014B83F871
:1031100025007047800B0020034B020E0002C3F80D
:103120002425C3F81C05704700100040054A064BD3
:1031300082F82600184490F8243003F516631385AE
:10314000704700BF800B00203028010010B50446F6
:103150000068FFF7E1FF094B6268C3F83C25207A5D
:10316000FFF7E4FF617A6089FFF710FF607AFFF7ED
:10317000EDFC034B227B83F8252010BD001000409E
:10318000800B0020F8B5244E96F84A30DA07054641
:103190000F4604D440F29D713E20FDF72BF81F4CE2
:1031A000D4F8002243F0020342F00102C4F80022E6
:1031B00086F84A30F8B996F826103846FFF782FDAF
:1031C000174A0123B370D3642360154BD3F84C45E1
:1031D00028462146FFF71EFD306B241AC5B9114958
:1031E00001EB47074FF47A71F88B00F5FA70B0FBEA
:1031F000F1F02044F8BD0128E7D196F826103846B2
:10320000FFF78EFD0223B370054BDD646560DCE7DC
:1032100004F12900EEE700BF800B00200010004001
:10322000008000403028010008B5FFF7A9FD58B91B
:10323000064BC3F84005A3F5E04301221A610220C2
:10324000BDE80840FEF790BD08BD00BF008000400B
:1032500037B5244B2449D3F8044302224FF0FF3002
:10326000C3F80803C1F880212049C3F800220022D6
:1032700081F84A201E49C1F8402501F5B8314FF4C4
:103280006025C1F80855D3F85015C9B204F01004F0
:10329000D1B18DF80700C3F8102101221A619DF801
:1032A000072012B1D3F810213AB19DF807305BB96D
:1032B00040F6C7013E20FCF79DFF9DF80720013A2C
:1032C000D2B28DF80720EAE7FFF7CAFC05490023D0
:1032D000C1F81031FFF706FC14B11023C1F8043314
:1032E00003B030BD0010004000E100E0800B002082
:1032F0000080004038B51B4D0024C5F84845C5F88E
:103300004445C5F84045C5F84C45FFF7A1FF00F01E
:10331000B1FA154B15491A6C1C6442F0446242F430
:103320000032C1F80825C3E90D441C77104BC5F8DD
:1033300048450222C5F84445C5F84045C5F84C4506
:10334000C5F84841C5F84441C5F84041C5F84C416D
:10335000C3F88020BFF34F8FBFF36F8FC3F8802176
:1033600038BD00BF00800040800B002000F001400D
:1033700000E100E0014BC3F83C057047001000403D
:1033800010B50FC8014C84E80F0010BDE40B0020FD
:1033900008B50A4BC3F80405094B93F84A20586452
:1033A00042F0010283F84A20FFF7E8FB20B940F61B
:1033B00048113E20FCF71EFF08BD00BF0010004072
:1033C000800B002010B50F4C034694F83D0094F894
:1033D0003C100222012822774FF0960094F8242016
:1033E0000CD100F0B7F9084A20620023C2F844313A
:1033F000A36B216A0B44C2F8443510BD00F0C4F938
:10340000F1E700BF800B002000800040044BC3F8B0
:103410006005D3F8002242F04002C3F80022704752
:1034200000100040054BD3F8002222F04002C3F800
:1034300000220022C3F86025704700BF0010004042
:1034400008B50D4B0246D97008460021197082B9A3
:1034500001225A709A78022A0DD193F82610FFF7AC
:10346000BFFB064AD2F8003243F48873C2F8003238
:1034700001E002225A7008BD800B002000100040BD
:103480002DE9F843954D964C0123EB64236BD5F859
:103490004C75B4F84890FF1A03F05CFA0026C4E9B2
:1034A0001406A765FFF7DCFB8E4B226C8E49C3F830
:1034B00008252664D1F8003223F48E7323F001032B
:1034C000C1F80032237F84F84A6023B1D5F8443133
:1034D0009B1B18BF0123A278012A34D1D1F80C31EB
:1034E000002B0CBF0025082515F00B0F7E4B04D1D7
:1034F000D3F8101109B145F010050021C3F80011EF
:10350000C3F80C11C3F81011C3F80411C3F8081163
:1035100005F01803102B03D1012A08BF45F0200540
:103520006E4BD3F84815A163D3F844356363022A80
:1035300094F8243084F83D201BD1D3B940F24621C1
:103540003E20FCF757FE022A11D16749D1F80C0141
:10355000D1F8001400280CBF00250225C90758BF68
:1035600045F00405002BBFD045F00105BCE7002560
:10357000BAE7667884F83C303EB9FFF7B3FA2677AD
:10358000EF0749D5636E984775E015F0110F21D10B
:103590002379B6F1010818BF4FF00108012B2678F6
:1035A0001CD0022B2DD08BBB96214046FFF7A2FAF0
:1035B0000146FFF797FA012E07D13B378F4228D8F3
:1035C000464B26700022C3F84021E2784046FFF7C0
:1035D0002BFE01E0FFF73CFE0026D1E74348FFF752
:1035E000B5FD94F83D3013B940F29471A8E7012B72
:1035F00004D1FFF7A7FCA1690144DAE7FFF78AFCD1
:10360000F9E73A48FFF7A2FDA169D2E740F6DE21CB
:1036100096E7354B1E61B3E7A80744D503F042FF98
:10362000E0B903F04FFFC8B92F4BD3F85034D9019C
:1036300014D51A0705D013F0F00F02D013F4706FF1
:103640000CD1294AC3F304410129D2F8542405D1ED
:10365000012A03D0C3F34253022B93D9636C5B78E6
:103660004B4588BF45F0040585F00400A36E314644
:10367000C0F380009847A378022B12D1237F83B137
:10368000022B164A1DD1A36B216A0B44C2F84435A4
:10369000236C43F480032364124B4FF48002C3F87D
:1036A0000425BDE8F88315F0280F06D085F0200129
:1036B000E36EC1F340113046DCE7EB06DBD5236F48
:1036C00061E7012B02D040F6074139E7236AA16B7D
:1036D0008B42DBD840F6084132E700BF0080004053
:1036E000800B002000F0014000100040880B0020FB
:1036F000024B03EB8003D86C704700BF30280100F9
:10370000014B53F82000704788280100024BC0B2DB
:10371000C3F80C05704700BF00100040054B33F89C
:10372000113002384FF47A7203F2E733B3FBF2F34D
:1037300018447047A0280100054B33F811304FF4AE
:103740007A7203F57A73B3FBF2F31844704700BF43
:10375000A028010038B51D460A4B33F8111003EBC1
:10376000820305359C6821444FF47A7301F6B73122
:1037700003FB00141046B4FBF3F4FFF7B9FF2C442D
:10378000204438BDA028010070B5064608461546FD
:10379000FFF7B6FF094A02EB850293684FF47A728D
:1037A00003F6B73302FB06331C1A2846B4FBF2F4C7
:1037B000FFF79EFF0530204470BD00BFA028010028
:1037C0002DE9F04F264C87B0074698460D46164621
:1037D00000F0A8F82378BB42814611D16378AB4250
:1037E0000ED194F90230B3420AD1E378834207D173
:1037F000A388A8F8003094F9060007B0BDE8F08F60
:103800007B1EDBB2032B0DD8164A12F803A0294603
:103810000DF117033246504600F08AF838B13E21C8
:10382000A92002E040F2C6410620FCF7E3FC039029
:1038300028469DF917B0FFF763FB039A00920346F1
:1038400052464146584600F039F8B8F80030A071A9
:10385000A38027706570A67084F80390CBE700BF43
:1038600040000020B4280100014B1B685B6818472A
:103870006C000020014B1B689B6818476C000020FF
:10388000014B1B681B6918476C000020014B1B682B
:103890005B6918476C000020014B1B689B69184747
:1038A0006C000020014B1B68DB6918476C0000208E
:1038B000014B1B689B6A18476C00002030B4044C15
:1038C0009DF8085024680295E468A44630BC60471F
:1038D0006C000020014B1878704700BF18110020C1
:1038E00000220F4938B50446134644FA02F0C007D7
:1038F000D5B248BF581C02F1010244BFCD54C3B237
:10390000042AF2D1064DC3F10402042BD2B24FF0C7
:10391000FF0188BF0022E81803F00AFF2C7138BDB0
:1039200024110020014B187D704700BFF80B0020C8
:10393000042810B511D883B104280CBF1024282402
:10394000A1420AD2064C54F8200018B141568A42CE
:10395000A8BF0A461A70002010BD6FF01500FBE7E3
:10396000F80B002030B50346114890F91C209A420C
:1039700019DD90F924209A4217DA9A1A846AA05C19
:103980000C4A15569D420DD00E32002918BF013049
:103990009442C0B206D129B1013BDBB2012B01D860
:1039A0000130C0B230BD0D20FCE70020FAE700BFB7
:1039B000F80B0020B828010008B5054B93F91C301E
:1039C000984203DAFFF7CEFF024B1B56184608BD9C
:1039D000F80B0020B828010010B51C4C94F82C30CE
:1039E00073B9012384F82C3003F026FD48B1184B3D
:1039F000A362D823236284F824300823A3612377A9
:103A000010BD03F02FFD0028F1D103F035FD002893
:103A1000EDD103F0F3FC38B10E4BA362D82323623F
:103A200084F824300423E9E703F0F2FC0028F3D102
:103A300003F0F8FC0028EFD103F008FD0028EBD1DB
:103A400040F2BF11742003F09FFA00BFF80B002072
:103A5000F3280100C628010010F0FF0008B508D1C6
:103A60004FF0804301225A60C3F80001034B1870E5
:103A700008BD8421B52003F087FA00BF250C002083
:103A8000014B01221A707047250C002008B558B967
:103A90004FF08043D3F8003123B9054B187800F07C
:103AA000010008BD0120FAE7D021B52003F06CFA2F
:103AB000250C0020F8B50F4E0127375404460D465B
:103AC00005F04BFB60B934B94FF08043B7707560B7
:103AD000C3F80473F8BD4FF488716D2003F054FAF5
:103AE000002DF7D01CB92046A8477460F2E740F2D9
:103AF0002B11F2E7280C0020044B191800228A70C1
:103B000003EB80011A544A60704700BF280C002064
:103B100010B5034CA08100F095FCE08110BD00BF02
:103B2000280C0020014B188A704700BF280C002089
:103B3000014B9889704700BF280C0020014BD889A1
:103B4000704700BF280C002010B5EFF3108472B648
:103B5000064B03449A7C0132D2B29A749B7C012BAF
:103B600001D105F0EEFA04B962B610BD280C0020B0
:103B700038B505F02DFB05F0F0FA094C4FF0804503
:103B800040B105F012FB01232B61042323750023B0
:103B9000637538BD032323750123C5F80433F6E7A5
:103BA000280C002010B5EFF3108472B6094B0344C3
:103BB0009A7C22B940F249216D2003F0E5F99A7C04
:103BC000013AD2B29A749B7C0BB9FFF745FF04B956
:103BD00062B610BD280C0020024B187D003818BFBB
:103BE00001207047280C002073B51B4DEB7D63B995
:103BF000686A00F0030005F0C8FA30B1EFF31083F3
:103C000072B62A7D1AB103B962B602B070BD012244
:103C10002A7503B962B64FF080430822C3F808231F
:103C20004FF42073ADF80630BDF80640A4B2631E11
:103C30009BB2ADF80630002CF6D14FF08046074815
:103C4000C6F80C4105F0FFFA85F82940FFF790FF10
:103C50000823C6F80433D8E7280C0020500C0020B5
:103C60002DE9F347484CA37D002B00F08A80032305
:103C70008DF8043000224FF080438DF80520D3F8F2
:103C80000051F5B9D3F80481B8F1000F09D04FF015
:103C900080430022C3F804210222C3F80823FFF75F
:103CA000A3FF94F8296039484FF08047F6B2D7F85F
:103CB0000C8105F0CCFA30B340F235316D2003F0C1
:103CC00063F98DF804200121D3F80481C3F80813A7
:103CD000271DA61C15460DF1040A914615F80A0089
:103CE000032808D0337833B13B6886F8009013B1CD
:103CF0009847C7F80090012D07F1040706F1010667
:103D0000C2D00125EAE745B1237D032B05D1042369
:103D1000237505F04AFA01233B61B8F1000F16D074
:103D20004FF080430022C3F80C21237D042B02D0E6
:103D300040F25B31C2E703F0A9FBC8B14FF080430A
:103D40000022C3F8342C0223237505F044FA4EB147
:103D5000002384F82930237D022B01D1FFF708FFCF
:103D600005F039FA094802B0BDE8F04705F07EBA1F
:103D700003F06CFB0028E1D103F07EFB0028DDD1CD
:103D8000E1E702B0BDE8F087280C0020500C0020CD
:103D900010B5054C606A00F0030005F0F6F9002844
:103DA000F8D0002010BD00BF280C0020F8B5054653
:103DB00050B10278042A07D8437842B9013B1F2B3F
:103DC00002D88378212B07D96FF0150097E0002BDC
:103DD000FAD18378002BF7D1854B0127C3F8807087
:103DE000BFF34F8FBFF36F8F4FF08046C3F88071E2
:103DF000804C4FF0FF33C6F808330023C6F800317B
:103E0000C6F80431C6F80C31A374E374AB8823827E
:103E100005F0A6F908B12770A774D6F80C24D6F8D7
:103E20000C34D20303D5DF0701D5FFF729FE4FF489
:103E3000AF60FFF76DFE2B78A978E3750022626210
:103E400021766275042B2CD8DFE803F005031927CF
:103E500029000123636205F08AF9002850D005F09B
:103E60008DF9636A03F00303984249D1AB79EBB94A
:103E7000FFF78EFF00281EDA4FF4A36113E005F070
:103E8000A7F94FF08043D3F80C14D3F80C24CE03D9
:103E9000F9D5D007F7D50223DCE7574BDAE7574BC4
:103EA000D8E740F20A516D2003F06EF84FF08043DE
:103EB0000222C3F80423237E6BB12B785BB905F093
:103EC0004CF9054603F0E0F96FF00043002D00F0D7
:103ED0008C80C4E907034FF08043D3F80C24D3F857
:103EE0000C34D20303D5DB0701D5FFF7C9FD404AE7
:103EF000012300202075A375C2F880311360F8BD3E
:103F00004FF080430122DA600022C3F80421626A84
:103F1000C3F8182503F072FA10B34FF080534FF036
:103F20008042D3F84432C3F34233C2F83C3503F045
:103F300065FA10B34FF080430122C3F84C254FF0CF
:103F4000804301229A600222C3F80423AA79002A3E
:103F5000B1D1D3F8042391071CD440F2BD41A2E7AC
:103F600003F056FA0028D8D103F05CFA0028D4D127
:103F700003F06CFA0028D0D1D9E703F049FA002801
:103F8000D8D103F04FFA0028D4D103F05FFA00280B
:103F9000D0D1D4E71A4A1669116941F010011161B4
:103FA000D3F8043106F010060BB905F06CF94FF0A8
:103FB0008047D7F8043133B1FFF7EAFE002805DA6D
:103FC00040F2D7416FE705F05CF9F2E726B90C4AF9
:103FD000136923F0100313614FF080430222C3F8EA
:103FE00008230022C3F8042165E7C4E9073072E71B
:103FF00000E100E0280C00200100020001000300A5
:1040000000ED00E010B50D4C04F1280005F01FF99B
:1040100048B9237D022B01D1FFF7AAFDBDE810406E
:10402000074805F023B9074A012384F82930BDE881
:104030001040C2F8003105F0CBB800BF280C0020BA
:10404000500C002000E100E00C4A38B50D46117913
:1040500019B18A216F2002F097FF58B9547944B9F9
:1040600001235371FFF770FD20462946FFF722FD1B
:10407000204638BD6FF01500FBE700BF540C002050
:1040800038B50C4D2B7904461BB1A1216F2002F0ED
:104090007BFF48B96B7953B1FFF72EFD20466C7159
:1040A000FFF780FD204638BD6FF01500FBE718468E
:1040B000F9E700BF540C002008B501B3F0B14FF090
:1040C000FF331A46E0FB01320E498A4203D9E2214E
:1040D0006F2002F059FF180D40EA0230C3F30F13AE
:1040E0004FF22441B0FBF1F203EB0040064B03FB1F
:1040F0001200B0FBF1F040EA0240013008BD084672
:10410000FCE700BF3F420F00000024F4014B9B6816
:10411000184700BF540C0020014BDB68184700BF54
:10412000540C0020014B1B69184700BF540C0020A1
:10413000034B1A790AB9FFF7F5BC988D704700BF99
:10414000540C0020034B1A790AB9FFF7F1BC988A86
:10415000704700BF540C0020034B1A790AB9FFF7CF
:10416000EDBC188E704700BF540C0020024B1B7929
:104170000BB9FFF739BD7047540C0020014B9B6908
:10418000184700BF540C002010B5144C2379A3B17C
:10419000636A9847002806DB94F82E3023B1012388
:1041A00084F83230002010BDFFF7E8FF0028F6DA6F
:1041B0004FF4D1716F2002F0E7FE094BA361094B68
:1041C000E361094B2362094BA360094BE360094B90
:1041D0002361FFF7EBFD0028E1D0E4E7540C002059
:1041E000913D000005400000D93B0000D191000046
:1041F000D7910000DD910000064B10B51C7924B169
:104200004FF4FB716F2002F0BFFEFFF781FC2046E8
:1042100010BD00BF540C0020014B1879704700BF3F
:104220008C0C0020054B1A79824283BF1B6800EB7F
:10423000400003EB00100020704700BF8C0C0020F2
:1042400043F60952C0F3080302FB03F3400A03F5E7
:10425000807302FB00F000EB5320704743F6095CCB
:10426000C0F3080210B50CFB02F2C0F34E24030E9B
:1042700043EA01230CFB04F0090E02F580724FEAB9
:10428000411C00EB52205A01B2EB030E4CEAD36CF6
:104290006CEB01044FEA841C4FEA8E12B2EB0E0263
:1042A0004CEA9E6C6CEB040C4FEACC0C4CEA527C52
:1042B000D200D31841EB0C01DA03C903801841EA9C
:1042C000534141F1000110BD430B48F2376C0CFB28
:1042D00003F34FEA134C00B5104B43F6095E0EFB97
:1042E0001C0000FB03F35B0D0EFB03FE03EB4C23F2
:1042F0000EF5745C0CF1080CB0EB5C2F08D80EF5D1
:10430000807EA0EB5E20C0B20B6010705DF804FBF5
:10431000013300200B6010705DF804FB6F0C01008E
:104320002DE9F04180460C4617461E4600F054F930
:10433000D0B13D4B9C426FD83C4A3D484FEA1851A2
:1043400041EA0431A2FB0143C8F30F149B0B04EBB9
:10435000014400FB1344A2FB04243648A40B44EAA6
:10436000034400FB148819E0334B9C4258D82F4A71
:104370002F484FEA587141EAC401A2FB0143C8F338
:104380004F349B0B04EB014400FB1344A2FB0424B9
:104390002A48A40B44EA034400FB148848F237631C
:1043A0004FEA583503FB05F52B0C43F60952244D13
:1043B00002FB138101FB05F56D0D05FB02F205EB18
:1043C000432502F574530833B1EB532F21D802F57E
:1043D0008072A1EB5222D2B2069B1A7000F0FCF858
:1043E00058B1E3035D194FEA544444F10004C6E9AF
:1043F0000054C7F80080BDE8F08123065D194FEA3C
:10440000142444F10004C6E90054C7F80080BDE854
:10441000F08101350022DFE79A219B2002F0B4FDF4
:104420009F219B2002F0B0FD3F420F0083DE1B4323
:10443000000024F440420F00FF7F841E0080841E91
:104440006F0C0100420B48F2376303FB02F2120CBF
:1044500043F6095C074B0CFB120101FB0333013BE4
:104460005B0D0CFB03FC5002B1EB5C2F88BF0130ED
:10447000184470476F0C010010B5094A92F80033D8
:10448000202B03D13E21022002F07EFD18214B4358
:10449000D018BDE81040D35840680321184700BF2A
:1044A000980C00200D4B0E491B78012B14BF4FF4C4
:1044B000E0224FF4C02222F48022C1F8482318BF22
:1044C0000023C1F80823074A99000A440021012B60
:1044D00042F8041B00D170470123F8E7D80F0020F1
:1044E00000B0004040B1004008B5124BD3F804259D
:1044F00022F00302C3F80425D3F8082542F0030292
:10450000C3F80825102292FAA2F2B2FA82F2092A1E
:1045100004DD09484FF4737102F02CFDC3F8102537
:104520000122DA60054B4FF48072C3F880211A60D3
:1045300008BD00BF00800040842F010000E100E0C2
:10454000114B4FF40062C3F88020BFF34F8FBFF3CD
:104550006F8FC3F880210D4B01225A609A60D3F807
:104560000425002AFBD10A49C3F808134FF4E021BF
:10457000C3F84813C3F84021C3F84421C3F84821C5
:10458000C3F80421704700BF00E100E000B0004024
:10459000020007000D4B4FF48072C3F88020BFF378
:1045A0004F8FBFF36F8FC3F88021094B01214FF06C
:1045B000FF325960C3F808230022C3F84025C3F82E
:1045C00040211961034B9A70704700BF00E100E081
:1045D00000800040D80F0020014BD878704700BF02
:1045E000D80F0020014BD3E904017047D80F0020F9
:1045F000044B054AD878054B002814BF10461846CE
:10460000704700BFD80F002040420F000080841E7A
:10461000044BDB78002B14BF4FF400404FF0807048
:10462000704700BFD80F0020044BDB78002B47F603
:10463000FF7008BF6FF07F40704700BFD80F0020A9
:10464000044B054AD878054B002814BF104618467D
:10465000704700BFD80F00203F420F00FF7F841E2D
:10466000044BDB78002B14BF4FF480404FF4000064
:10467000704700BFD80F002070B50246EFF31085D9
:1046800072B611491148CE7856B9D0F80445D0F821
:1046900004318BB18B6901338B61C0F80461F4E79D
:1046A000D0F84831D0F8044533B1FFF7D9FFB4EB67
:1046B000500F34BF0123002389690B4405B962B64A
:1046C000C2E90043104670BDD80F002000B0004082
:1046D00008B5094BD3F80425821AFFF7A5FF02405D
:1046E000012A06D9FFF7BCFF82428CBF02200020BE
:1046F00008BD0120FCE700BF00B000400228F8B56B
:104700000446174604D94FF4DD716C2002F03CFCDE
:10471000114BDB784FF48035854013B109B9002087
:10472000F8BD0E4B0E4EA20013440022C6F80853EB
:104730000846C6F848531A60FFF7CAFF0028EED1B2
:1047400004F5A87446F824100FB1C6F80453C6F84F
:1047500044530120E4E700BFD80F002040B10040DF
:1047600000B00040044B054AD878054B002814BF20
:1047700010461846704700BFD80F002020A1070040
:104780000040420F014BD3F80405704700B00040D1
:1047900070B50F4B0F4D104A104C0026C5F8006144
:1047A000C3F8A8254FF40022C3F8AC45C3F804258C
:1047B00004F03AFDD5F800312BB10123C5F80061B2
:1047C0006360E360F4E7013041F1000170BD00BFB8
:1047D00000F0014000B0004000B100400080004007
:1047E000B1F1FF3F08BFB0F1FF3F2DE9F0412D4C83
:1047F00005460E461ED12C4BD3F80031ABB12B4BE6
:104800002B4AC3F80825FFF74DFE00232377FFF757
:10481000C1FEFFF769FEFFF7BBFF0223C4E90401F5
:104820002370FF236370012739E004F0FDFCC51CF1
:1048300041F10006D4E90483B34208BFA845F2D091
:104840001A4B1B4AC3F80825FFF72CFEFFF7ECFEB6
:10485000002200EA05011046FFF750FF0746F0B1BD
:104860002378012B07D1FFF7DFFE00EA0800FFF7EE
:104870002FFF0128F6E700232377FFF78BFEFFF7D2
:1048800033FE0A4A01234FF000412370C2F8041599
:1048900004226270044AC4E90456C2F84833384618
:1048A000BDE8F081D80F002000B0004000F00140CA
:1048B0000000088037B540B1041FE4B2022C13D9C0
:1048C00040F23E416C2002F05FFB214B4FF48032FE
:1048D000C3F80823C3F84005C3F84001D3F84031BA
:1048E0000093009B03B030BD1A4D2B7893B16A78CA
:1048F00082420FD1184A1949C2F80815012B01D17B
:10490000FFF748FE00232B704FF0FF324FF0FF33CC
:10491000C5E90423124A4FF48033A340C2F8083398
:10492000C2F8483304F5A87352F82300FFF7D0FE0D
:10493000012818BF0B4B22B24FEA84041CBF002190
:104940001951084B53F822300193019BCAE700BF6D
:1049500000800040D80F002000F0014000000880D7
:1049600000B0004040B1004010B5224B114630B1BC
:10497000041FE4B2022C2AD940F2F9310BE0D3E94A
:104980000402B2F1FF3F08BFB0F1FF3F06D19B78B0
:1049900023B940F2D1316C2002F0F6FA11B940F29D
:1049A000D531F8E7144A4FF48033C2F804330123B9
:1049B000C2F840155364D2F8440500248142C2F87D
:1049C000444515D82046FFF775FF204610BD1A78DC
:1049D0002AB15B78834202D140F2F531DBE7FFF781
:1049E00023FE012201402046BDE81040FFF786BEAD
:1049F0001846EBE7D80F00200080004038B5364C51
:104A0000FF2300204FF0FF3223774FF0FF33C4E93C
:104A100004232070A061FFF7BDFDFFF791FD2F4A31
:104A20002F4BC2F800024FF400611960A0682D49B5
:104A300088B901230B60E378002B47D0FFF710FE05
:104A40000023421E0620FFF78FFF60BB40F2672164
:104A50006C2002F099FA244B244DC3F8A855C3F8F2
:104A6000AC05C3F85C194FF40021C3F80415052107
:104A7000C2F8401501211160D2F840110029FBD085
:104A80004FF40021C3F8081501215160D1600021C5
:104A9000C2F84011C2F84015C3F8A815C3F8AC1508
:104AA000C3F8AC15C7E722791149D30003F180435D
:104AB00003F5F833C3F81015A1F5A071C3F8141568
:104AC00001239340084AC2F8083538BD054B02223D
:104AD000C3F80423F9E700BFD80F0020008000408E
:104AE00000E100E000B0004000F0014040810040E3
:104AF00048B1004008B5FFF7D5FC054B4FF0FF3239
:104B0000C3F808230022C3F84025C3F8402108BD9C
:104B10000080004008B50122084B10B1C3F84423BF
:104B200008BDC3F84823FFF735FD054B4FF0FF31B3
:104B300018704FF0FF30C3E90401F1E700B0004006
:104B4000D80F00202DE9F041334D344EDFF8D080EE
:104B50000024D5F804334FF48031A140194221D00C
:104B600056F82430A700EBB198F803305BB1022C63
:104B700009D1062001F060FDBB599BB940F2734199
:104B80006C2002F001FA04F5A87355F82300FFF732
:104B90009FFD38B10023201DBB51C0B2C5F80813DA
:104BA00001F04AFD0134032CD3D11D4A1A49D378B0
:104BB00043B3D1F84831FBB1FFF736FDD1F8484592
:104BC00015790123A04203FA05F317D1D1F80405A2
:104BD0008442FBD0916901319161124AC2F80835D3
:104BE000FFF73EFD0219FFF71FFD0B4B0240C3F814
:104BF00048250022C3F84821BDE8F081094AC2F8DF
:104C00000435EDE7D1F804010028F5D0C1F80431EE
:104C1000936901339361EFE700B0004040B1004079
:104C2000D80F002000F0014010B51C4C237FFF2B53
:104C30002DD0237883B10122022BA27021D1184BF1
:104C40004FF40022C3F80825002323704FF0FF32F1
:104C50004FF0FF33C4E90423124BD3F80423D203EB
:104C60001BD5D3F84021C2B14FF480320020C3F8E5
:104C70000823C3F84001FF232377BDE8104001F06B
:104C8000DBBC022360782370FFF714FEE4E7054BDA
:104C9000D3F804330BB10720EFE710BDD80F002085
:104CA00000F00140008000402DE9F04F95B01C4617
:104CB0000492CDE90101FFF795FC182305460F4644
:104CC0000820B84904EB440213FB0404631801EB09
:104CD000C2026458197BD3F8049093F80DA0059193
:104CE000083201F1010B0FCA0DF1380C8CE80F00EE
:104CF0000394FFF799FC2040FFF7A2FA8046FFF7E4
:104D000031FD0090FFF774FC0646FFF799FC8045E3
:104D100008EB0B0200F2BA81009B9B4500F3B181C6
:104D2000B24280F28F80002AB6BF9319009200939E
:104D3000FFF7F8F9BAF1010F834609D0DFF868826E
:104D4000D8E90223B3F1FF3F08BFB2F1FF3F4CD0D7
:104D5000FFF702FAB7F1FF3F08BFB5F1FF3F06903A
:104D600003D0AC4279EB07036FD2019B03210022F1
:104D7000E31A8B4261DBDFF83082D8E902319C42D2
:104D800079EB010045D2B1F1FF3F08BFB3F1FF3F1E
:104D900040F08681019B0792E61A029B69EB030BA8
:104DA000FFF7DAF90930C31786427BEB030380F083
:104DB000E380049B079A012B00F0E880002A48D189
:104DC000B7F1FF3F08BFB5F1FF3F42D0291B67EBAA
:104DD0000903042973F1000080F23D81012973F178
:104DE00000032ADA9346039544E00028B0D1FFF788
:104DF000B3F9B7F1FF3F08BFB5F1FF3F069004D00C
:104E0000AC4279EB070380F0AD80019BC11C01220D
:104E1000AEE7BBF1000FBDD1B1F1FF3F08BFB3F169
:104E2000FF3FB7D00698E31A69EB0101834271F1A5
:104E30000003AFD2BAF1010FACD00026304615B056
:104E4000BDE8F08F931B009372E700212B460A46C2
:104E50008EE720464946FFF7C3FC4FF0000B0028C1
:104E6000EBD0B9F1FF3F08BFB4F1FF3F00F0138171
:104E700025464F46FFF7D8FB039B1840FFF7E0F9A4
:104E80000646FFF76FFC0190FFF7B2FB0290FFF7B9
:104E9000D7FB009B01999A1B91420DD8A6EB030CFE
:104EA000614500F2B7809042C0F0D080604580F04C
:104EB0000181029A32449A1AD3170020FFF754FD59
:104EC00006460028B9D0BAF1010FD8E902236FD005
:104ED000BBF1000F40F08780B3F1FF3F08BFB2F194
:104EE000FF3F00F0C780D8F818304FF08042012013
:104EF000C2F808051860FFF70DFEB8F81030002B57
:104F000040F09D8000238DF8483008934FF0FF3229
:104F10004FF0FF33CDE90A23DDF814808DF845A06A
:104F2000CDF83C908DF844800E940DF1200CBCE837
:104F30000F001E4F3D460FC5BCE80F000FC59CE893
:104F40000F0085E80F0020464946FFF787F94346E2
:104F500001331B1841F100013046C7E9043115B097
:104F6000BDE8F08F98F81030002B069B14BF00218D
:104F7000194601222B46FBE620464946FFF730FC46
:104F8000BAF1010B18BF4FF0010B68E7B7F1FF3F13
:104F900008BFB5F1FF3F00F0888003954FF0000B8C
:104FA00068E700BF980C0020F80F0020A00F002039
:104FB000B3F1FF3F08BFB2F1FF3F1AD1BBF1000FC1
:104FC0002BD1B8F81030002B39D1BAF1010F99D19B
:104FD000621E69F100030520FFF7C6FC002840D0DF
:104FE00088F811A08EE7B3F1FF3F08BFB2F1FF3F91
:104FF00013D0FFF791F8D8F818204FF0804C002319
:105000004FF0FF304FF0FF31C8E902011360CCF8D8
:105010000835D3E7CCF100024EE7069BEA1A67F1A8
:1050200000030520FFF7A0FC00283FF406AF98F826
:105030001030002BC9D1012388F81030C5E70520B6
:10504000FFF738FC0023A8F81030BEE71A46029B91
:105050001A44921B30E7204649469346FFF7C0FBAF
:10506000FDE6D8F818304FF08042C2F808A5C3F822
:1050700000A047E7FFF74AF804F0D6F8C8E90201B4
:1050800031E740F23141702001F07EFF4FF486613C
:10509000702001F079FF4FF4FB61702001F074FF84
:1050A00040F2BF71702001F06FFF40F23B71702041
:1050B00001F06AFF40F6B201702001F065FF00BF09
:1050C0002DE9F04F8F4FBC7C04EB44033B4483B08D
:1050D0005D78202D4AD08C4BE6B26400002B00F0A6
:1050E0008D808A4BDFF82892002B61D005EB4612A9
:1050F00007EB420A4FEA46189AF81C30013BDBB234
:10510000052B36D8834A12F803B0BBF1080F30D014
:10511000EFF31083019372B634443C44AFF3008044
:105120009AF81D206270A278019BAA4204BF202237
:10513000A27013B9AFF3008062B6A84405EB450531
:1051400009EBC50207EB4808506859F835300122D1
:10515000594688F81C209847BC7C04EB44033B4428
:10516000E6B25D78202D4FEA4404BFD103B0BDE81C
:10517000F08F40F20571702001F006FF62B6A8447E
:1051800005EB450509EBC50207EB4808506859F8DF
:1051900035300122594688F81C209847BC7C04EB26
:1051A00044033B44E6B25D78202D4FEA4404DDD051
:1051B00005EB461207EB420A4FEA46189AF81C30F4
:1051C000013BDBB2052BD4D8524A12F803B0BBF135
:1051D000080FCED0EFF31083019372B634443C44F1
:1051E000AFF300809AF81D206270A278019B95426F
:1051F00004BF2022A270002BC1D1BFE7434BDFF8D0
:1052000014B1DFF80CA14FF02009002B4FD005EBB3
:10521000461207EB42024FEA4618137F013BDBB20E
:10522000052BA6D81BF803100829A2D0EFF3108392
:1052300072B634443C44527F6270A278954208BFF3
:1052400084F80290002B52D0A84407EB480805EBE5
:1052500045050AEBC5025AF835305068012288F836
:105260001C209847BC7C04EB44033B44E6B25D78C9
:10527000202D4FEA4404CAD178E762B6A84405EB72
:1052800045050AEBC50207EB480850685AF8353067
:10529000012288F81C209847BC7C04EB44033B4463
:1052A000E6B25D78202D4FEA44043FF45FAF05EB92
:1052B000461207EB42024FEA4618137F013BDBB26E
:1052C000052B3FF656AF1BF8031008293FF451AFEA
:1052D000EFF3108372B634443C44527F6270A2787C
:1052E000954208BF84F80290002BC7D1C5E7019111
:1052F000AFF3008062B6A844019905EB450507EBC2
:105300004808A6E7F80F0020000000000000000099
:10531000980C0020242901002DE9F04F85B0DFF81A
:105320000C81019301EB41034FF0200C18F803406E
:1053300003916445924682F800C073D04B01DFF8B8
:10534000F09006469B4610E0727B012A02D0427D17
:10535000012A57D00BEB040308EB43038AF8004003
:105360005B7F202BA4465DD01C4604EB440009EB78
:10537000C000D0E9032387683568716813EB070E16
:1053800042F10002754571EB02024FEA4403DBD2A1
:105390001D46019B83F800C0039B4FEA431B28195D
:1053A00009EBC0003768B368D0F808A07268C1681C
:1053B000DB1942F100029A4571EB020310D3437DE1
:1053C000012B02D0737B012B03D0012005B0BDE877
:1053D000F08FFEF7C1FEAAEB070701308742F4DA2F
:1053E000019A254409EBC5051470A97DB27B0BEB2E
:1053F0000403914208EB430310D95C7F202CE4D0D6
:105400006500CCE70293FEF7A7FEED1B0130854255
:10541000A0DA029B9AF800C01D46BAE7002005B04A
:10542000BDE8F08F019B1C70CFE700BFF80F002094
:10543000980C00202DE9F04F83B00C4615461E460F
:105440009DF83070FEF7FEFF22686368451946F14B
:105450000006954276EB030342D3DFF88C8005E02B
:105460005D4576EB09033BD3C4E900B90DF10703B1
:105470000DF1060239462046FFF74EFF88BB9DF826
:10548000073003EB430308EBC303D3E902A01A6917
:105490001AF1030B40F1000012EB0B0B627B40F1A1
:1054A0000009012ADCD05B7D012BD9D1FEF754FE27
:1054B000ABEB0A0301308342D2DA9DF8073003EBED
:1054C000430308EBC303D3E902B9FEF745FE0130FD
:1054D00010EB0B0B49EBE0795D4576EB0903C3D28A
:1054E000002003B0BDE8F08F980C00202DE9F047B4
:1054F00015461C4612782F7A95F809C088B000230B
:10550000E360C4E90033A7739DF8408084F80DC0C0
:105510000646A360E2730F46E2B9FEF79FFE80469F
:105520008946FFF759F8002844D0D5E9040118F15D
:10553000270849F10009404571EB09034DD2013EAE
:1055400047F1FF37C4E900674FF47A73A36008B0EE
:10555000BDE8F087FFF74CF804F10C02013806A90A
:10556000FEF7B2FE3E4B1B78202B65D03D498B6980
:10557000D1E90721093342F1000A13EB01094AF18D
:10558000000A6B68207B1844023004AA04F1080169
:10559000C4E9009AFEF798FE2869CDF800803246EB
:1055A0003B462146FFF746FF08B9C4E9006708B04B
:1055B000BDE8F087D5E904012B4B18EB030349F153
:1055C0000002984271EB0203B9D218F1270849F1A1
:1055D0000009404571EB0903B1D3461E41F1FF3785
:1055E00004F10C03009303AA04AB30463946FEF7DE
:1055F00097FE68680025023045F100010DF10B03AC
:10560000801947EB010103AA009306ABFEF788FE61
:10561000DDE905030499079A5B1AC4E900104FF00D
:10562000FF3162EB0002994275EB02028ED240F22A
:10563000EC41702001F0A8FC637B16F1090947F1E9
:10564000000A012B9DD0FEF76DFD002899D1FEF7D1
:1056500083FD10EB090399464AF1000A91E700BF68
:10566000980F0020A00F00200040420F2DE9F04FBE
:1056700001EB4103994C14F8038083B0B8F1200F7B
:1056800001910D4606464FEA41073ED1944B0BB1BE
:10569000AFF3008003F0C8FDE37C202B81468A46EF
:1056A00009D0904B811CD3E906024AF100038842DD
:1056B00072EB03034ED3B8F1200F00F08980FEF7A0
:1056C0008BFF98B1884A08EB480302EBC302D2E98A
:1056D000022B0192FEF7C4FF019A10EB09004AF178
:1056E000000182427BEB010380F0CD8032464846C8
:1056F00051464346FFF7D8FA002800F0918084F81D
:105700001380022003B0BDE8F08F03F08DFDDFF8B9
:10571000D8A10190C4464FF020096B0106E092F831
:105720001DE0BEF1200FE14621D0F4460CEB4C0EFB
:105730000AEBCE0EDEE902BE834503EB0C027EEBE4
:10574000010E04EB42029B46E9D3B9F1200F05D1CB
:10575000E0459BD0002003B0BDE8F08F09EB451376
:1057600004EB4303CC4693F81DE04FEA451B7B193D
:10577000042014F8039004F803E049460BEB0103FE
:1057800004EB43030A4694458E461877597FF5D1BA
:105790007B1923445A4493F802C0BCF1200F5FFAEE
:1057A0008CF008BF83F8019007EB050318BF58443D
:1057B000234418BF04EB400004EB420283F802E0EC
:1057C0004FF0200318BF80F81D908C465377BFE739
:1057D000D4E90223B3F1FF3F08BFB2F1FF3F0ED07F
:1057E000FEF79AFCA1694FF0804200234FF0FF368C
:1057F0004FF0FF37C4E902670B60C2F80835238A0F
:10580000002B3AD10420FFF755F8FFF773F9002079
:10581000FFF780F920230120E37403B0BDE8F08F87
:105820007A1908EB451304EB4303A05C5B7FA35498
:105830004FEA451B034604211A465B4404EB43032D
:10584000904519775B7FF7D17B1923443D449E78BF
:10585000202EF1B21CBF594404EB4101934404EBE8
:105860004B0B2C4414BF4877587000202023A270A3
:105870008BF81D3003B0BDE8F08F0520FFF71AF854
:1058800000232382BEE7D4E90223B3F1FF3F08BF20
:10589000B2F1FF3F0ED0FEF73FFCA2694FF0FF319F
:1058A0004FF080434FF0FF30C4E902010021116046
:1058B000C3F80815238A5BB90420FEF7FBFFFFF746
:1058C00019F90020FFF726F92023E374022019E7D5
:1058D0000520FEF7EFFF00232382EDE7F80F0020FD
:1058E00000000000A00F0020980C002038B5164AD8
:1058F000164D4FF0FF304FF0FF310023C2E9020197
:10590000C5E90201202142F22000A970136082F84B
:105910002830E9741C462880AB742B8205F11C02E8
:1059200002F814300134202CFAD1094801F0EAFCC5
:10593000084B094A1C70107001F0D4FDA861FFF7F4
:105940005DF801232B7538BDA00F0020F80F002053
:10595000C1500000980F0020D00F00202DE9F04F1B
:1059600087B003F061FCDFF80CA306460D46FFF795
:10597000C1F84FF0FF334FF0FF32CAE902239AF823
:105980002830D3B9DAF81830DAF82020DAF81C1009
:10599000B948023341F100019B1802F5DF62A0FB18
:1059A00002024FEA922241F100019B1841F10002EC
:1059B0009E4275EB020380F094814FF0FF304FF070
:1059C000FF31FEF70DFF002800F0A081AB4A1378ED
:1059D0000593202B00F09581A94C20231370E374CC
:1059E000A37C0022CAF8002003EB4302A75CDAB2D2
:1059F000202F4FEA4303039204930BD0DFF88482F5
:105A000007EB470308EBC3034FEA4709DA7D012A96
:105A100000F0EC80DDE903329A4F02EB0309A14468
:105A20005D0199F80060202E1BD003F0FDFB32468B
:105A30004FF0200E07E0AB1804EB430396465B7F64
:105A4000202B5FD01A4602EB420307EBC303D3E9D6
:105A500002C384458B41EED3BEF1200F4CD1964258
:105A6000DFD1894B0BB1AFF3008003F0DDFBE37CAA
:105A7000202B80468B4607D0DAE90623023041F11D
:105A8000000182428B41CCD3202E00F08B80FEF7A8
:105A9000A3FD98B106EB460207EBC202D3689268F9
:105AA00002930192FEF7DCFD019A029B10EB0800C5
:105AB0004BF1000182428B4180F0EA80404659461A
:105AC00033460122FFF7F0F8002843D0E674059B27
:105AD000EB1804EB43031A7F022A00F0A680FF2391
